:10000000021C6C740E6C7712200274111220EB30FB
:10001000E04F9000D6691E00020BEA007420122007
:10002000780A1B9000D40BEA209D211BEA20900047
:10003000D6693E00020BEA202D31793E00021BEA10
:10004000209000D40BEA304D33780E74117E704846
:10005000122002E49000D3F02274117E704002203E
:10006000022222021551900000E0B4802490000387
:10007000E0701E900002E07018900005E070129091
:100080000004E0700C9000060BEA30BE34000168FA
:1000900003022803900092E0B4040A7E3417937E92
:1000A0002400FF80087E3417917E2400FF9000D644
:1000B000793E00021BEA207E3400019000D41BEA46
:1000C000300227D49000901BEA302202179D7F70E7
:1000D0007F517EC400017ED4015C7E9400E1020168
:1000E0003D4005E47A7BB0227A7BB00B7C227F70A6
:1000F0007F5190018E0BEAC069DE00027E940103FD
:1001000002013D4005E47A7BB0227A7BB00B7C2271
:10011000540F2490D43440D430F30CBEB041400787
:10012000BEB05B500224204CCC68021BC00B84D3B1
:1001300089944CCC680B742012012780F5CA3B6D62
:10014000889F337CAE7E5BB00B5C7007C37D38DA72
:100150003B8994B42569C2F37E5BB00B5CA5F8249F
:10016000D0BEB00A501B7E500A20F60DAC5CA52D07
:100170007CCB70034EF00180DDAC5DA52D7CDB8077
:10018000D524CFBEB01AA5E850055E00DFD2F390AB
:100190000512A3E4936011BCB078F77417934CABCD
:1001A00030F6B34EF08080AEA3E4936010BCB0781C
:1001B000F77416937C3B7423937C2B89147CB0805A
:1001C00013742012012720F205BEC00250F31B6DEC
:1001D00029B600011201270201321B6E69160002C6
:1001E0000B6A00BE08000078087E0400FF7E142819
:1001F0005D20F21E4CCC681A7F10E47E1B804C8878
:1002000068070B1C04BCBD78F2C2F6CA0B120311BE
:10021000DA0B7E0BB060C0CA0B120127DA0B0B0C95
:100220004CDD68EE1BD078EA80ADD2F07E101080F5
:10023000037E10085EB05F800AD2F67E100A800549
:100240007E100AC2F66D119F117E00201B6C7E6B22
:100250007030F6021A3720F1051B6C7E6B6030F6A9
:10026000041A261A2430F0051B6D0B6A20A5EC3306
:1002700082F692F6500A7CEA9F229F217F127CAE82
:100280004C44780F7C457C567C676C772E00F87860
:10029000EF80122F117CB3337C3B9CB140047C3B3C
:1002A0000B70A5D8EE7CB230E005DAB8C44C3BCA7E
:1002B000380B207E00207E3000BE18000078C1BEC2
:1002C0001008780730F404C2F480B5CA287CB2BCA8
:1002D000BD38027CBD120311DA28BC2D500A1BD098
:1002E000E4CA2812011080F07CB213DAB84004C4CA
:1002F000CAB8C4CA28BEF08040095CDD7805A5DA1A
:100300000260065EF07F120110DA28A5DADA020137
:1003100032BEF001680F30F402240220F50620F707
:100320000330F6010420F229BCBC5025CAB87CBFBA
:1003300013B0E67420501174307C8A5E80F0680837
:100340001203515EA00F8003120127DAB8BCBC78FB
:10035000DB30F40F7430120127745830F3027478D4
:1003600012012730F605742D020127742B20F5F8B1
:10037000742020F7F3221B6C7E6BB010F1021B6C13
:1003800020F60B30E704F404D2F27CCB800520E7A2
:10039000057CDB0201565EF07F80F81B6E6916005B
:1003A000020B6A0030F0076D221B0A200B0D1B0A9E
:1003B00080020141E46C22BE3007500B7F1F2D31BB
:1003C0002E34FFF77E39B0227CBF20E7A8742E4E72
:1003D000F0800201271204FB403D7CBD7003047CC9
:1003E000DB1206127C3D4C3368101B307CBE20E4CF
:1003F000091203B470044C3378F07CBD7CD3BEA0EA
:10040000FD481CBCAB5818E49CBA2CB31801E47C22
:10041000DB02049C1204FB406E7CBD041206127ABF
:10042000FBA07CAE7CBDA2F492F0C2F4400260015D
:100430000424051203117E30FF0B301203B4CA38B6
:1004400012011020F0044CDD68031203C8DA38BC36
:100450003D78E6740E120110742B7EFBA030F70776
:10046000742D6EA0FF0BA07AFBA01201277EA00ABC
:100470007EFBB0847AFBA01201107EFBB01201104B
:100480009EF80008020132D2F27ED0000201F11281
:1004900004FB40F37CBA2CBD041206127AFBA07C4C
:1004A000BA7CAE30E701E40420F4044CDD6805D2E8
:1004B000F0C2F4042CBD1203116C337EFBB0601B40
:1004C00020E712147AFBB01203B4CA38120110DA12
:1004D000380B3080E6047AFBB01B301203B4CA3804
:1004E0001201104CDD68071203C81BD080E19EF892
:1004F000000930F0031203C80201327CEA7CAF101D
:10050000F7037ED0067CFA1B6E693600020B6A2068
:1005100002055A2D2B204C4248232E0053584F449D
:10052000494355502A4E46454700042080010200A9
:100530001040DA2C313939C6402A769B8F14D50108
:100540000202020201020203030404034E614E0090
:100550002B494E46002D494E46007D522D557CBEFE
:1005600092E67CEB7CBA601F0470287CB5C2E77E03
:100570000400FF60067E14054CD3227E140555400E
:10058000047E140550D322DA099F22CA2BCA2BC33A
:10059000CA09220A0A7E144D10AD109E083AF09E38
:1005A00010267CB5C2E77EA0567C9BA46E54FFFF4C
:1005B0002E54C511ACA92D15E4A539CAB8CA1B2003
:1005C000E70A1207A6DA1B1206F5800AF4041207DE
:1005D000A6DA1B120655DAA87CB5337CB4334E502C
:1005E000806C4424822F111478FBDA497407BE40D2
:1005F0000A40099E400ACA0201140BA0CA486C4472
:100600002F117F012F112F112F101478EFCA48CA14
:1006100049227F0F20E73ABEB007400274070A0B59
:100620002D109E1400097E19B02EB0FB501F4C11E6
:100630006817E47A19B01B147E19B0047A19B0B4A3
:100640000A0BE47A19B0A5D9ED0BA074017A19B0A0
:10065000225EE0BF225D22680D5D0078122D220B24
:100660004068099F11222D000B0078F902081A1228
:1006700007DD5C800B806808248150072CB0500A8D
:100680000208222CB0400302081F7C8B5D117826E3
:100690007CB17CA5BE1080680A5D33780DA5BD8055
:1006A000057F1002080C6D0080307F017C5B7CB1FF
:1006B0007CA5AD1280245D337806A5BD80F080E175
:1006C000CA887D41AD437CB17CA5AD122D1450028A
:1006D0000B047C5BAD232F01DA88A42D05BE0080BE
:1006E00040060B80780480982F007C437C507C610E
:1006F0007C720207F6BE24FFFF6806BE04FFFF7887
:100700000302081A1207DD5CB00468F57CB8A5483E
:1007100068EF7CB870039F1122A5B800030208227D
:100720002E008150079C80380702081F9C8050EDE6
:100730000A51C2E74D51780302080C7E5400807EB6
:10074000901A6C0080061B9068142F11BF10400493
:100750009F104CAB0330E7EECAA86CAA80E8DA39E8
:10076000DA587C4ABE5080500A1B8068BC2F11505A
:10077000020B700207F63F8000004120000042C8D3
:100780000000447A0000461C400047C350004974F2
:1007900024004B1896804CBEBC205A0E1BCA6753CF
:1007A000C21C749DC5AE7C7B60065407681623236B
:1007B0001207CB7CB75438680A7F101207C812069C
:1007C000557F01227CB7543803241C6CAA2E540791
:1007D000767E4400FF0B2A0069120002222D00924F
:1007E000D50E104E10807D422D445002B2D54E5091
:1007F000806C447CB8222C4450120B1C7E40005E5E
:10080000507FBE18000078040B806816A2D57CB813
:10081000137C4B7CB592E77C5B227E1CFFFF229F02
:1008200011227E24FF8020D5026C456D33227E3458
:10083000FEB67E24007E7E1BB054FC44037A1BB0BF
:100840007E1BB054F3440C7A1BB07E1BB054CF44D3
:10085000307A1BB07E34FBF47E1BB054FC7A1BB0A4
:100860007E34FEE27E1BB054F87A1BB0E47E34FE88
:10087000F07A1BB07E34FEF17A1BB074037E34FE36
:10088000F27A1BB074E77E34FEF37A1BB07E34FE3E
:10089000E07E1BB044807A1BB0E47E34FEEE7A1B0F
:1008A000B07E34FEEF7A1BB07E34FEEC7E1BB0547B
:1008B000FE7A1BB07E14FEE87E04007E7E0BB054F0
:1008C000FC7A0BB07E1BB044017A1BB074257E34D9
:1008D00001F4120D0A7E34FEE87E24007E7E1BB0F9
:1008E000548F44607A1BB07E1BB044087A1BB07EE4
:1008F00034FEEC7E1BB054FD7A1BB07E14FEB57E38
:1009000004007E7E0BB044017A0BB07E1BB054EF26
:100910007A1BB07E14FEE97E0BB054FC7A0BB07EDD
:100920001BB044107A1BB074267E3401F4120D0AF9
:100930007E34FEE97E24007E7E1BB0548F44607AB4
:100940001BB07E1BB044087A1BB07E34FEEC7E1BCD
:10095000B054DF7A1BB07E34FEB57E1BB044047AFF
:100960001BB07E34FEED7E1BB054FE7A1BB07E14AD
:10097000FEEA7E04007E7E0BB054FC7A0BB07E1B38
:10098000B044017A1BB074277E3401F4120D0A7E44
:1009900034FEEA7E24007E7E1BB0548F44607A1BB6
:1009A000B07E1BB044087A1BB07E34FEED7E1BB0D7
:1009B00054FD7A1BB07E34FEB57E1BB044107A1B0A
:1009C000B07E34FEFD7E1BB044807A1BB07E34FBCB
:1009D000F47E1BB054FC44037A1BB07E1BB054FB66
:1009E0007A1BB074601222287C7B4E700174600206
:1009F0002375CAF89000007EEBF07CBF5480B48071
:100A000018900003E07032900002E0702C90000615
:100A10000BEA30BE3400026803020AF67CBF540FB2
:100A200014681B14683C0BB16803020AF6900005B9
:100A3000E07006900004E0601E020AF68019900043
:100A400092E0B4040F900005E06003020AF6900003
:100A500004E06003020AF67E3417917E2400FF0250
:100A60000ADE900092E0B40406900005E060030204
:100A70000AF69000047EEB707CA75EA00F1B7068E6
:100A8000342E707F68040B70786C7E2400017CBA71
:100A900060053E241478FB9000DAE00A3B5D326882
:100AA0000A7E3417937E2400FF80337E3417917EB4
:100AB0002400FF80297E2400017CBA60053E2414B6
:100AC00078FB9000DBE00A3B5D32680A7E341793C6
:100AD0007E2400FF80087E3417917E2400FF900062
:100AE000D6793E00021BEA207E3400029000D41B1F
:100AF000EA308007800012280380031227D4DAF836
:100B0000227C7B24EFBEB0184003020C097EA003B8
:100B1000A4900B1573020B5D020B72020B86020B85
:100B20009A020C09020C09020C09020C09020C09B8
:100B3000020C09020C09020C09020C09020C090240
:100B40000C09020C09020C09020C09020C09020C26
:100B500009020BAE020BC2020BD6020BEA7E34FE78
:100B6000D57E24007E7E1B707CA7E47E34FED602F8
:100B70000BFC7E34FED77E24007E7E1B707CA7E4B7
:100B80007E34FED880767E34FED97E24007E7E1BA5
:100B9000707CA7E47E34FEDA80627E34FEDB7E2445
:100BA000007E7E1B707CA7E47E34FEDC804E7E34AB
:100BB000FEF57E24007E7E1B707CA7E47E34FEF66C
:100BC000803A7E34FEF77E24007E7E1B707CA7E494
:100BD0007E34FEF880267E34FEF97E24007E7E1B65
:100BE000707CA7E47E34FEFA80127E34FEFB7E2405
:100BF000007E7E1B707CA7E47E34FEFC7E24007E9B
:100C00007E1B700A474D4580026D447D3422CA79AF
:100C1000740E7E700112200274141220EB7CFB30E3
:100C2000E60874147E70801220027CBF20E003026C
:100C30000D077E14004C7E04000174211220789070
:100C40000008F090008C693E00020BEA204D2378EA
:100C500003020CEA6CFF020CDF900009E01A3B90E3
:100C6000008C691E00020BEA002D317D207E1BA046
:100C70000A4F2E44004C7A91827A81837EEBE0BC4D
:100C8000EA784090000904F0900009E01A3B2D3109
:100C90007D207E1BB0704674146C77122002E47EB7
:100CA00034FE007E24007E7A1BB075F40053DCF025
:100CB0007E34FE077A1BB07E34000A12272575C7E2
:100CC0006080FE90008C693E00020BEA207E1B7063
:100CD000BCE7780474018001E4900009F00BF09007
:100CE0000008E0BCFB5003020C59D20090000A0B34
:100CF000EA304D33681190000A0BEA3099347414CD
:100D00006C77122002C200DA79227D0324EFBEB094
:100D1000184003020E047EA003A4900D1E73020D62
:100D200066020D7A020D8D020DA0020E04020E0461
:100D3000020E04020E04020E04020E04020E04024D
:100D40000E04020E04020E04020E04020E04020E31
:100D500004020E04020E04020E04020DB3020DC6BC
:100D6000020DD9020DEC7E34FED57E24007E7A1B66
:100D7000007C317E34FED6020DFD7E34FED77E240B
:100D8000007E7A1B007C317E34FED880707E34FE7B
:100D9000D97E24007E7A1B007C317E34FEDA805DB1
:100DA0007E34FEDB7E24007E7A1B007C317E34FEA6
:100DB000DC804A7E34FEF57E24007E7A1B007C3186
:100DC0007E34FEF680377E34FEF77E24007E7A1B6A
:100DD000007C317E34FEF880247E34FEF97E2400CF
:100DE0007E7A1B007C317E34FEFA80117E34FEFB5D
:100DF0007E24007E7A1B007C317E34FEFC7E240043
:100E00007E7A1B3022CA3B7C7B24EFBEB0184003A5
:100E1000020EDE7EA003A4900E1B73020E63020E70
:100E200070020E7D020E8A020EDE020EDE020EDE61
:100E3000020EDE020EDE020EDE020EDE020EDE020A
:100E40000EDE020EDE020EDE020EDE020EDE020EEE
:100E5000DE020EDE020EDE020E9A020EAA020EBAAA
:100E6000020ECA74551221F77CEB6CFF7456802574
:100E700074571221F77CEB6CFF7458801874591268
:100E800021F77CEB6CFF745A800B745B1221F77CAA
:100E9000EB6CFF745C1221F7803E74751222287C83
:100EA000EB6CFF7476122228802E74771222287C35
:100EB000EB6CFF7478122228801E74791222287C31
:100EC000EB6CFF747A122228800E747B1222287C2D
:100ED000EB6CFF747C1222280A6B4D6780026D66F2
:100EE0007D36DA3B2274017E34FE0B7E24007E7A4E
:100EF0001BB07E34FE907A1BB07E34FE947A1BB019
:100F00007E34FE917A1BB07E34FE927A1BB07E3422
:100F1000FE937A1BB07E34FE047E1BB044807A1BA5
:100F2000B07E34FE047E24007E7E1BB030E0F27E74
:100F300034FE077E24007E7E1BB044807A1BB07E88
:100F400034FE077E24007E7E1BB030E0F2740A7E01
:100F500034FE017E24007E7A1BB07E34FDEC7E1BC5
:100F6000B0F59F7E34FDF77E1BB0F5A6E59D54FCE1
:100F70004402F59D7E34FE007E1BB054FC7A1BB00B
:100F80007E1BB044807A1BB0E5DC549F4420F5DC26
:100F900043DC807E3400011227557E34FE007E241F
:100FA000007E7E1BB054F344047A1BB074047E149C
:100FB000FE017E04007E7A0BB07E1BB054BF7A1B0C
:100FC000B022900000E05480BEB080680302107030
:100FD000900003E01BB168221468370BB16803026C
:100FE00010707E34173C7E2400FF9000D6793E00BE
:100FF000021BEA207E340012806C7E34174E7E2461
:1010000000FF9000D6793E00021BEA207E340043A8
:101010008054900002E014681F1468340BB17850BB
:101020007E3417387E2400FF9000D6793E00021BE4
:10103000EA207E340004802E7E3417957E2400FF43
:101040009000D6793E00021BEA207E34000880160C
:101050007E34171A7E2400FF9000D6793E00021BD2
:10106000EA207E34001E9000D41BEA308005800008
:101070000228039000060BEA309000D40BEA20BD52
:101080002328069000D41BEA300227D4CA797D7346
:1010900024EFBEB018400302114A7EA003A49010B2
:1010A000A2730210EA0210F502110002110B0211E4
:1010B0004A02114A02114A02114A02114A02114A15
:1010C00002114A02114A02114A02114A02114A024D
:1010D000114A02114A02114A02114A02114A02112E
:1010E0001B02112602113102113C74550A3E1223D3
:1010F000507456801F74570A3E122350745880143F
:1011000074590A3E122350745A8009745B0A3E12C5
:101110002350745C7C7F122350802F74750A3E121A
:1011200023757476801F74770A3E12237574788055
:101130001474790A3E122375747A8009747B0A3E0E
:10114000122375747C7C7F122375DA7922CA3B9056
:10115000016E1BEA307F30900092E0B404028003FD
:101160000212056D339001711BEA307E34138890B2
:1011700001731BEA30A9C7AF740E7E700112200202
:1011800074111220EB30E019A9D7AF7E34000A1297
:1011900024669001730BEA301B341BEA30686680CA
:1011A000D490016E0BEA30BE3400400804744080D5
:1011B000027CB7900170F0A9C7AFC202740E7E70B6
:1011C000011220029001710BEA307F032D13900170
:1011D00070E07E70011227AED202A9D7AF900170E5
:1011E000E00A2B9001710BEA302D321BEA3090019E
:1011F0006E0BEA309D321BEA30900170E0BEB040C9
:10120000400302116BDA3B2253B2FC43B1037480FA
:101210007E34FE077E24007E7A1BB07E34FE077E7D
:1012200024007E7E1BB030E0F253DCF075F490E4D5
:101230006C7712200274017E700812200274077EFF
:10124000703F12200274097E703F122002740B7EE0
:10125000700712200274016C771220027402900051
:1012600092F0E49000D3F09000DAF09000DBF0C24E
:10127000027E3401007E2400C2900175793E000296
:101280001BEA20900179F090017AF0740890017BBC
:10129000F0A9D7AF7401900194F0900194E070111F
:1012A0009F1190018E793E00021BEA209F000200F0
:1012B000EE22CA3B9001811BEA307F306D339001F2
:1012C000840213497438900183F09001810BEA5035
:1012D000BE5400385004900183F01226C29001835E
:1012E000E00A5B2E540003900010F074CF900011C0
:1012F000F09001840BEA107E3400127E2400011B62
:101300001A10900183E00A3BCA397F137E1400143F
:101310007E04000112239A1BFD900183E00A3B2EFC
:101320003400080A3712282C900183E00A3B2D7301
:10133000900183E00A2B9001840BEA302D321BEAE6
:10134000309001810BEA309D321BEA309001810B15
:10135000EA304D3368030212C4DA3B22CA3B9001E3
:101360007C1BEA307F306D3390017F0213F37438B9
:1013700090017EF090017C0BEA50BE54003850047E
:1013800090017EF01226DB90017EE00A5B2E540075
:1013900003900010F074AF900011F090017F0BEA01
:1013A000107E3400127E2400011B1A1090017EE092
:1013B0000A3BCA397F137E1400147E0400011223F5
:1013C0009A1BFD90017EE00A3B2E3400080A37127A
:1013D000282C90017EE00A3B2D7390017EE00A2BC1
:1013E00090017F0BEA302D321BEA3090017C0BEA32
:1013F000309D321BEA3090017C0BEA304D3368039C
:1014000002136EDA3B22900092E0BEB00268229096
:101410000000E0701C900003E07016900005E07082
:1014200010900004E0700A9000060BEA304D33681B
:1014300003022803900002E0B4015F74049000925C
:10144000F0E49000DAF09000DBF0740E7E70011290
:10145000200274127E702012200274107E70081216
:101460002002740E7E700212200274127E7020120E
:10147000200274107E7008122002740E7E70011219
:10148000200274126C7712200274137E70081220EE
:1014900002740E6C7712200280107403900092F098
:1014A00074FF9000DAF09000DBF002281F900092A9
:1014B000E0B40429900000E0B40222900005E0604E
:1014C0000302154B900003E0600302154B900002ED
:1014D000E070789000060BEA304D336802806C9023
:1014E00000047EEB607C765E700F1B60682E2E60C1
:1014F0007F68040B6078547E2400017CB760053E51
:10150000241478FB7C656E60FF9000DAE05CB6F036
:10151000740E12200274117E704080237E2400011C
:101520007CB760053E241478FB7C656E60FF9000FC
:10153000DBE05CB6F0740E12200274147E70801230
:101540002002740E6C771220028003022803022806
:101550001FCA7BCA6BCA5BCA4BCA2BCA1BCA0BC049
:10156000D0C083C08290015E0BEA300B341BEA309E
:1015700090015C0BEA300B341BEA3090015E0BEA01
:1015800030BE3403E8402B6D3390015E1BEA30B26D
:10159000C27425120E052E340064BE3403E72802FF
:1015A0006D33742512108C7E1428907E0400FF1277
:1015B0001F4B90015C0BEA30BE34000140217401E6
:1015C0001223299001601BEA307402122329900132
:1015D000621BEA3074031223299001641BEA30D0A5
:1015E00082D083D0D0DA0BDA1BDA2BDA4BDA5BDA73
:1015F0006BDA7B32900092E0B40423900000E0B4F8
:10160000021C900005E0707A900003E07074900076
:1016100002E0706E9000060BEA304D336802806283
:101620009000047EEB607C765E700F1B6068292E54
:10163000607F68040B60784A7E2400017CB76005F7
:101640003E241478FB9000DAE04CB5F0740E1220C2
:101650000274117E7010801E7E2400017CB760052C
:101660003E241478FB9000DBE04CB5F0740E1220A1
:101670000274147E7020122002740E6C7712200205
:10168000800302280302281FCAF8740E6C77122008
:101690000274111220EB7CFB30E20F74117C7F5E30
:1016A00070FB122002E49000D3F07CBF30E40A7497
:1016B000117C7F4E70801220029000D3E024FD68E0
:1016C0004E1468500BB2784F7CBF30E04A7E140055
:1016D000007E04000174201220789000060BEA308E
:1016E0001220B29000061BEA30900000E054602403
:1016F000E0680D24E0680E2440780F12196280170C
:1017000012268E8012122859800D1228038008128A
:10171000181D8003120003DAF8221E035300540040
:101720004300200055005300420020005300650094
:101730007200690061006C000403090412010002D8
:1017400002000040BF3402FF000101020001090253
:10175000430002010080320904000001020201007E
:1017600005240010010524010001042402020524BF
:10177000060001070582034000FF09040100020A78
:10178000000000070581024000000705010240003B
:1017900000000001000803530054004300CA7BCA44
:1017A0006BCA5BCA4BCA3BCA2BCA1BCA0BC0D0C090
:1017B00083C0827EF1FC74061220EB7CEB74021273
:1017C00020EB7CCB74041220EB7CDB7CBE30E1038D
:1017D00012285C7CBE30E203121BDA7CBC30E003D2
:1017E0001216887CBC30E103121F0C7CBC30E20373
:1017F0001222597CBD30E103120C0E7CBE30E00396
:101800001200627AF1FCD082D083D0D0DA0BDA1BDE
:10181000DA2BDA3BDA4BDA5BDA6BDA7B32CAF87452
:101820000E6C7712200274111220EB20E1679000F9
:10183000D40BEA30BE34004028057EF04080027CA4
:10184000F79000D6691E00020BEA007C7F7420121C
:1018500022D70A2F9000D40BEA309D321BEA300ABF
:10186000159000D6693E00020BEA202D31793E002A
:10187000021BEA209000D40BEA304D33780F74112C
:101880007E700A122002E49000D3F0800874117E6A
:101890007002122002DAF8229001661BEA20793EDB
:1018A00000027E3401697E2400017E1B307E3401FB
:1018B0006A7E2400017A1B307E3401687E24000198
:1018C0007E1B307E34016B7E2400017A1B307E3417
:1018D00001677E2400017E1B307E34016C7E240073
:1018E000017A1B307E3401667E2400017E1B307E2F
:1018F00034016D7E2400017A1B3090016A693E003C
:10190000020BEA2022CA799001041BEA00791E002A
:10191000021226F47453900010F0E4900011F0903D
:101920000012F0900013F07E3401047E2400019038
:10193000018E793E00021BEA207E1400147E040012
:1019400001900104693E00020BEA201200EE7D7353
:101950002E7400087D370B340A3712282C7D37DAB5
:101960007922900001E0BEB00D50507EA003A490FB
:1019700019737302199A02199D0219BB0219A00268
:1019800019BB0219A30219A60219A90219AC02195E
:10199000AF0219B20219B50219B80209F20214AD68
:1019A0000215F4021A60020FC202285302006602F6
:1019B0001406021C24022284022856022803A9D7F6
:1019C000BA75E90075EA0075930075940075910089
:1019D00075920075950075960075B10075B2007529
:1019E000B30075B40075C90075CA0075CB0075CC1D
:1019F0000075E10075E200120EE5122842D2AFC276
:101A0000C2121CB3121B8F12244812242880FECA53
:101A10003B7F707CF57CE67CD77CCBCA7B0A366D3D
:101A2000222F110A1F6D0012273DDA0B12135C12D0
:101A300026DB7405900010F074A8900011F090005F
:101A4000127AEBC09000137AEBD09000147AEBE09E
:101A50009000157AEBF07E34000A12282CDA3B2233
:101A6000CAF8900000E07027900005E07021900017
:101A700004E0701B900003E070159000027EEBF014
:101A8000BEF080500A9000060BEA304D3368051214
:101A900028038017E47C7F1220024CFF6804740343
:101AA00080027402900092F012281FDAF822CAF81D
:101AB0007CFBBEF03B28037EF03B744C90000CF0A6
:101AC000744590000DF0744490000EF0742890005E
:101AD0000FF09000107AEBF00A3FCA397F107E14A5
:101AE00000117E04000112239A1BFD0A3F2E3400D0
:101AF000050A3712282CDAF822CAF87CFBBEF03B24
:101B000028037EF03B744C90000CF0744590000D5F
:101B1000F0744490000EF0744090000FF0900010AC
:101B20007AEBF00A3FCA397F107E1400117E040060
:101B30000112239A1BFD0A3F2E3400050A37122892
:101B40002CDAF822CAF87CFB90018A1BEA20793E45
:101B500000021226F4744C900010F07401900011F1
:101B6000F09000127AEBF0E4900013F090018A6993
:101B70001E00020BEA007E3400147E24000179115D
:101B800000021B1A007E34000C12282CDAF82253B3
:101B9000DEF043DE207E34FEAD7E24007E7E1BB070
:101BA00054F844047A1BB07E14FEA87E04007E7EA6
:101BB0000BB0547F44807A0BB07E0BB0549F7A0BED
:101BC000B07E0BB054E0440A7A0BB07E1BB054DFF9
:101BD0007A1BB053BCF043BC8022E46C7712200225
:101BE0007402900092F0E49000D3F0C202740E7E72
:101BF000700112200274117E7048122002740E7E51
:101C0000700212200274117E7048122002740E7E3F
:101C1000700112200274147E7090122002740E6CF7
:101C200077022002900092E0B4041F900000E0B41C
:101C30008118900003E07012900005E0700C900095
:101C4000060BEA30BE34000168030228037E341715
:101C5000917E2400FF9000D6793E00021BEA207E90
:101C60003400019000D41BEA300227D47584017E31
:101C700044041FE47A49B01B4478F97EF800207EC2
:101C80000400FF7E1428610B0A405D44682229503D
:101C900000020A25693000032E0800050B44800A63
:101CA0007E0BB07A1BB00B1C0B0C1B4478F280D758
:101CB0000227E575C8FF53CA0F53C90F43CA0F5314
:101CC000C9F0E47E34FE4D7E24007E7A1BB07E3463
:101CD000FE157A1BB07E34FE457A1BB07E34FE1DA5
:101CE0007A1BB07E34FE257A1BB07E34FE2D7A1B23
:101CF000B07E34FE357A1BB0227CA77C7B744C907E
:101D0000000CF0744590000DF0744490000EF074D7
:101D10002890000FF07402900010F07CB754077EFA
:101D200044000160053E441478FB7CB9900011F03A
:101D30009000127AEBA07E34000702282C7CA77C4E
:101D40007B744C90000CF0744590000DF07444903E
:101D5000000EF0744090000FF07402900010F07CC0
:101D6000B754077E44000160053E441478FB7CB9FB
:101D7000900011F09000127AEBA07E340007022848
:101D80002C7C6B744C90000CF0744590000DF0743A
:101D90004490000EF0742890000FF0740290001030
:101DA000F0E4900011F07CB65407C40354F87C6B47
:101DB0004E60807CB754074CB6900012F07E340021
:101DC0000702282C7C6B744C90000CF0744590003A
:101DD0000DF0744490000EF0744090000FF0740207
:101DE000900010F0E4900011F07CB65407C4035446
:101DF000F87C6B4E60807CB754074CB6900012F0B4
:101E00007E34000702282CCA3B7CF57CE67CD77C1C
:101E1000CB7C7EAC7F1212B21226C27405900010E9
:101E2000F074C8900011F09000127AEBC09000138B
:101E30007AEBD09000147AEBE09000157AEBF07E0C
:101E400034000A12282CDA3B22CA3B7F30900193DF
:101E50007AEB70900192F01228110B347F03121369
:101E60005C1226DB7403900010F074A7900011F050
:101E7000900192E0900012F0900193E0900013F036
:101E80007E34000812282CDA3B227C6B744C9000C4
:101E90000CF0744590000DF0744490000EF074281E
:101EA00090000FF07402900010F0E4900011F05ECA
:101EB00060077CB6C40354F87C6B7CB754074CB6FF
:101EC000900012F07E34000702282C7C6B744C903A
:101ED000000CF0744590000DF0744490000EF07406
:101EE0004090000FF07402900010F0E4900011F0A8
:101EF0005E60077CB6C40354F87C6B7CB754074C17
:101F0000B6900012F07E34000702282CCAF8740E36
:101F10007E700112200274111220EB7CFB30E50868
:101F200074117E70401220027CBF30E20774116C85
:101F3000771220029000900BEA304D336808900031
:101F4000900BEA309934C202DAF822CA7990013053
:101F50001BEA00791E00027E3401307E24000190CD
:101F6000018E793E00021BEA207E14000C7E0400E4
:101F700001900130693E00020BEA201200EE7D73F1
:101F80000A3712282C7D37DA7922CA3B7D727CCB46
:101F90001226C27406900010F074C6900011F074FE
:101FA00001900012F09000137AEBC09000147AEBCD
:101FB000707E3400157E2400011B1A707E34000BE5
:101FC00012282CDA3B22CA3B7D727CCB1226C274CB
:101FD00006900010F074C6900011F0740290001288
:101FE000F09000137AEBC09000147AEB707E34000E
:101FF000157E2400011B1A707E34000B12282CDA87
:102000003B227CA77C7BE5FC20E7FB7CB7547FF57B
:10201000FC000000000000000000000000000000C4
:1020200000000000000000000000000000000000B0
:102030000000000000000000007AA1EC22CA3B7DF5
:10204000727CCB1226C27406900010F074C6900009
:1020500011F0E4900012F09000137AEBC09000149D
:102060007AEB707E3400157E2400011B1A707E34DA
:10207000000B12282CDA3B22CA3B7F30CAB80BFD7A
:1020800074161220EB7AFBB039BFFFFF800C29BF1A
:10209000FFFE1220EB7A3BB00B747EFBA07CBA14DF
:1020A0007AFBB04CAA78E729BFFFFF9EF80003DA5D
:1020B0003B229001861BEA307E3401877E2400019A
:1020C0007E1B307E3401887E2400017A1B307E34F2
:1020D00001867E2400017E1B307E3401897E24002F
:1020E000017A1B309001880BEA30227CABE5FC20A2
:1020F000E7FB7CBA4480F5FC000000000000000013
:1021000000000000000000000000000000000000CF
:1021100000000000000000000000000000000000BF
:10212000E5EC22CA3B1226F47443900010F0E490D0
:102130000011F0900012F0900013F07E340008CAF5
:10214000397F107E1400147E04000112239A1BFDB7
:102150007E34001012282CDA3B22CA3B7F31122633
:10216000F47444900010F07401900011F0E49000B9
:1021700012F0900013F07E3400147E240001797177
:1021800000021B1A607E34000C12282CDA3B2290CD
:102190000092E0B40409900000E0BEB0A168030220
:1021A00028037E3401757E2400019000D6793E001C
:1021B000021BEA209000060BEA309000D41BEA30A4
:1021C0000227D4900092E0B40409900000E0BEB071
:1021D0002168030228037E3401757E2400019000EB
:1021E000D6793E00021BEA209000060BEA309000F0
:1021F000D41BEA300227F57CAB7E34FBF17E240051
:102200007E7E1BB020E7F27CBA44807A1BB07E341D
:10221000FBF17E24007E7E1BB020E7F27E34FBF2D1
:102220007E24007E7E1BB0227CAB7E34FBF57E24B8
:10223000007E7E1BB020E7F27CBA44807A1BB07E21
:1022400034FBF57E24007E7E1BB020E7F27E34FB5B
:10225000F67E24007E7E1BB022CAF8740E7E7002C9
:1022600012200274111220EB7CFB30E50874117E01
:1022700070401220027CBF30E20774116C7712208C
:1022800002DAF822900092E0B4041D900000E0B45D
:102290000116900003E07010900005E0700A9000B5
:1022A000060BEA304D33680302280302281F7D2302
:1022B000000000000000000000000000000000001E
:1022C00000000000000000000000000000007D325F
:1022D0001B347D2378DA22CA3BCA787F30CAB880A3
:1022E0000B7EFBB07E3B700B7412200229AFFFFF08
:1022F0007CBA1439BFFFFF4CAA78E61BFDDA3B22FB
:10230000CAF87CFB1226DB7403900010F074A390D3
:102310000011F07402900012F09000137AEBF07E3E
:1023200034000812282CDAF8227C7B7CAB5EA00FEC
:10233000E5BC54F04CBAF5BC43BC40E5BC30E5FB11
:1023400053BCDFE5BD7C4B6C55E5BE0A3B4D3222EC
:102350007CA77C3B7E34FBF17E24007E7E1BB0207C
:10236000E7F27EF4FBF27EE4007E7A7BA07CB3543D
:102370007F7A1BB0227CA77C3B7E34FBF57E240059
:102380007E7E1BB020E7F27EF4FBF67EE4007E7AD0
:102390007BA07CB3547F7A1BB0227F217F707F109B
:1023A000800A7E2B307A1B300B540B34691FFFFDE3
:1023B0007D011B04790FFFFD4D1178E67F1722CABE
:1023C000F87CFB1226C27402900010F074C59000D5
:1023D00011F09000127AEBF07E34000712282CDA0C
:1023E000F822CAF87CFB1226C27402900010F07426
:1023F000C4900011F09000127AEBF07E34000712C6
:10240000282CDAF822CAF87CFB1226DB7402900032
:1024100010F074A5900011F09000127AEBF07E3469
:10242000000712282CDAF822538EF7438E0443AFAC
:102430000474017E34FEA27E24007E7A1BB075D621
:10244000B975D7B0438E102212082E74257E34033E
:102450002012108C74267E34032012108C74277E78
:1024600034032002108C80120000000000000000E5
:10247000000000000000000000007D231B344D22FE
:1024800078E6221226C27402900010F074C7900001
:1024900011F07401900012F07E34000702282C1213
:1024A00026C27402900010F074C0900011F0740104
:1024B000900012F07E34000702282C1226DB7402F2
:1024C000900010F074A3900011F07401900012F0CD
:1024D0007E34000702282C1226DB7402900010F0D4
:1024E00074A4900011F07401900012F07E34000783
:1024F00002282C1226C27402900010F074C29000C0
:1025000011F07401900012F07E34000702282C12A2
:1025100026DB7402900010F074A2900011F0740297
:10252000900012F07E34000702282C1226C274029A
:10253000900010F074C1900011F07401900012F03E
:102540007E34000702282C1226DB7402900010F063
:1025500074A0900011F07401900012F07E34000716
:1025600002282C1226DB7402900010F074A2900056
:1025700011F07401900012F07E34000702282C1232
:1025800026DB7402900010F074A1900011F0740129
:10259000900012F07E34000702282C1226C274022A
:1025A000900010F074C0900011F0E4900012F07EE2
:1025B00034000702282C1226DB7402900010F074FD
:1025C000A4900011F0E4900012F07E34000702287D
:1025D0002C1226C27402900010F074C7900011F003
:1025E000E4900012F07E34000702282C1226DB74DF
:1025F00002900010F074A0900011F0E4900012F02E
:102600007E34000702282C1226DB7402900010F0A2
:1026100074A3900011F0E4900012F07E34000702E1
:10262000282C1226C27402900010F074C29000117F
:10263000F0E4900012F07E34000702282C1226C22B
:102640007402900010F074C1900011F0E490001238
:10265000F07E34000702282C1226DB740290001052
:10266000F074A1900011F0E4900012F07E340007A5
:1026700002282C1226DB7402900010F074A2900045
:1026800011F0E4900012F07E34000702282C900034
:1026900001E024DF680A14680A0BB178090221C33B
:1026A00002218F022798022803CAF80A5B2E5400E1
:1026B000201220787CFB74146C771220027CBFDA25
:1026C000F822744F90000CF0744C90000DF074459B
:1026D00090000EF0748090000FF022744C90000C6B
:1026E000F0744390000DF0744490000EF0748090EC
:1026F000000FF022743790000CF0745390000DF02E
:10270000744590000EF0744790000FF022A9C7AFF7
:10271000740E7E700112200274146C77122002C2B3
:1027200000A9D7AF22CA797D7380077E3403E812EF
:1027300024667D371B744D3378F1DA792275ED020A
:10274000226D0075ED022275ED04226D0075ED0419
:102750002275ED06227D237E3417707D131B147DB8
:102760003178F87D121B147D2178EC221226DB745F
:1027700001900010F074A6900011F07E3400060263
:10278000282C1226C27401900010F074C39000111E
:10279000F07E34000602282C900092E0B4040990E8
:1027A0000000E0BEB021680302280302281F7CA7B6
:1027B0007C7B0A5A2E5400201222D774117E70019D
:1027C0000220027E14004C7E040001900008E00A02
:1027D0003B02114D74039000D3F074117E704012CF
:1027E000200202181D1219BE9F007E34288E7E24FE
:1027F00000FF0200CE74049000D3F074117E70408C
:1028000002200274059000D3F074117E70600220E3
:10281000026D3380020B347E0BB00B1470F722E490
:102820009000D3F074117E70480220027E14000CD8
:102830007E04000102114D90008C791E00021BEAFB
:1028400000221212087E3427C302284C90000A1B73
:10285000EA30220228030228030228032228302912
:1028600000000201015C0000000201015E000000A6
:102870000101000900000201000A0000000401003B
:102880008C00FF289D000201009000000000300035
:1028900048656C6C6F20555342210D0A004053541B
:0628A000434953502300E0
:00000001FF
