:10000000021C90740E6C77122026741112210F308E
:10001000E04F9000D6691E00020BEA007420122007
:100020009C0A1B9000D40BEA209D211BEA20900023
:10003000D6693E00020BEA202D31793E00021BEA10
:10004000209000D40BEA304D33780E74117E704846
:10005000122026E49000D3F02274117E704002201A
:1000600026222202108C900000E0B480249000032D
:10007000E0701E900002E07018900005E070129091
:100080000004E0700C9000060BEA30BE34000168FA
:1000900003022827900092E0B4040A7E3417B77E4A
:1000A0002400FF80087E3417B57E2400FF9000D620
:1000B000793E00021BEA207E3400019000D41BEA46
:1000C000300227F89000901BEA30220217C17F709F
:1000D0007F517EC400017ED4015C7E9400E1020168
:1000E0003D4005E47A7BB0227A7BB00B7C227F70A6
:1000F0007F5190018E0BEAC069DE00027E940103FD
:1001000002013D4005E47A7BB0227A7BB00B7C2271
:10011000540F2490D43440D430F30CBEB041400787
:10012000BEB05B500224204CCC68021BC00B84D3B1
:1001300089944CCC680B742012012780F5CA3B6D62
:10014000889F337CAE7E5BB00B5C7007C37D38DA72
:100150003B8994B42569C2F37E5BB00B5CA5F8249F
:10016000D0BEB00A501B7E500A20F60DAC5CA52D07
:100170007CCB70034EF00180DDAC5DA52D7CDB8077
:10018000D524CFBEB01AA5E850055E00DFD2F390AB
:100190000512A3E4936011BCB078F77417934CABCD
:1001A00030F6B34EF08080AEA3E4936010BCB0781C
:1001B000F77416937C3B7423937C2B89147CB0805A
:1001C00013742012012720F205BEC00250F31B6DEC
:1001D00029B600011201270201321B6E69160002C6
:1001E0000B6A00BE08000078087E0400FF7E142819
:1001F0008120F21E4CCC681A7F10E47E1B804C8854
:1002000068070B1C04BCBD78F2C2F6CA0B120311BE
:10021000DA0B7E0BB060C0CA0B120127DA0B0B0C95
:100220004CDD68EE1BD078EA80ADD2F07E101080F5
:10023000037E10085EB05F800AD2F67E100A800549
:100240007E100AC2F66D119F117E00201B6C7E6B22
:100250007030F6021A3720F1051B6C7E6B6030F6A9
:10026000041A261A2430F0051B6D0B6A20A5EC3306
:1002700082F692F6500A7CEA9F229F217F127CAE82
:100280004C44780F7C457C567C676C772E00F87860
:10029000EF80122F117CB3337C3B9CB140047C3B3C
:1002A0000B70A5D8EE7CB230E005DAB8C44C3BCA7E
:1002B000380B207E00207E3000BE18000078C1BEC2
:1002C0001008780730F404C2F480B5CA287CB2BCA8
:1002D000BD38027CBD120311DA28BC2D500A1BD098
:1002E000E4CA2812011080F07CB213DAB84004C4CA
:1002F000CAB8C4CA28BEF08040095CDD7805A5DA1A
:100300000260065EF07F120110DA28A5DADA020137
:1003100032BEF001680F30F402240220F50620F707
:100320000330F6010420F229BCBC5025CAB87CBFBA
:1003300013B0E67420501174307C8A5E80F0680837
:100340001203515EA00F8003120127DAB8BCBC78FB
:10035000DB30F40F7430120127745830F3027478D4
:1003600012012730F605742D020127742B20F5F8B1
:10037000742020F7F3221B6C7E6BB010F1021B6C13
:1003800020F60B30E704F404D2F27CCB800520E7A2
:10039000057CDB0201565EF07F80F81B6E6916005B
:1003A000020B6A0030F0076D221B0A200B0D1B0A9E
:1003B00080020141E46C22BE3007500B7F1F2D31BB
:1003C0002E34FFF77E39B0227CBF20E7A8742E4E72
:1003D000F0800201271204FB403D7CBD7003047CC9
:1003E000DB1206127C3D4C3368101B307CBE20E4CF
:1003F000091203B470044C3378F07CBD7CD3BEA0EA
:10040000FD481CBCAB5818E49CBA2CB31801E47C22
:10041000DB02049C1204FB406E7CBD041206127ABF
:10042000FBA07CAE7CBDA2F492F0C2F4400260015D
:100430000424051203117E30FF0B301203B4CA38B6
:1004400012011020F0044CDD68031203C8DA38BC36
:100450003D78E6740E120110742B7EFBA030F70776
:10046000742D6EA0FF0BA07AFBA01201277EA00ABC
:100470007EFBB0847AFBA01201107EFBB01201104B
:100480009EF80008020132D2F27ED0000201F11281
:1004900004FB40F37CBA2CBD041206127AFBA07C4C
:1004A000BA7CAE30E701E40420F4044CDD6805D2E8
:1004B000F0C2F4042CBD1203116C337EFBB0601B40
:1004C00020E712147AFBB01203B4CA38120110DA12
:1004D000380B3080E6047AFBB01B301203B4CA3804
:1004E0001201104CDD68071203C81BD080E19EF892
:1004F000000930F0031203C80201327CEA7CAF101D
:10050000F7037ED0067CFA1B6E693600020B6A2068
:1005100002055A2D2B204C4248232E0053584F449D
:10052000494355502A4E46454700042080010200A9
:100530001040DA2C313939C6402A769B8F14D50108
:100540000202020201020203030404034E614E0090
:100550002B494E46002D494E46007D522D557CBEFE
:1005600092E67CEB7CBA601F0470287CB5C2E77E03
:100570000400FF60067E14054CD3227E140555400E
:10058000047E140550D322DA099F22CA2BCA2BC33A
:10059000CA09220A0A7E144D10AD109E083AF09E38
:1005A00010267CB5C2E77EA0567C9BA46E54FFFF4C
:1005B0002E54C511ACA92D15E4A539CAB8CA1B2003
:1005C000E70A1207A6DA1B1206F5800AF4041207DE
:1005D000A6DA1B120655DAA87CB5337CB4334E502C
:1005E000806C4424822F111478FBDA497407BE40D2
:1005F0000A40099E400ACA0201140BA0CA486C4472
:100600002F117F012F112F112F101478EFCA48CA14
:1006100049227F0F20E73ABEB007400274070A0B59
:100620002D109E1400097E19B02EB0FB501F4C11E6
:100630006817E47A19B01B147E19B0047A19B0B4A3
:100640000A0BE47A19B0A5D9ED0BA074017A19B0A0
:10065000225EE0BF225D22680D5D0078122D220B24
:100660004068099F11222D000B0078F902081A1228
:1006700007DD5C800B806808248150072CB0500A8D
:100680000208222CB0400302081F7C8B5D117826E3
:100690007CB17CA5BE1080680A5D33780DA5BD8055
:1006A000057F1002080C6D0080307F017C5B7CB1FF
:1006B0007CA5AD1280245D337806A5BD80F080E175
:1006C000CA887D41AD437CB17CA5AD122D1450028A
:1006D0000B047C5BAD232F01DA88A42D05BE0080BE
:1006E00040060B80780480982F007C437C507C610E
:1006F0007C720207F6BE24FFFF6806BE04FFFF7887
:100700000302081A1207DD5CB00468F57CB8A5483E
:1007100068EF7CB870039F1122A5B800030208227D
:100720002E008150079C80380702081F9C8050EDE6
:100730000A51C2E74D51780302080C7E5400807EB6
:10074000901A6C0080061B9068142F11BF10400493
:100750009F104CAB0330E7EECAA86CAA80E8DA39E8
:10076000DA587C4ABE5080500A1B8068BC2F11505A
:10077000020B700207F63F8000004120000042C8D3
:100780000000447A0000461C400047C350004974F2
:1007900024004B1896804CBEBC205A0E1BCA6753CF
:1007A000C21C749DC5AE7C7B60065407681623236B
:1007B0001207CB7CB75438680A7F101207C812069C
:1007C000557F01227CB7543803241C6CAA2E540791
:1007D000767E4400FF0B2A0069120002222D00924F
:1007E000D50E104E10807D422D445002B2D54E5091
:1007F000806C447CB8222C4450120B1C7E40005E5E
:10080000507FBE18000078040B806816A2D57CB813
:10081000137C4B7CB592E77C5B227E1CFFFF229F02
:1008200011227E24FF8020D5026C456D33227E3458
:10083000FEB67E24007E7E1BB054FC44037A1BB0BF
:100840007E1BB054F3440C7A1BB07E1BB054CF44D3
:10085000307A1BB07E34FBF47E1BB054FC7A1BB0A4
:100860007E34FEE27E1BB054F87A1BB0E47E34FE88
:10087000F07A1BB07E34FEF17A1BB074037E34FE36
:10088000F27A1BB074E77E34FEF37A1BB07E34FE3E
:10089000E07E1BB044807A1BB0E47E34FEEE7A1B0F
:1008A000B07E34FEEF7A1BB07E34FEEC7E1BB0547B
:1008B000FE7A1BB07E14FEE87E04007E7E0BB054F0
:1008C000FC7A0BB07E1BB044017A1BB074257E34D9
:1008D00001F4120D0A7E34FEE87E24007E7E1BB0F9
:1008E000548F44607A1BB07E1BB044087A1BB07EE4
:1008F00034FEEC7E1BB054FD7A1BB07E14FEB57E38
:1009000004007E7E0BB044017A0BB07E1BB054EF26
:100910007A1BB07E14FEE97E0BB054FC7A0BB07EDD
:100920001BB044107A1BB074267E3401F4120D0AF9
:100930007E34FEE97E24007E7E1BB0548F44607AB4
:100940001BB07E1BB044087A1BB07E34FEEC7E1BCD
:10095000B054DF7A1BB07E34FEB57E1BB044047AFF
:100960001BB07E34FEED7E1BB054FE7A1BB07E14AD
:10097000FEEA7E04007E7E0BB054FC7A0BB07E1B38
:10098000B044017A1BB074277E3401F4120D0A7E44
:1009900034FEEA7E24007E7E1BB0548F44607A1BB6
:1009A000B07E1BB044087A1BB07E34FEED7E1BB0D7
:1009B00054FD7A1BB07E34FEB57E1BB044107A1B0A
:1009C000B07E34FEFD7E1BB044807A1BB07E34FBCB
:1009D000F47E1BB054FC44037A1BB07E1BB054FB66
:1009E0007A1BB0746012224C7C7B4E7001746002E2
:1009F0002399CAF89000007EEBF07CBF5480B4804D
:100A000018900003E07032900002E0702C90000615
:100A10000BEA30BE3400026803020AF67CBF540FB2
:100A200014681B14683C0BB16803020AF6900005B9
:100A3000E07006900004E0601E020AF68019900043
:100A400092E0B4040F900005E06003020AF6900003
:100A500004E06003020AF67E3417B57E2400FF022C
:100A60000ADE900092E0B40406900005E060030204
:100A70000AF69000047EEB707CA75EA00F1B7068E6
:100A8000342E707F68040B70786C7E2400017CBA71
:100A900060053E241478FB9000DAE00A3B5D326882
:100AA0000A7E3417B77E2400FF80337E3417B57E6C
:100AB0002400FF80297E2400017CBA60053E2414B6
:100AC00078FB9000DBE00A3B5D32680A7E3417B7A2
:100AD0007E2400FF80087E3417B57E2400FF90003E
:100AE000D6793E00021BEA207E3400029000D41B1F
:100AF000EA308007800012282780031227F8DAF8EE
:100B0000227C7B24EFBEB0184003020C097EA003B8
:100B1000A4900B1573020B5D020B72020B86020B85
:100B20009A020C09020C09020C09020C09020C09B8
:100B3000020C09020C09020C09020C09020C090240
:100B40000C09020C09020C09020C09020C09020C26
:100B500009020BAE020BC2020BD6020BEA7E34FE78
:100B6000D57E24007E7E1B707CA7E47E34FED602F8
:100B70000BFC7E34FED77E24007E7E1B707CA7E4B7
:100B80007E34FED880767E34FED97E24007E7E1BA5
:100B9000707CA7E47E34FEDA80627E34FEDB7E2445
:100BA000007E7E1B707CA7E47E34FEDC804E7E34AB
:100BB000FEF57E24007E7E1B707CA7E47E34FEF66C
:100BC000803A7E34FEF77E24007E7E1B707CA7E494
:100BD0007E34FEF880267E34FEF97E24007E7E1B65
:100BE000707CA7E47E34FEFA80127E34FEFB7E2405
:100BF000007E7E1B707CA7E47E34FEFC7E24007E9B
:100C00007E1B700A474D4580026D447D3422CA79AF
:100C1000740E7E7001122026741412210F7CFB309A
:100C2000E60874147E70801220267CBF20E0030248
:100C30000D077E14004C7E040001742112209C904C
:100C40000008F090008C693E00020BEA204D2378EA
:100C500003020CEA6CFF020CDF900009E01A3B90E3
:100C6000008C691E00020BEA002D317D207E1BA046
:100C70000A4F2E44004C7A91827A81837EEBE0BC4D
:100C8000EA784090000904F0900009E01A3B2D3109
:100C90007D207E1BB0704674146C77122026E47E93
:100CA00034FE007E24007E7A1BB075F40053DCF025
:100CB0007E34FE077A1BB07E34000A12274975C7BE
:100CC0006080FE90008C693E00020BEA207E1B7063
:100CD000BCE7780474018001E4900009F00BF09007
:100CE0000008E0BCFB5003020C59D20090000A0B34
:100CF000EA304D33681190000A0BEA3099347414CD
:100D00006C77122026C200DA79227D0324EFBEB070
:100D1000184003020E047EA003A4900D1E73020D62
:100D200066020D7A020D8D020DA0020E04020E0461
:100D3000020E04020E04020E04020E04020E04024D
:100D40000E04020E04020E04020E04020E04020E31
:100D500004020E04020E04020E04020DB3020DC6BC
:100D6000020DD9020DEC7E34FED57E24007E7A1B66
:100D7000007C317E34FED6020DFD7E34FED77E240B
:100D8000007E7A1B007C317E34FED880707E34FE7B
:100D9000D97E24007E7A1B007C317E34FEDA805DB1
:100DA0007E34FEDB7E24007E7A1B007C317E34FEA6
:100DB000DC804A7E34FEF57E24007E7A1B007C3186
:100DC0007E34FEF680377E34FEF77E24007E7A1B6A
:100DD000007C317E34FEF880247E34FEF97E2400CF
:100DE0007E7A1B007C317E34FEFA80117E34FEFB5D
:100DF0007E24007E7A1B007C317E34FEFC7E240043
:100E00007E7A1B3022CA3B7C7B24EFBEB0184003A5
:100E1000020EDE7EA003A4900E1B73020E63020E70
:100E200070020E7D020E8A020EDE020EDE020EDE61
:100E3000020EDE020EDE020EDE020EDE020EDE020A
:100E40000EDE020EDE020EDE020EDE020EDE020EEE
:100E5000DE020EDE020EDE020E9A020EAA020EBAAA
:100E6000020ECA745512221B7CEB6CFF745680254F
:100E7000745712221B7CEB6CFF7458801874591243
:100E8000221B7CEB6CFF745A800B745B12221B7C60
:100E9000EB6CFF745C12221B803E747512224C7C3A
:100EA000EB6CFF747612224C802E747712224C7CED
:100EB000EB6CFF747812224C801E747912224C7CE9
:100EC000EB6CFF747A12224C800E747B12224C7CE5
:100ED000EB6CFF747C12224C0A6B4D6780026D66CE
:100EE0007D36DA3B2274017E34FE0B7E24007E7A4E
:100EF0001BB07E34FE907A1BB07E34FE947A1BB019
:100F00007E34FE917A1BB07E34FE927A1BB07E3422
:100F1000FE937A1BB07E34FE047E1BB044807A1BA5
:100F2000B07E34FE047E24007E7E1BB030E0F27E74
:100F300034FE077E24007E7E1BB044807A1BB07E88
:100F400034FE077E24007E7E1BB030E0F2740A7E01
:100F500034FE017E24007E7A1BB07E34FDEC7E1BC5
:100F6000B0F59F7E34FDF77E1BB0F5A6E59D54FCE1
:100F70004402F59D7E34FE007E1BB054FC7A1BB00B
:100F80007E1BB044807A1BB0E5DC549F4420F5DC26
:100F900043DC807E3400011227797E34FE007E24FB
:100FA000007E7E1BB054F344047A1BB074047E149C
:100FB000FE017E04007E7A0BB07E1BB054BF7A1B0C
:100FC000B022900000E05480BEB080680302107030
:100FD000900003E01BB168221468370BB16803026C
:100FE00010707E3417607E2400FF9000D6793E009A
:100FF000021BEA207E340012806C7E3417727E243D
:1010000000FF9000D6793E00021BEA207E340043A8
:101010008054900002E014681F1468340BB17850BB
:101020007E34175C7E2400FF9000D6793E00021BC0
:10103000EA207E340004802E7E3417B97E2400FF1F
:101040009000D6793E00021BEA207E34000880160C
:101050007E34173E7E2400FF9000D6793E00021BAE
:10106000EA207E34001E9000D41BEA308005800008
:101070000228279000060BEA309000D40BEA20BD2E
:101080002328069000D41BEA300227F8CA7BCA6BDB
:10109000CA5BCA4BCA2BCA1BCA0BC0D0C083C08252
:1010A00090015E0BEA300B341BEA3090015C0BEAD6
:1010B000300B341BEA3090015E0BEA30BE3403E89B
:1010C000404F6D3390015E1BEA30B2C27425120EA0
:1010D000052E340064BE3403E728026D33742512F4
:1010E00011539001600BEA3090012E1BEA30900101
:1010F000620BEA3090012C1BEA309001640BEA305D
:1011000090012A1BEA307E1428B47E0400FF121FCF
:101110006F90015C0BEA30BE340001402174011273
:10112000234D9001601BEA30740212234D9001623E
:101130001BEA30740312234D9001641BEA30D08205
:10114000D083D0D0DA0BDA1BDA2BDA4BDA5BDA6B2E
:10115000DA7B32CA797D7324EFBEB01840030212E5
:10116000117EA003A4901169730211B10211BC0297
:1011700011C70211D202121102121102121102122F
:101180001102121102121102121102121102121195
:101190000212110212110212110212110212110294
:1011A00012110212110211E20211ED0211F80212E3
:1011B0000374550A3E1223747456801F74570A3EF6
:1011C0001223747458801474590A3E122374745A8A
:1011D0008009745B0A3E122374745C7C7F12237452
:1011E000802F74750A3E1223997476801F74770AD3
:1011F0003E1223997478801474790A3E12239974EC
:101200007A8009747B0A3E122399747C7C7F1223B6
:1012100099DA7922CA3B90016E1BEA307F30900048
:1012200092E0B4040280030212CC6D339001711B72
:10123000EA307E3413889001731BEA30A9C7AF747B
:101240000E7E7001122026741112210F30E019A9B0
:10125000D7AF7E34000A12248A9001730BEA301B48
:10126000341BEA30686680D490016E0BEA30BE34DD
:1012700000400804744080027CB7900170F0A9C758
:10128000AFC202740E7E70011220269001710BEA2B
:10129000307F032D13900170E07E70011227D2D2AF
:1012A00002A9D7AF900170E00A2B9001710BEA30D0
:1012B0002D321BEA3090016E0BEA309D321BEA3072
:1012C000900170E0BEB0404003021232DA3B22537C
:1012D000B2FC43B10374807E34FE077E24007E7A24
:1012E0001BB07E34FE077E24007E7E1BB030E0F211
:1012F00053DCF075F490E46C7712202674017E7054
:101300000812202674077E703F12202674097E7012
:101310003F122026740B7E700712202674016C7712
:101320001220267402900092F0E49000D3F0900016
:10133000DAF09000DBF0C2027E3401007E2400C2AD
:10134000900175793E00021BEA20900179F090012E
:101350007AF0740890017BF0A9D7AF7401900194E2
:10136000F0900194E070119F1190018E793E00027F
:101370001BEA209F000200EE22CA3B9001811BEA7B
:10138000307F306D339001840214107438900183E3
:10139000F09001810BEA50BE540038500490018354
:1013A000F01226E6900183E00A5B2E5400039000C1
:1013B00010F074CF900011F09001840BEA107E348D
:1013C00000127E2400011B1A10900183E00A3BCA20
:1013D000397F137E1400147E0400011223BE1BFD0E
:1013E000900183E00A3B2E3400080A3712285090FF
:1013F0000183E00A3B2D73900183E00A2B90018466
:101400000BEA302D321BEA309001810BEA309D321D
:101410001BEA309001810BEA304D33680302138BD5
:10142000DA3B22CA3B90017C1BEA307F306D33905F
:10143000017F0214BA743890017EF090017C0BEAAF
:1014400050BE540038500490017EF01226FF9001E7
:101450007EE00A5B2E540003900010F074AF900001
:1014600011F090017F0BEA107E3400127E240001FF
:101470001B1A1090017EE00A3BCA397F137E1400CC
:10148000147E0400011223BE1BFD90017EE00A3B86
:101490002E3400080A3712285090017EE00A3B2DB6
:1014A0007390017EE00A2B90017F0BEA302D321BF6
:1014B000EA3090017C0BEA309D321BEA3090017CCF
:1014C0000BEA304D336803021435DA3B2290009268
:1014D000E0BEB0026822900000E0701C900003E0C3
:1014E0007016900005E07010900004E0700A900003
:1014F000060BEA304D336803022827900002E0B45F
:10150000015F7404900092F0E49000DAF09000DB48
:10151000F0740E7E700112202674127E702012204C
:101520002674107E7008122026740E7E700212201F
:101530002674127E702012202674107E70081220ED
:1015400026740E7E700112202674126C77122026EB
:1015500074137E7008122026740E6C771220268079
:10156000107403900092F074FF9000DAF09000DBAA
:10157000F0022843900092E0B40429900000E0B407
:101580000222900005E06003021612900003E06062
:1015900003021612900002E070789000060BEA3009
:1015A0004D336802806C9000047EEB607C765E7048
:1015B0000F1B60682E2E607F68040B6078547E24B9
:1015C00000017CB760053E241478FB7C656E60FFEB
:1015D0009000DAE05CB6F0740E12202674117E7072
:1015E0004080237E2400017CB760053E241478FBF4
:1015F0007C656E60FF9000DBE05CB6F0740E12203C
:101600002674147E7080122026740E6C77122026A9
:101610008003022827022843900092E0B40423901C
:101620000000E0B4021C900005E0707A900003E036
:101630007074900002E0706E9000060BEA304D333B
:10164000680280629000047EEB607C765E700F1B07
:101650006068292E607F68040B60784A7E24000150
:101660007CB760053E241478FB9000DAE04CB5F0BE
:10167000740E12202674117E7010801E7E240001CC
:101680007CB760053E241478FB9000DBE04CB5F09D
:10169000740E12202674147E7020122026740E6C94
:1016A000771220268003022827022843CAF8740EE6
:1016B0006C77122026741112210F7CFB30E20F741C
:1016C000117C7F5E70FB122026E49000D3F07CBF7B
:1016D00030E40A74117C7F4E70801220269000D373
:1016E000E024FD684E1468500BB2784F7CBF30E0A8
:1016F0004A7E1400007E040001742012209C900099
:10170000060BEA301220D69000061BEA309000004B
:10171000E0546024E0680D24E0680E2440780F1245
:10172000198680171226B2801212287D800D122889
:101730002780081218418003120003DAF8221E03E2
:101740005300540043002000550053004200200085
:10175000530065007200690061006C000403090415
:101760001201000202000040BF3402FF000101022A
:101770000001090243000201008032090400000157
:1017800002020100052400100105240100010424C7
:1017900002020524060001070582034000FF090438
:1017A0000100020A00000007058102400000070551
:1017B00001024000000000010008035300540043F0
:1017C00000CA7BCA6BCA5BCA4BCA3BCA2BCA1BCABC
:1017D0000BC0D0C083C0827EF1FC740612210F7C46
:1017E000EB740212210F7CCB740412210F7CDB7C82
:1017F000BE30E1031228807CBE30E203121BFE7C67
:10180000BC30E0031216AC7CBC30E103121F307C0C
:10181000BC30E20312227D7CBD30E103120C0E7C51
:10182000BE30E0031200627AF1FCD082D083D0D0C7
:10183000DA0BDA1BDA2BDA3BDA4BDA5BDA6BDA7BC0
:1018400032CAF8740E6C77122026741112210F2000
:10185000E1679000D40BEA30BE34004028057EF0EA
:101860004080027CF79000D6691E00020BEA007CE3
:101870007F74201222FB0A2F9000D40BEA309D3295
:101880001BEA300A159000D6693E00020BEA202DB3
:1018900031793E00021BEA209000D40BEA304D3330
:1018A000780F74117E700A122026E49000D3F08025
:1018B0000874117E7002122026DAF8229001661B4D
:1018C000EA20793E00027E3401697E2400017E1BFD
:1018D000307E34016A7E2400017A1B307E34016838
:1018E0007E2400017E1B307E34016B7E2400017A51
:1018F0001B307E3401677E2400017E1B307E340164
:101900006C7E2400017A1B307E3401667E24000147
:101910007E1B307E34016D7E2400017A1B309001E5
:101920006A693E00020BEA2022CA799001041BEA90
:1019300000791E00021227187453900010F0E490F2
:101940000011F0900012F0900013F07E3401047E3C
:1019500024000190018E793E00021BEA207E1400D3
:10196000147E040001900104693E00020BEA20127B
:1019700000EE7D732E7400087D370B340A37122871
:10198000507D37DA7922900001E0BEB00D50507ED4
:10199000A003A4901997730219BE0219C10219DF9E
:1019A0000219C40219DF0219C70219CA0219CD02AD
:1019B00019D00219D30219D60219D90219DC020969
:1019C000F2021574021618021A84020FC202287756
:1019D0000200660214CD021C480222A802287A02E4
:1019E0002827A9D7BA75E90075EA007593007594A0
:1019F0000075910075920075950075960075B1009F
:101A000075B20075B30075B40075C90075CA00756C
:101A1000CB0075CC0075E10075E200120EE51228CE
:101A200066D2AFC2C2121CD7121BB312246C12248E
:101A30004C80FECA3B7F707CF57CE67CD77CCBCAB1
:101A40007B0A366D222F110A1F6D00122761DA0BF7
:101A50001214231226FF7405900010F074A8900051
:101A600011F09000127AEBC09000137AEBD0900046
:101A7000147AEBE09000157AEBF07E34000A12281D
:101A800050DA3B22CAF8900000E07027900005E091
:101A90007021900004E0701B900003E0701590002E
:101AA000027EEBF0BEF080500A9000060BEA304D4B
:101AB0003368051228278017E47C7F1220264CFF0C
:101AC0006804740380027402900092F0122843DAD2
:101AD000F822CAF87CFBBEF03B28037EF03B744C36
:101AE00090000CF0744590000DF0744490000EF0DE
:101AF000742890000FF09000107AEBF00A3FCA397A
:101B00007F107E1400117E0400011223BE1BFD0A0B
:101B10003F2E3400050A37122850DAF822CAF87C22
:101B2000FBBEF03B28037EF03B744C90000CF0743D
:101B30004590000DF0744490000EF0744090000F3A
:101B4000F09000107AEBF00A3FCA397F107E140043
:101B5000117E0400011223BE1BFD0A3F2E34000536
:101B60000A37122850DAF822CAF87CFB90018A1B47
:101B7000EA20793E0002122718744C900010F0748D
:101B800001900011F09000127AEBF0E4900013F055
:101B900090018A691E00020BEA007E3400147E2444
:101BA0000001791100021B1A007E34000C1228502B
:101BB000DAF82253DEF043DE207E34FEAD7E2400D0
:101BC0007E7E1BB054F844047A1BB07E14FEA87EBF
:101BD00004007E7E0BB0547F44807A0BB07E0BB045
:101BE000549F7A0BB07E0BB054E0440A7A0BB07E5F
:101BF0001BB054DF7A1BB053BCF043BC8022E46CB2
:101C0000771220267402900092F0E49000D3F0C284
:101C100002740E7E700112202674117E704812200C
:101C200026740E7E700212202674117E70481220D7
:101C300026740E7E700112202674147E709012207D
:101C400026740E6C77022026900092E0B4041F9058
:101C50000000E0B48118900003E07012900005E0ED
:101C6000700C9000060BEA30BE34000168030228B5
:101C7000277E3417B57E2400FF9000D6793E0002FF
:101C80001BEA207E3400019000D41BEA300227F8C2
:101C90007584017E44041FE47A49B01B4478F97EC0
:101CA000F800207E0400FF7E1428850B0A405D4466
:101CB0006822295000020A25693000032E08000519
:101CC0000B44800A7E0BB07A1BB00B1C0B0C1B4420
:101CD00078F280D702280975C8FF53CA0F53C90F7D
:101CE00043CA0F53C9F0E47E34FE4D7E24007E7A51
:101CF0001BB07E34FE157A1BB07E34FE457A1BB0D5
:101D00007E34FE1D7A1BB07E34FE257A1BB07E34F5
:101D1000FE2D7A1BB07E34FE357A1BB0227CA77C68
:101D20007B744C90000CF0744590000DF07444905E
:101D3000000EF0742890000FF07402900010F07CF8
:101D4000B754077E44000160053E441478FB7CB91B
:101D5000900011F09000127AEBA07E340007022868
:101D6000507CA77C7B744C90000CF0744590000D67
:101D7000F0744490000EF0744090000FF0740290E4
:101D80000010F07CB754077E44000160053E441407
:101D900078FB7CB9900011F09000127AEBA07E34B1
:101DA00000070228507C6B744C90000CF074459036
:101DB000000DF0744490000EF0742890000FF07441
:101DC00002900010F0E4900011F07CB65407C403B8
:101DD00054F87C6B4E60807CB754074CB690001270
:101DE000F07E3400070228507C6B744C90000CF09D
:101DF000744590000DF0744490000EF07440900013
:101E00000FF07402900010F0E4900011F07CB654D2
:101E100007C40354F87C6B4E60807CB754074CB603
:101E2000900012F07E340007022850CA3B7CF57CFB
:101E3000E67CD77CCB7C7EAC7F1213791226E674CD
:101E400005900010F074C8900011F09000127AEB29
:101E5000C09000137AEBD09000147AEBE09000155C
:101E60007AEBF07E34000A122850DA3B22CA3B7F1C
:101E7000309001937AEB70900192F01228350B3478
:101E80007F031214231226FF7403900010F074A72E
:101E9000900011F0900192E0900012F0900193E018
:101EA000900013F07E340008122850DA3B227C6B3D
:101EB000744C90000CF0744590000DF07444900048
:101EC0000EF0742890000FF07402900010F0E4906F
:101ED0000011F05E60077CB6C40354F87C6B7CB7DD
:101EE00054074CB6900012F07E3400070228507C54
:101EF0006B744C90000CF0744590000DF07444909D
:101F0000000EF0744090000FF07402900010F0E4A6
:101F1000900011F05E60077CB6C40354F87C6B7CC3
:101F2000B754074CB6900012F07E340007022850D8
:101F3000CAF8740E7E7001122026741112210F7CD3
:101F4000FB30E50874117E70401220267CBF30E221
:101F50000774116C771220269000900BEA304D33F5
:101F600068089000900BEA309934C202DAF822CA6D
:101F7000799001301BEA00791E00027E3401307E28
:101F800024000190018E793E00021BEA207E14009D
:101F90000C7E040001900130693E00020BEA201221
:101FA00000EE7D730A371228507D37DA7922CA3B5A
:101FB0007D727CCB1226E67406900010F074C690F9
:101FC0000011F07401900012F09000137AEBC090B1
:101FD00000147AEB707E3400157E2400011B1A7009
:101FE0007E34000B122850DA3B22CA3B7D727CCB38
:101FF0001226E67406900010F074C6900011F0747A
:1020000002900012F09000137AEBC09000147AEB6B
:10201000707E3400157E2400011B1A707E34000B84
:10202000122850DA3B227CA77C7BE5FC20E7FB7C76
:10203000B7547FF5FC000000000000000000000025
:102040000000000000000000000000000000000090
:10205000000000000000000000000000007AA1EC79
:1020600022CA3B7D727CCB1226E67406900010F0EB
:1020700074C6900011F0E4900012F09000137AEB17
:10208000C09000147AEB707E3400157E2400011B92
:102090001A707E34000B122850DA3B22CA3B7F3084
:1020A000CAB80BFD741612210F7AFBB039BFFFFFBF
:1020B000800C29BFFFFE12210F7A3BB00B747EFB10
:1020C000A07CBA147AFBB04CAA78E729BFFFFF9E28
:1020D000F80003DA3B229001861BEA307E34018748
:1020E0007E2400017E1B307E3401887E2400017A2C
:1020F0001B307E3401867E2400017E1B307E34013D
:10210000897E2400017A1B309001880BEA30227C02
:10211000ABE5FC20E7FB7CBA4480F5FC0000000046
:1021200000000000000000000000000000000000AF
:10213000000000000000000000000000000000009F
:1021400000000000E5EC22CA3B12271874439000FF
:1021500010F0E4900011F0900012F0900013F07E67
:10216000340008CA397F107E1400147E0400011266
:1021700023BE1BFD7E340010122850DA3B22CA3BDE
:102180007F311227187444900010F07401900011F0
:10219000F0E4900012F0900013F07E3400147E24DE
:1021A0000001797100021B1A607E34000C12285065
:1021B000DA3B22900092E0B40409900000E0BEB047
:1021C000A168030228277E3401757E240001900057
:1021D000D6793E00021BEA209000060BEA30900000
:1021E000D41BEA300227F8900092E0B40409900072
:1021F00000E0BEB02168030228277E3401757E24EA
:1022000000019000D6793E00021BEA209000060BE8
:10221000EA309000D41BEA300228197CAB7E34FBF4
:10222000F17E24007E7E1BB020E7F27CBA44807AE7
:102230001BB07E34FBF17E24007E7E1BB020E7F2D3
:102240007E34FBF27E24007E7E1BB0227CAB7E348B
:10225000FBF57E24007E7E1BB020E7F27CBA448032
:102260007A1BB07E34FBF57E24007E7E1BB020E717
:10227000F27E34FBF67E24007E7E1BB022CAF87408
:102280000E7E7002122026741112210F7CFB30E5A5
:102290000874117E70401220267CBF30E207741152
:1022A0006C77122026DAF822900092E0B4041D9098
:1022B0000000E0B40116900003E07010900005E00B
:1022C000700A9000060BEA304D336803022827029B
:1022D00028437D23000000000000000000000000F3
:1022E00000000000000000000000000000000000EE
:1022F00000007D321B347D2378DA22CA3BCA787F06
:1023000030CAB8800B7EFBB07E3B700B7412202667
:1023100029AFFFFF7CBA1439BFFFFF4CAA78E61B38
:10232000FDDA3B22CAF87CFB1226FF7403900010F2
:10233000F074A3900011F07402900012F09000135A
:102340007AEBF07E340008122850DAF8227C7B7C8D
:10235000AB5EA00FE5BC54F04CBAF5BC43BC40E505
:10236000BC30E5FB53BCDFE5BD7C4B6C55E5BE0ADC
:102370003B4D32227CA77C3B7E34FBF17E24007EE9
:102380007E1BB020E7F27EF4FBF27EE4007E7A7BD7
:10239000A07CB3547F7A1BB0227CA77C3B7E34FBAD
:1023A000F57E24007E7E1BB020E7F27EF4FBF67EF5
:1023B000E4007E7A7BA07CB3547F7A1BB0227F211D
:1023C0007F707F10800A7E2B307A1B300B540B34C9
:1023D000691FFFFD7D011B04790FFFFD4D1178E69C
:1023E0007F1722CAF87CFB1226E67402900010F0D8
:1023F00074C5900011F09000127AEBF07E34000763
:10240000122850DAF822CAF87CFB1226E6740290F1
:102410000010F074C4900011F09000127AEBF07E7E
:10242000340007122850DAF822CAF87CFB1226FF83
:102430007402900010F074A5900011F09000127AD0
:10244000EBF07E340007122850DAF822538EF7435F
:102450008E0443AF0474017E34FEA27E24007E7A93
:102460001BB075D6B975D7B0438E102212082E74E2
:10247000257E34032012115374267E34032012115A
:102480005374277E34032002115380120000000091
:1024900000000000000000000000000000007D239C
:1024A0001B344D2278E6221226E67402900010F0CA
:1024B00074C7900011F07401900012F07E34000790
:1024C0000228501226E67402900010F074C09000AA
:1024D00011F07401900012F07E34000702285012AF
:1024E00026FF7402900010F074A3900011F07401A4
:1024F000900012F07E3400070228501226FF74026A
:10250000900010F074A4900011F07401900012F08B
:102510007E3400070228501226E67402900010F064
:1025200074C2900011F07401900012F07E34000724
:102530000228501226FF7402900010F074A290003E
:1025400011F07402900012F07E340007022850123D
:1025500026E67402900010F074C1900011F074012E
:10256000900012F07E3400070228501226FF7402F9
:10257000900010F074A0900011F07401900012F01F
:102580007E3400070228501226FF7402900010F0DB
:1025900074A2900011F07401900012F07E340007D4
:1025A0000228501226FF7402900010F074A19000CF
:1025B00011F07401900012F07E34000702285012CE
:1025C00026E67402900010F074C0900011F0E490C0
:1025D0000012F07E3400070228501226FF74029089
:1025E0000010F074A4900011F0E4900012F07E341A
:1025F00000070228501226E67402900010F074C7FB
:10260000900011F0E4900012F07E34000702285090
:102610001226FF7402900010F074A0900011F0E4F4
:10262000900012F07E3400070228501226FF740238
:10263000900010F074A3900011F0E4900012F07E6E
:102640003400070228501226E67402900010F0743D
:10265000C2900011F0E4900012F07E3400070228CE
:10266000501226E67402900010F074C1900011F030
:10267000E4900012F07E3400070228501226FF7406
:1026800002900010F074A1900011F0E4900012F09C
:102690007E3400070228501226FF7402900010F0CA
:1026A00074A2900011F0E4900012F07E3400070252
:1026B0002850900001E024DF680A14680A0BB17802
:1026C000090221E70221B30227BC022827CAF80A1F
:1026D0005B2E54002012209C7CFB74146C7712201B
:1026E000267CBFDAF822744F90000CF0744C9000F6
:1026F0000DF0744590000EF0748090000FF022747D
:102700004C90000CF0744390000DF0744490000E57
:10271000F0748090000FF022743790000CF0745326
:1027200090000DF0744590000EF0744790000FF08B
:1027300022A9C7AF740E7E700112202674146C7724
:10274000122026C200A9D7AF22CA797D7380077EE6
:102750003403E812248A7D371B744D3378F1DA791B
:102760002275ED02226D0075ED022275ED04226DD9
:102770000075ED042275ED06227D237E3417707DF1
:10278000131B147D3178F87D121B147D2178EC2207
:102790001226FF7401900010F074A6900011F07ED4
:1027A0003400060228501226E67401900010F074DE
:1027B000C3900011F07E340006022850900092E091
:1027C000B40409900000E0BEB0216803022827028B
:1027D00028437CA77C7B0A5A2E5400201222FB74CB
:1027E000117E70010220267E14004C7E04000190B0
:1027F0000008E00A3B02121474039000D3F0741135
:102800007E70401220260218411219E29F007E3489
:1028100028B27E2400FF0200CE74049000D3F0742E
:10282000117E704002202674059000D3F074117E52
:1028300070600220266D3380020B347E0BB00B14C7
:1028400070F722E49000D3F074117E7048022026C5
:102850007E14000C7E04000102121490008C791E7C
:1028600000021BEA00221212CF7E3427E7022870F2
:1028700090000A1BEA302202282702282702282774
:102880002228302900000201015C00000002010141
:102890005E0000000101000900000201000A0000C2
:1028A000000401008C00FF28CE000201009000000F
:1028B00000003000414443313D25752041444332FE
:1028C0003D257520414443333D25750D0A00405395
:0728D000544349535023005B
:00000001FF
