:10000000021B889000901BEA30223202000ACA3B91
:100010007F707CF57CE67CD77CCBCA7B0A366D2270
:100020002F110A1F6D00122684DA0B12135C1226A0
:10003000227405900010F074A8900011F090001246
:100040007AEBC09000137AEBD09000147AEBE0903A
:1000500000157AEBF07E34000A122773DA3B220295
:10006000274A22022175740E6C77121F1E7411121A
:10007000200730E04F9000D6691E00020BEA0074A2
:1000800020121F940A1B9000D40BEA209D211BEA2A
:10009000209000D6693E00020BEA202D31793E0007
:1000A000021BEA209000D40BEA304D33780E741115
:1000B0007E7048121F1EE49000D3F02274117E70EF
:1000C00040021F1E2202274A02274A0216FA7F70A8
:1000D0007F517EC400017ED4015C7E9400E1020168
:1000E0003D4005E47A7BB0227A7BB00B7C227F70A6
:1000F0007F519001880BEAC069DE00027E94010303
:1001000002013D4005E47A7BB0227A7BB00B7C2271
:10011000540F2490D43440D430F30CBEB041400787
:10012000BEB05B500224204CCC68021BC00B84D3B1
:1001300089944CCC680B742012012780F5CA3B6D62
:10014000889F337CAE7E5BB00B5C7007C37D38DA72
:100150003B8994B42569C2F37E5BB00B5CA5F8249F
:10016000D0BEB00A501B7E500A20F60DAC5CA52D07
:100170007CCB70034EF00180DDAC5DA52D7CDB8077
:10018000D524CFBEB01AA5E850055E00DFD2F390AB
:100190000512A3E4936011BCB078F77417934CABCD
:1001A00030F6B34EF08080AEA3E4936010BCB0781C
:1001B000F77416937C3B7423937C2B89147CB0805A
:1001C00013742012012720F205BEC00250F31B6DEC
:1001D00029B600011201270201321B6E69160002C6
:1001E0000B6A00BE08000078087E0400FF7E14271A
:1001F0009B20F21E4CCC681A7F10E47E1B804C883A
:1002000068070B1C04BCBD78F2C2F6CA0B120311BE
:10021000DA0B7E0BB060C0CA0B120127DA0B0B0C95
:100220004CDD68EE1BD078EA80ADD2F07E101080F5
:10023000037E10085EB05F800AD2F67E100A800549
:100240007E100AC2F66D119F117E00201B6C7E6B22
:100250007030F6021A3720F1051B6C7E6B6030F6A9
:10026000041A261A2430F0051B6D0B6A20A5EC3306
:1002700082F692F6500A7CEA9F229F217F127CAE82
:100280004C44780F7C457C567C676C772E00F87860
:10029000EF80122F117CB3337C3B9CB140047C3B3C
:1002A0000B70A5D8EE7CB230E005DAB8C44C3BCA7E
:1002B000380B207E00207E3000BE18000078C1BEC2
:1002C0001008780730F404C2F480B5CA287CB2BCA8
:1002D000BD38027CBD120311DA28BC2D500A1BD098
:1002E000E4CA2812011080F07CB213DAB84004C4CA
:1002F000CAB8C4CA28BEF08040095CDD7805A5DA1A
:100300000260065EF07F120110DA28A5DADA020137
:1003100032BEF001680F30F402240220F50620F707
:100320000330F6010420F229BCBC5025CAB87CBFBA
:1003300013B0E67420501174307C8A5E80F0680837
:100340001203515EA00F8003120127DAB8BCBC78FB
:10035000DB30F40F7430120127745830F3027478D4
:1003600012012730F605742D020127742B20F5F8B1
:10037000742020F7F3221B6C7E6BB010F1021B6C13
:1003800020F60B30E704F404D2F27CCB800520E7A2
:10039000057CDB0201565EF07F80F81B6E6916005B
:1003A000020B6A0030F0076D221B0A200B0D1B0A9E
:1003B00080020141E46C22BE3007500B7F1F2D31BB
:1003C0002E34FFF77E39B0227CBF20E7A8742E4E72
:1003D000F0800201271204FB403D7CBD7003047CC9
:1003E000DB1206127C3D4C3368101B307CBE20E4CF
:1003F000091203B470044C3378F07CBD7CD3BEA0EA
:10040000FD481CBCAB5818E49CBA2CB31801E47C22
:10041000DB02049C1204FB406E7CBD041206127ABF
:10042000FBA07CAE7CBDA2F492F0C2F4400260015D
:100430000424051203117E30FF0B301203B4CA38B6
:1004400012011020F0044CDD68031203C8DA38BC36
:100450003D78E6740E120110742B7EFBA030F70776
:10046000742D6EA0FF0BA07AFBA01201277EA00ABC
:100470007EFBB0847AFBA01201107EFBB01201104B
:100480009EF80008020132D2F27ED0000201F11281
:1004900004FB40F37CBA2CBD041206127AFBA07C4C
:1004A000BA7CAE30E701E40420F4044CDD6805D2E8
:1004B000F0C2F4042CBD1203116C337EFBB0601B40
:1004C00020E712147AFBB01203B4CA38120110DA12
:1004D000380B3080E6047AFBB01B301203B4CA3804
:1004E0001201104CDD68071203C81BD080E19EF892
:1004F000000930F0031203C80201327CEA7CAF101D
:10050000F7037ED0067CFA1B6E693600020B6A2068
:1005100002055A2D2B204C4248232E0053584F449D
:10052000494355502A4E46454700042080010200A9
:100530001040DA2C313939C6402A769B8F14D50108
:100540000202020201020203030404034E614E0090
:100550002B494E46002D494E46007D522D557CBEFE
:1005600092E67CEB7CBA601F0470287CB5C2E77E03
:100570000400FF60067E14054CD3227E140555400E
:10058000047E140550D322DA099F22CA2BCA2BC33A
:10059000CA09220A0A7E144D10AD109E083AF09E38
:1005A00010267CB5C2E77EA0567C9BA46E54FFFF4C
:1005B0002E54C511ACA92D15E4A539CAB8CA1B2003
:1005C000E70A1207A6DA1B1206F5800AF4041207DE
:1005D000A6DA1B120655DAA87CB5337CB4334E502C
:1005E000806C4424822F111478FBDA497407BE40D2
:1005F0000A40099E400ACA0201140BA0CA486C4472
:100600002F117F012F112F112F101478EFCA48CA14
:1006100049227F0F20E73ABEB007400274070A0B59
:100620002D109E1400097E19B02EB0FB501F4C11E6
:100630006817E47A19B01B147E19B0047A19B0B4A3
:100640000A0BE47A19B0A5D9ED0BA074017A19B0A0
:10065000225EE0BF225D22680D5D0078122D220B24
:100660004068099F11222D000B0078F902081A1228
:1006700007DD5C800B806808248150072CB0500A8D
:100680000208222CB0400302081F7C8B5D117826E3
:100690007CB17CA5BE1080680A5D33780DA5BD8055
:1006A000057F1002080C6D0080307F017C5B7CB1FF
:1006B0007CA5AD1280245D337806A5BD80F080E175
:1006C000CA887D41AD437CB17CA5AD122D1450028A
:1006D0000B047C5BAD232F01DA88A42D05BE0080BE
:1006E00040060B80780480982F007C437C507C610E
:1006F0007C720207F6BE24FFFF6806BE04FFFF7887
:100700000302081A1207DD5CB00468F57CB8A5483E
:1007100068EF7CB870039F1122A5B800030208227D
:100720002E008150079C80380702081F9C8050EDE6
:100730000A51C2E74D51780302080C7E5400807EB6
:10074000901A6C0080061B9068142F11BF10400493
:100750009F104CAB0330E7EECAA86CAA80E8DA39E8
:10076000DA587C4ABE5080500A1B8068BC2F11505A
:10077000020B700207F63F8000004120000042C8D3
:100780000000447A0000461C400047C350004974F2
:1007900024004B1896804CBEBC205A0E1BCA6753CF
:1007A000C21C749DC5AE7C7B60065407681623236B
:1007B0001207CB7CB75438680A7F101207C812069C
:1007C000557F01227CB7543803241C6CAA2E540791
:1007D000767E4400FF0B2A0069120002222D00924F
:1007E000D50E104E10807D422D445002B2D54E5091
:1007F000806C447CB8222C4450120B1C7E40005E5E
:10080000507FBE18000078040B806816A2D57CB813
:10081000137C4B7CB592E77C5B227E1CFFFF229F02
:1008200011227E24FF8020D5026C456D33227E3458
:10083000FEB67E24007E7E1BB054FC44037A1BB0BF
:100840007E1BB054F3440C7A1BB07E1BB054CF44D3
:10085000307A1BB07E34FBF47E1BB054FC7A1BB0A4
:100860007E34FEE27E1BB054F87A1BB0E47E34FE88
:10087000F07A1BB07E34FEF17A1BB074037E34FE36
:10088000F27A1BB074E77E34FEF37A1BB07E34FE3E
:10089000E07E1BB044807A1BB0E47E34FEEE7A1B0F
:1008A000B07E34FEEF7A1BB07E34FEEC7E1BB0547B
:1008B000FE7A1BB07E14FEE87E04007E7E0BB054F0
:1008C000FC7A0BB07E1BB044017A1BB074257E34D9
:1008D00001F4120D0A7E34FEE87E24007E7E1BB0F9
:1008E000548F44607A1BB07E1BB044087A1BB07EE4
:1008F00034FEEC7E1BB054FD7A1BB07E14FEB57E38
:1009000004007E7E0BB044017A0BB07E1BB054EF26
:100910007A1BB07E14FEE97E0BB054FC7A0BB07EDD
:100920001BB044107A1BB074267E3401F4120D0AF9
:100930007E34FEE97E24007E7E1BB0548F44607AB4
:100940001BB07E1BB044087A1BB07E34FEEC7E1BCD
:10095000B054DF7A1BB07E34FEB57E1BB044047AFF
:100960001BB07E34FEED7E1BB054FE7A1BB07E14AD
:10097000FEEA7E04007E7E0BB054FC7A0BB07E1B38
:10098000B044017A1BB074277E3401F4120D0A7E44
:1009900034FEEA7E24007E7E1BB0548F44607A1BB6
:1009A000B07E1BB044087A1BB07E34FEED7E1BB0D7
:1009B00054FD7A1BB07E34FEB57E1BB044107A1B0A
:1009C000B07E34FEFD7E1BB044807A1BB07E34FBCB
:1009D000F47E1BB054FC44037A1BB07E1BB054FB66
:1009E0007A1BB074601221447C7B4E7001746002EB
:1009F0002298CAF89000007EEBF07CBF5480B4804F
:100A000018900003E07032900002E0702C90000615
:100A10000BEA30BE3400026803020AF67CBF540FB2
:100A200014681B14683C0BB16803020AF6900005B9
:100A3000E07006900004E0601E020AF68019900043
:100A400092E0B4040F900005E06003020AF6900003
:100A500004E06003020AF67E3416EE7E2400FF02F4
:100A60000ADE900092E0B40406900005E060030204
:100A70000AF69000047EEB707CA75EA00F1B7068E6
:100A8000342E707F68040B70786C7E2400017CBA71
:100A900060053E241478FB9000DAE00A3B5D326882
:100AA0000A7E3416F07E2400FF80337E3416EE7EFC
:100AB0002400FF80297E2400017CBA60053E2414B6
:100AC00078FB9000DBE00A3B5D32680A7E3416F06A
:100AD0007E2400FF80087E3416EE7E2400FF900006
:100AE000D6793E00021BEA207E3400029000D41B1F
:100AF000EA308007800012274A800312271BDAF8A9
:100B0000227C7B24EFBEB0184003020C097EA003B8
:100B1000A4900B1573020B5D020B72020B86020B85
:100B20009A020C09020C09020C09020C09020C09B8
:100B3000020C09020C09020C09020C09020C090240
:100B40000C09020C09020C09020C09020C09020C26
:100B500009020BAE020BC2020BD6020BEA7E34FE78
:100B6000D57E24007E7E1B707CA7E47E34FED602F8
:100B70000BFC7E34FED77E24007E7E1B707CA7E4B7
:100B80007E34FED880767E34FED97E24007E7E1BA5
:100B9000707CA7E47E34FEDA80627E34FEDB7E2445
:100BA000007E7E1B707CA7E47E34FEDC804E7E34AB
:100BB000FEF57E24007E7E1B707CA7E47E34FEF66C
:100BC000803A7E34FEF77E24007E7E1B707CA7E494
:100BD0007E34FEF880267E34FEF97E24007E7E1B65
:100BE000707CA7E47E34FEFA80127E34FEFB7E2405
:100BF000007E7E1B707CA7E47E34FEFC7E24007E9B
:100C00007E1B700A474D4580026D447D3422CA79AF
:100C1000740E7E7001121F1E74141220077CFB30AC
:100C2000E60874147E7080121F1E7CBF20E0030251
:100C30000D077E14004C7E0400017421121F949055
:100C40000008F090008C693E00020BEA204D2378EA
:100C500003020CEA6CFF020CDF900009E01A3B90E3
:100C6000008C691E00020BEA002D317D207E1BA046
:100C70000A4F2E44004C7A91827A81837EEBE0BC4D
:100C8000EA784090000904F0900009E01A3B2D3109
:100C90007D207E1BB0704674146C77121F1EE47E9C
:100CA00034FE007E24007E7A1BB075F40053DCF025
:100CB0007E34FE077A1BB07E34000A12266C75C79C
:100CC0006080FE90008C693E00020BEA207E1B7063
:100CD000BCE7780474018001E4900009F00BF09007
:100CE0000008E0BCFB5003020C59D20090000A0B34
:100CF000EA304D33681190000A0BEA3099347414CD
:100D00006C77121F1EC200DA79227D0324EFBEB079
:100D1000184003020E047EA003A4900D1E73020D62
:100D200066020D7A020D8D020DA0020E04020E0461
:100D3000020E04020E04020E04020E04020E04024D
:100D40000E04020E04020E04020E04020E04020E31
:100D500004020E04020E04020E04020DB3020DC6BC
:100D6000020DD9020DEC7E34FED57E24007E7A1B66
:100D7000007C317E34FED6020DFD7E34FED77E240B
:100D8000007E7A1B007C317E34FED880707E34FE7B
:100D9000D97E24007E7A1B007C317E34FEDA805DB1
:100DA0007E34FEDB7E24007E7A1B007C317E34FEA6
:100DB000DC804A7E34FEF57E24007E7A1B007C3186
:100DC0007E34FEF680377E34FEF77E24007E7A1B6A
:100DD000007C317E34FEF880247E34FEF97E2400CF
:100DE0007E7A1B007C317E34FEFA80117E34FEFB5D
:100DF0007E24007E7A1B007C317E34FEFC7E240043
:100E00007E7A1B3022CA3B7C7B24EFBEB0184003A5
:100E1000020EDE7EA003A4900E1B73020E63020E70
:100E200070020E7D020E8A020EDE020EDE020EDE61
:100E3000020EDE020EDE020EDE020EDE020EDE020A
:100E40000EDE020EDE020EDE020EDE020EDE020EEE
:100E5000DE020EDE020EDE020E9A020EAA020EBAAA
:100E6000020ECA74551221137CEB6CFF7456802558
:100E700074571221137CEB6CFF745880187459124C
:100E800021137CEB6CFF745A800B745B1221137C72
:100E9000EB6CFF745C122113803E74751221447C4C
:100EA000EB6CFF7476122144802E74771221447CFF
:100EB000EB6CFF7478122144801E74791221447CFB
:100EC000EB6CFF747A122144800E747B1221447CF7
:100ED000EB6CFF747C1221440A6B4D6780026D66D7
:100EE0007D36DA3B2274017E34FE0B7E24007E7A4E
:100EF0001BB07E34FE907A1BB07E34FE947A1BB019
:100F00007E34FE917A1BB07E34FE927A1BB07E3422
:100F1000FE937A1BB07E34FE047E1BB044807A1BA5
:100F2000B07E34FE047E24007E7E1BB030E0F27E74
:100F300034FE077E24007E7E1BB044807A1BB07E88
:100F400034FE077E24007E7E1BB030E0F2740A7E01
:100F500034FE017E24007E7A1BB07E34FDEC7E1BC5
:100F6000B0F59F7E34FDF77E1BB0F5A6E59D54FCE1
:100F70004402F59D7E34FE007E1BB054FC7A1BB00B
:100F80007E1BB044807A1BB0E5DC549F4420F5DC26
:100F900043DC807E34000112269C7E34FE007E24D9
:100FA000007E7E1BB054F344047A1BB074047E149C
:100FB000FE017E04007E7A0BB07E1BB054BF7A1B0C
:100FC000B022900000E05480BEB080680302107030
:100FD000900003E01BB168221468370BB16803026C
:100FE00010707E3416997E2400FF9000D6793E0062
:100FF000021BEA207E340012806C7E3416AB7E2405
:1010000000FF9000D6793E00021BEA207E340043A8
:101010008054900002E014681F1468340BB17850BB
:101020007E3416957E2400FF9000D6793E00021B88
:10103000EA207E340004802E7E3416F27E2400FFE7
:101040009000D6793E00021BEA207E34000880160C
:101050007E3416777E2400FF9000D6793E00021B76
:10106000EA207E34001E9000D41BEA308005800008
:1010700002274A9000060BEA309000D40BEA20BD0C
:101080002328069000D41BEA3002271BCA797D73FF
:1010900024EFBEB018400302114A7EA003A49010B2
:1010A000A2730210EA0210F502110002110B0211E4
:1010B0004A02114A02114A02114A02114A02114A15
:1010C00002114A02114A02114A02114A02114A024D
:1010D000114A02114A02114A02114A02114A02112E
:1010E0001B02112602113102113C74550A3E1222D4
:1010F000737456801F74570A3E12227374588014FA
:1011000074590A3E122273745A8009745B0A3E12A3
:101110002273745C7C7F122273802F74750A3E12D6
:1011200022987476801F74770A3E12229874788011
:101130001474790A3E122298747A8009747B0A3EEC
:10114000122298747C7C7F122298DA7922CA3B9012
:1011500001641BEA307F30900092E0B40402800307
:101160000212056D339001671BEA307E34138890BC
:1011700001691BEA30A9C7AF740E7E7001121F1EF1
:10118000741112200730E019A9D7AF7E34000A127B
:1011900023AD9001690BEA301B341BEA306866808E
:1011A000D49001640BEA30BE3400400804744080DF
:1011B000027CB7900166F0A9C7AFC202740E7E70C0
:1011C00001121F1E9001670BEA307F032D1390015F
:1011D00066E07E70011226F5D202A9D7AF900166B3
:1011E000E00A2B9001670BEA302D321BEA309001A8
:1011F000640BEA309D321BEA30900166E0BEB040DD
:10120000400302116BDA3B2253B2FC43B1037480FA
:101210007E34FE077E24007E7A1BB07E34FE077E7D
:1012200024007E7E1BB030E0F253DCF075F490E4D5
:101230006C77121F1E74017E7008121F1E74077EC9
:10124000703F121F1E74097E703F121F1E740B7EAA
:101250007007121F1E74016C77121F1E740290001B
:1012600092F0E49000D3F09000DAF09000DBF0C24E
:10127000027E3401007E2400C290016B793E0002A0
:101280001BEA2090016FF0900170F07408900171DA
:10129000F0A9D7AF740190018EF090018EE070112B
:1012A0009F11900188793E00021BEA209F000200F6
:1012B000EE22CA3B9001771BEA307F306D339001FC
:1012C0007A0213497438900179F09001770BEA5053
:1012D000BE5400385004900179F01226099001792B
:1012E000E00A5B2E540003900010F074CF900011C0
:1012F000F090017A0BEA107E3400127E2400011B6C
:101300001A10900179E00A3BCA397F137E14001449
:101310007E0400011222BD1BFD900179E00A3B2EE4
:101320003400080A37122773900179E00A3B2D73C5
:10133000900179E00A2B90017A0BEA302D321BEAFA
:10134000309001770BEA309D321BEA309001770B29
:10135000EA304D3368030212C4DA3B22CA3B9001E3
:10136000721BEA307F306D339001750213F37438CD
:10137000900174F09001720BEA50BE540038500492
:10138000900174F0122622900174E00A5B2E540042
:1013900003900010F074AF900011F09001750BEA0B
:1013A000107E3400127E2400011B1A10900174E09C
:1013B0000A3BCA397F137E1400147E0400011222F6
:1013C000BD1BFD900174E00A3B2E3400080A371261
:1013D0002773900174E00A3B2D73900174E00A2B8F
:1013E0009001750BEA302D321BEA309001720BEA46
:1013F000309D321BEA309001720BEA304D336803A6
:1014000002136EDA3B22900092E0BEB00268229096
:101410000000E0701C900003E07016900005E07082
:1014200010900004E0700A9000060BEA304D33681B
:101430000302274A900002E0B4015F740490009216
:10144000F0E49000DAF09000DBF0740E7E70011290
:101450001F1E74127E7020121F1E74107E700812E0
:101460001F1E740E7E7002121F1E74127E702012D8
:101470001F1E74107E7008121F1E740E7E700112E3
:101480001F1E74126C77121F1E74137E7008121FB9
:101490001E740E6C77121F1E80107403900092F061
:1014A00074FF9000DAF09000DBF002276690009263
:1014B000E0B40429900000E0B40222900005E0604E
:1014C0000302154B900003E0600302154B900002ED
:1014D000E070789000060BEA304D336802806C9023
:1014E00000047EEB607C765E700F1B60682E2E60C1
:1014F0007F68040B6078547E2400017CB760053E51
:10150000241478FB7C656E60FF9000DAE05CB6F036
:10151000740E121F1E74117E704080237E24000101
:101520007CB760053E241478FB7C656E60FF9000FC
:10153000DBE05CB6F0740E121F1E74147E70801215
:101540001F1E740E6C77121F1E800302274A02278B
:1015500066900092E0B40423900000E0B4021C9076
:101560000005E0707A900003E07074900002E07073
:101570006E9000060BEA304D3368028062900004E2
:101580007EEB607C765E700F1B6068292E607F6842
:10159000040B60784A7E2400017CB760053E241469
:1015A00078FB9000DAE04CB5F0740E121F1E741137
:1015B0007E7010801E7E2400017CB760053E2414DE
:1015C00078FB9000DBE04CB5F0740E121F1E741413
:1015D0007E7020121F1E740E6C77121F1E80030275
:1015E000274A022766CAF8740E6C77121F1E741100
:1015F0001220077CFB30E20F74117C7F5E70FB12BF
:101600001F1EE49000D3F07CBF30E40A74117C7F8D
:101610004E7080121F1E9000D3E024FD684E1468A7
:10162000500BB2784F7CBF30E04A7E1400007E043D
:1016300000017420121F949000060BEA30121FCE96
:101640009000061BEA30900000E0546024E0680D32
:1016500024E0680E2440780F12191D80171224E22E
:1016600080121200C8800D12274A800812177A8053
:1016700003120066DAF8221E0353005400430020D0
:1016800000550053004200200053006500720069BD
:101690000061006C00040309041201000202000052
:1016A00040BF3402FF0001010200010902430002B1
:1016B000010080320904000001020201000524003B
:1016C0001001052401000104240202052406000182
:1016D000070582034000FF09040100020A00000020
:1016E00007058102400000070501024000000000DC
:1016F00001000803530054004300CA7BCA6BCA5B55
:10170000CA4BCA3BCA2BCA1BCA0BC0D0C083C082FB
:101710007EF1FC74061220077CEB74021220077C19
:10172000CB74041220077CDB7CBE30E10312279AC5
:101730007CBE30E203121AF67CBC30E0031215E5E1
:101740007CBC30E103121E287CBC30E2031221A3D2
:101750007CBD30E103120C0E7CBE30E0031200624F
:101760007AF1FCD082D083D0D0DA0BDA1BDA2BDA14
:101770003BDA4BDA5BDA6BDA7B32CAF8740E6C77E1
:10178000121F1E741112200720E1679000D40BEA8B
:1017900030BE34004028057EF04080027CF7900087
:1017A000D6691E00020BEA007C7F74201222210AF7
:1017B0002F9000D40BEA309D321BEA300A159000BE
:1017C000D6693E00020BEA202D31793E00021BEA69
:1017D000209000D40BEA304D33780F74117E700ADC
:1017E000121F1EE49000D3F0800874117E70021264
:1017F0001F1EDAF82290015C1BEA20793E00027E6F
:1018000034015F7E2400017E1B307E3401607E2423
:1018100000017A1B307E34015E7E2400017E1B3085
:101820007E3401617E2400017A1B307E34015D7EAE
:101830002400017E1B307E3401627E2400017A1B6D
:10184000307E34015C7E2400017E1B307E340163D7
:101850007E2400017A1B30900160693E00020BEA91
:101860002022900000E0B48024900003E0701E90DD
:101870000002E07018900005E07012900004E07023
:101880000C9000060BEA30BE340001680302274AC0
:10189000900092E0B4040A7E3416F07E2400FF80AB
:1018A000087E3416EE7E2400FF9000D6793E0002BA
:1018B0001BEA207E3400019000D41BEA3002271B73
:1018C000CA799001041BEA00791E000212263B74BB
:1018D00053900010F0E4900011F0900012F090008E
:1018E00013F07E3401047E240001900188793E00CB
:1018F000021BEA207E1400147E040001900104699A
:101900003E00020BEA201200EE7D732E7400087D6B
:10191000370B340A371227737D37DA7922900001AA
:10192000E0BEB00D50507EA003A490192E73021992
:101930005502195802197602195B02197602195ECE
:1019400002196102196402196702196A02196D020B
:1019500019700219730209F20214AD02155102192D
:10196000C7020FC202005F021862021406021B4087
:101970000221CE0200C502274AA9D7BA75E900752F
:10198000EA00759300759400759100759200759545
:101990000075960075B10075B20075B30075B4009E
:1019A00075C90075CA0075CB0075CC0075E100756E
:1019B000E200120EE5122789D2AFC2C2121BCF126B
:1019C000238F12236F80FECAF8900000E0702790EA
:1019D0000005E07021900004E0701B900003E070AF
:1019E000159000027EEBF0BEF080500A9000060BCE
:1019F000EA304D33680512274A8017E47C7F121FB6
:101A00001E4CFF6804740380027402900092F0126E
:101A10002766DAF822CAF87CFBBEF03B28037EF08A
:101A20003B744C90000CF0744590000DF0744490A1
:101A3000000EF0742890000FF09000107AEBF00A7E
:101A40003FCA397F107E1400117E0400011222BDAE
:101A50001BFD0A3F2E3400050A37122773DAF822DD
:101A6000CAF87CFBBEF03B28037EF03B744C900030
:101A70000CF0744590000DF0744490000EF074402A
:101A800090000FF09000107AEBF00A3FCA397F10F7
:101A90007E1400117E0400011222BD1BFD0A3F2EA0
:101AA0003400050A37122773DAF822CAF87CFB9053
:101AB00001841BEA20793E000212263B744C900000
:101AC00010F07401900011F09000127AEBF0E490A5
:101AD0000013F0900184691E00020BEA007E3400BE
:101AE000147E240001791100021B1A007E34000CC0
:101AF000122773DAF822E46C77121F1E740290002A
:101B000092F0E49000D3F0C202740E7E7001121FB6
:101B10001E74117E7048121F1E740E7E7002121FFA
:101B20001E74117E7048121F1E740E7E7001121FEB
:101B30001E74147E7090121F1E740E6C77021F1E8E
:101B4000900092E0B4041F900000E0B4811890006F
:101B500003E07012900005E0700C9000060BEA3074
:101B6000BE340001680302274A7E3416EE7E24004C
:101B7000FF9000D6793E00021BEA207E34000190DF
:101B800000D41BEA3002271B7584017E44041FE445
:101B90007A49B01B4478F97EF800207E0400FF7E6D
:101BA00014279F0B0A405D446822295000020A2531
:101BB000693000032E0800050B44800A7E0BB07AC2
:101BC0001BB00B1C0B0C1B4478F280D702272C7522
:101BD000C8FF53CA0F53C90F43CA0F53C9F0E47E5D
:101BE00034FE4D7E24007E7A1BB07E34FE157A1BB7
:101BF000B07E34FE457A1BB07E34FE1D7A1BB07E6B
:101C000034FE257A1BB07E34FE2D7A1BB07E34FE66
:101C1000357A1BB0227CA77C7B744C90000CF0744E
:101C20004590000DF0744490000EF0742890000F61
:101C3000F07402900010F07CB754077E44000160FD
:101C4000053E441478FB7CB9900011F09000127AA4
:101C5000EBA07E3400070227737CA77C7B744C903A
:101C6000000CF0744590000DF0744490000EF07478
:101C70004090000FF07402900010F07CB754077E83
:101C800044000160053E441478FB7CB9900011F0DB
:101C90009000127AEBA07E3400070227737C6B74ED
:101CA0004C90000CF0744590000DF0744490000EC0
:101CB000F0742890000FF07402900010F0E490008F
:101CC00011F07CB65407C40354F87C6B4E60807CE2
:101CD000B754074CB6900012F07E34000702277309
:101CE0007C6B744C90000CF0744590000DF07444C3
:101CF00090000EF0744090000FF07402900010F00D
:101D0000E4900011F07CB65407C40354F87C6B4E89
:101D100060807CB754074CB6900012F07E34000708
:101D2000022773CA3B7CF57CE67CD77CCB7C7EACFF
:101D30007F1212B21226097405900010F074C89038
:101D40000011F09000127AEBC09000137AEBD09063
:101D500000147AEBE09000157AEBF07E34000A1262
:101D60002773DA3B22CA3B7F3090018D7AEB70906B
:101D7000018CF01227580B347F0312135C122622B9
:101D80007403900010F074A7900011F090018CE0A3
:101D9000900012F090018DE0900013F07E34000866
:101DA000122773DA3B227C6B744C90000CF0744564
:101DB00090000DF0744490000EF0742890000FF025
:101DC0007402900010F0E4900011F05E60077CB6A1
:101DD000C40354F87C6B7CB754074CB6900012F0E7
:101DE0007E3400070227737C6B744C90000CF074F7
:101DF0004590000DF0744490000EF0744090000F78
:101E0000F07402900010F0E4900011F05E60077C26
:101E1000B6C40354F87C6B7CB754074CB6900012E0
:101E2000F07E340007022773CAF8740E7E70011228
:101E30001F1E74111220077CFB30E50874117E70A0
:101E400040121F1E7CBF30E20774116C77121F1EF8
:101E50009000900BEA304D3368089000900BEA3008
:101E60009934C202DAF822CA799001301BEA00796B
:101E70001E00027E3401307E240001900188793EEC
:101E800000021BEA207E14000C7E04000190013049
:101E9000693E00020BEA201200EE7D730A3712271A
:101EA000737D37DA7922CA3B7D727CCB12260974A6
:101EB00006900010F074C6900011F07401900012AA
:101EC000F09000137AEBC09000147AEB707E34002F
:101ED000157E2400011B1A707E34000B122773DA62
:101EE0003B22CA3B7D727CCB1226097406900010FF
:101EF000F074C6900011F07402900012F09000137C
:101F00007AEBC09000147AEB707E3400157E2400CA
:101F1000011B1A707E34000B122773DA3B227CA758
:101F20007C7BE5FC20E7FB7CB7547FF5FC000000E0
:101F300000000000000000000000000000000000A1
:101F40000000000000000000000000000000000091
:101F500000000000007AA1EC22CA3B7D727CCB120B
:101F600026097406900010F074C6900011F0E490F9
:101F70000012F09000137AEBC09000147AEB707EA0
:101F80003400157E2400011B1A707E34000B1227CA
:101F900073DA3B22CA3B7F30CAB80BFD741612209D
:101FA000077AFBB039BFFFFF800C29BFFFFE12206C
:101FB000077A3BB00B747EFBA07CBA147AFBB04C62
:101FC000AA78E729BFFFFF9EF80003DA3B229001C1
:101FD000801BEA307E3401817E2400017E1B307E2E
:101FE0003401827E2400017A1B307E3401807E24FD
:101FF00000017E1B307E3401837E2400017A1B3079
:102000009001820BEA30227CABE5FC20E7FB7CBA36
:102010004480F5FC0000000000000000000000000B
:1020200000000000000000000000000000000000B0
:10203000000000000000000000000000E5EC22CAE3
:102040003B12263B7443900010F0E4900011F09096
:102050000012F0900013F07E340008CA397F107E21
:102060001400147E0400011222BD1BFD7E340010FA
:10207000122773DA3B22CA3B7F3112263B7444900D
:102080000010F07401900011F0E4900012F0900044
:1020900013F07E3400147E240001797100021B1AB3
:1020A000607E34000C122773DA3B22900092E0B479
:1020B0000409900000E0BEB0A1680302274A7E3404
:1020C000016B7E2400019000D6793E00021BEA20BD
:1020D0009000060BEA309000D41BEA3002271B90D8
:1020E0000092E0B40409900000E0BEB02168030251
:1020F000274A7E34016B7E2400019000D6793E0091
:10210000021BEA209000060BEA309000D41BEA3054
:1021100002273C7CAB7E34FBF17E24007E7E1BB02C
:1021200020E7F27CBA44807A1BB07E34FBF17E2437
:10213000007E7E1BB020E7F27E34FBF27E24007E20
:102140007E1BB0227CAB7E34FBF57E24007E7E1BA2
:10215000B020E7F27CBA44807A1BB07E34FBF57E77
:1021600024007E7E1BB020E7F27E34FBF67E240046
:102170007E7E1BB022CA39C083C08290017E0BEAEA
:10218000300B341BEA3090017E0BEA30BE3403E89A
:10219000400A6D3390017E1BEA30B2C2D082D083F8
:1021A000DA3932CAF8740E7E7002121F1E741112D0
:1021B00020077CFB30E50874117E7040121F1E7CE6
:1021C000BF30E20774116C77121F1EDAF8229000FC
:1021D00092E0B4041D900000E0B40116900003E00A
:1021E0007010900005E0700A9000060BEA304D3345
:1021F000680302274A0227667D23000000000000D2
:1022000000000000000000000000000000000000CE
:1022100000000000000000007D321B347D2378DACE
:1022200022CA3BCA787F30CAB8800B7EFBB07E3BA7
:10223000700B74121F1E29AFFFFF7CBA1439BFFF49
:10224000FF4CAA78E61BFDDA3B22CAF87CFB12267B
:10225000227403900010F074A3900011F0740290A7
:102260000012F09000137AEBF07E3400081227730E
:10227000DAF8227CA77C3B7E34FBF17E24007E7E54
:102280001BB020E7F27EF4FBF27EE4007E7A7BA0B6
:102290007CB3547F7A1BB0227CA77C3B7E34FBF559
:1022A0007E24007E7E1BB020E7F27EF4FBF67EE407
:1022B000007E7A7BA07CB3547F7A1BB0227F217F83
:1022C000707F10800A7E2B307A1B300B540B3469E0
:1022D0001FFFFD7D011B04790FFFFD4D1178E67F87
:1022E00017225389F0E589F589758AE0758CB174F8
:1022F0000B7E34FEA07E24007E7A1BB0438E80D2FB
:10230000A9D2AFD28C22CAF87CFB122609740290A3
:102310000010F074C5900011F09000127AEBF07E7E
:10232000340007122773DAF822CAF87CFB12260958
:102330007402900010F074C4900011F09000127AB2
:10234000EBF07E340007122773DAF822CAF87CFB20
:102350001226227402900010F074A5900011F090E3
:1023600000127AEBF07E340007122773DAF822535A
:102370008EF7438E0443AF0474017E34FEA27E24A4
:10238000007E7A1BB075D6B975D7B0438E10221275
:10239000082E74257E34032012108C74267E34039C
:1023A0002012108C74277E34032002108C801200BF
:1023B000000000000000000000000000000000001D
:1023C000007D231B344D2278E622122609740290E8
:1023D0000010F074C7900011F07401900012F07EAC
:1023E0003400070227731226097402900010F0745B
:1023F000C0900011F07401900012F07E34000702CA
:1024000027731226227402900010F074A39000111A
:10241000F07401900012F07E340007022773122638
:10242000227402900010F074A4900011F0740190D6
:102430000012F07E340007022773122609740290FE
:102440000010F074C2900011F07401900012F07E40
:102450003400070227731226227402900010F074D1
:10246000A2900011F07402900012F07E3400070276
:1024700027731226097402900010F074C1900011A5
:10248000F07401900012F07E3400070227731226C8
:10249000227402900010F074A0900011F07401906A
:1024A0000012F07E34000702277312262274029075
:1024B0000010F074A2900011F07401900012F07EF0
:1024C0003400070227731226227402900010F07461
:1024D000A1900011F07401900012F07E3400070208
:1024E0002773900001E024DF680A14680A0BB178B2
:1024F000090220DF0220AB0226B302274A12260976
:102500007402900010F074C0900011F0E49000127A
:10251000F07E340007022773122622740290001006
:10252000F074A4900011F0E4900012F07E340007E3
:102530000227731226097402900010F074C79000ED
:1025400011F0E4900012F07E340007022773122687
:10255000227402900010F074A0900011F0E490003A
:1025600012F07E34000702277312262274029000B4
:1025700010F074A3900011F0E4900012F07E34008B
:10258000070227731226097402900010F074C2909B
:102590000011F0E4900012F07E340007022773125D
:1025A00026097402900010F074C1900011F0E490BC
:1025B0000012F07E34000702277312262274029064
:1025C0000010F074A1900011F0E4900012F07E343D
:1025D00000070227731226227402900010F074A2E2
:1025E000900011F0E4900012F07E3400070227738F
:1025F000CAF80A5B2E540020121F947CFB74146CE2
:1026000077121F1E7CBFDAF822744F90000CF07412
:102610004C90000DF0744590000EF0748090000F07
:10262000F022744C90000CF0744390000DF0744450
:1026300090000EF0748090000FF022743790000C20
:10264000F0745390000DF0744590000EF0744790B4
:10265000000FF022A9C7AF740E7E7001121F1E7406
:10266000146C77121F1EC200A9D7AF22CA797D73DE
:1026700080077E3403E81223AD7D371B744D337819
:10268000F1DA792275ED02226D0075ED022275ED09
:1026900004226D0075ED042275ED06227D237E3443
:1026A00017707D131B147D3178F87D121B147D216A
:1026B00078EC22900092E0B40409900000E0BEB0F3
:1026C00021680302274A022766122622740190001D
:1026D00010F074A6900011F07E34000602277312E9
:1026E00026097401900010F074C3900011F07E343C
:1026F00000060227737CA77C7B0A5A2E5400201206
:10270000222174117E7001021F1E7E14004C7E0473
:102710000001900008E00A3B02114D74039000D3C1
:10272000F074117E7040121F1E02177A1219799FE1
:10273000007E3427D57E2400FF0200CE7404900072
:10274000D3F074117E7040021F1E74059000D3F008
:1027500074117E7060021F1E6D3380020B347E0B7D
:10276000B00B1470F722E49000D3F074117E70481F
:10277000021F1E7E14000C7E04000102114D900009
:102780008C791E00021BEA00221212087E34270AEE
:1027900002279390000A1BEA3022222830290000E9
:1027A0000201017C0000000201017E000000010125
:1027B000000900000201000A0000000401008C0072
:1027C000FF27CC000201009000000000405354435A
:0727D00049535023003000C3
:00000001FF
