:100000000217079000901BEA302222021C4CCA3BC8
:100010009001641BEA307F30900092E0B4040280CB
:10002000030200C66D339001671BEA307E341388EB
:100030009001691BEA30A9C7AF740E7E7001121AD5
:10004000577411121B4030E019A9D7AF7E34000A53
:10005000121E029001690BEA301B341BEA306866FD
:1000600080D49001640BEA30BE3400400804744030
:1000700080027CB7900166F0A9C7AFC202740E7E01
:100080007001121A579001670BEA307F032D13900D
:100090000166E07E7001122165D202A9D7AF9001FE
:1000A00066E00A2B9001670BEA302D321BEA309094
:1000B00001640BEA309D321BEA30900166E0BEB06D
:0A00C00040400302002CDA3B22222C
:1000CB000210D27F707F517EC400017ED4015C7E12
:1000DB009400E102013D4005E47A7BB0227A7BB0CB
:1000EB000B7C227F707F519001840BEAC069DE008C
:1000FB00027E94010302013D4005E47A7BB0227A33
:10010B007BB00B7C22540F2490D43440D430F30CAE
:10011B00BEB0414007BEB05B500224204CCC6802FD
:10012B001BC00B84D389944CCC680B742012012711
:10013B0080F5CA3B6D889F337CAE7E5BB00B5C70E9
:10014B0007C37D38DA3B8994B42569C2F37E5BB073
:10015B000B5CA5F824D0BEB00A501B7E500A20F6CB
:10016B000DAC5CA52D7CCB70034EF00180DDAC5D3E
:10017B00A52D7CDB80D524CFBEB01AA5E850055E3B
:10018B0000DFD2F3900512A3E4936011BCB078F7B3
:10019B007417934CAB30F6B34EF08080AEA3E49360
:1001AB006010BCB078F77416937C3B7423937C2B54
:1001BB0089147CB08013742012012720F205BEC075
:1001CB000250F31B6D29B600011201270201321BED
:1001DB006E691600020B6A00BE08000078087E04E8
:1001EB0000FF7E14222920F21E4CCC681A7F10E4EB
:1001FB007E1B804C8868070B1C04BCBD78F2C2F6D2
:10020B00CA0B120311DA0B7E0BB060C0CA0B1201C2
:10021B0027DA0B0B0C4CDD68EE1BD078EA80ADD2E5
:10022B00F07E101080037E10085EB05F800AD2F65D
:10023B007E100A80057E100AC2F66D119F117E009A
:10024B00201B6C7E6B7030F6021A3720F1051B6C8D
:10025B007E6B6030F6041A261A2430F0051B6D0BEA
:10026B006A20A5EC3382F692F6500A7CEA9F229F15
:10027B00217F127CAE4C44780F7C457C567C676C9E
:10028B00772E00F878EF80122F117CB3337C3B9CD8
:10029B00B140047C3B0B70A5D8EE7CB230E005DAA4
:1002AB00B8C44C3BCA380B207E00207E3000BE18F1
:1002BB00000078C1BE1008780730F404C2F480B592
:1002CB00CA287CB2BCBD38027CBD120311DA28BC33
:1002DB002D500A1BD0E4CA2812011080F07CB213F7
:1002EB00DAB84004C4CAB8C4CA28BEF08040095C5E
:1002FB00DD7805A5DA0260065EF07F120110DA28C0
:10030B00A5DADA020132BEF001680F30F4022402E2
:10031B0020F50620F70330F6010420F229BCBC506F
:10032B0025CAB87CBF13B0E67420501174307C8A98
:10033B005E80F068081203515EA00F800312012744
:10034B00DAB8BCBC78DB30F40F7430120127745868
:10035B0030F302747812012730F605742D02012751
:10036B00742B20F5F8742020F7F3221B6C7E6BB0F6
:10037B0010F1021B6C20F60B30E704F404D2F27C74
:10038B00CB800520E7057CDB0201565EF07F80F811
:10039B001B6E691600020B6A0030F0076D221B0AF8
:1003AB00200B0D1B0A80020141E46C22BE3007506A
:1003BB000B7F1F2D312E34FFF77E39B0227CBF20EF
:1003CB00E7A8742E4EF0800201271204FB403D7CFF
:1003DB00BD7003047CDB1206127C3D4C3368101B92
:1003EB00307CBE20E4091203B470044C3378F07CEB
:1003FB00BD7CD3BEA0FD481CBCAB5818E49CBA2CEA
:10040B00B31801E47CDB02049C1204FB406E7CBD40
:10041B00041206127AFBA07CAE7CBDA2F492F0C251
:10042B00F4400260010424051203117E30FF0B30EF
:10043B001203B4CA3812011020F0044CDD68031209
:10044B0003C8DA38BC3D78E6740E120110742B7EAB
:10045B00FBA030F707742D6EA0FF0BA07AFBA01248
:10046B0001277EA00A7EFBB0847AFBA01201107ECE
:10047B00FBB01201109EF80008020132D2F27ED0BE
:10048B00000201F11204FB40F37CBA2CBD041206EE
:10049B00127AFBA07CBA7CAE30E701E40420F404B2
:1004AB004CDD6805D2F0C2F4042CBD1203116C3381
:1004BB007EFBB0601B20E712147AFBB01203B4CAA8
:1004CB0038120110DA380B3080E6047AFBB01B309F
:1004DB001203B4CA381201104CDD68071203C81B93
:1004EB00D080E19EF8000930F0031203C8020132FC
:1004FB007CEA7CAF10F7037ED0067CFA1B6E693664
:10050B0000020B6A2002055A2D2B204C4248232E49
:10051B000053584F44494355502A4E464547000413
:10052B0020800102001040DA2C313939C6402A767E
:10053B009B8F14D501020202020102020303040481
:10054B00034E614E002B494E46002D494E46007D11
:10055B00522D557CBE92E67CEB7CBA601F04702852
:10056B007CB5C2E77E0400FF60067E14054CD322E7
:10057B007E14055540047E140550D322DA099F22C0
:10058B00CA2BCA2BC3CA09220A0A7E144D10AD10FE
:10059B009E083AF09E10267CB5C2E77EA0567C9B47
:1005AB00A46E54FFFF2E54C511ACA92D15E4A5392B
:1005BB00CAB8CA1B20E70A1207A6DA1B1206F58077
:1005CB000AF4041207A6DA1B120655DAA87CB53317
:1005DB007CB4334E50806C4424822F111478FBDA98
:1005EB00497407BE400A40099E400ACA0201140B17
:1005FB00A0CA486C442F117F012F112F112F1014FB
:10060B0078EFCA48CA49227F0F20E73ABEB00740AD
:10061B000274070A0B2D109E1400097E19B02EB020
:10062B00FB501F4C116817E47A19B01B147E19B0DC
:10063B00047A19B0B40A0BE47A19B0A5D9ED0BA062
:10064B0074017A19B0225EE0BF225D22680D5D0055
:10065B0078122D220B4068099F11222D000B007878
:10066B00F902081A1207DD5C800B806808248150A0
:10067B00072CB0500A0208222CB0400302081F7C42
:10068B008B5D1178267CB17CA5BE1080680A5D332A
:10069B00780DA5BD80057F1002080C6D0080307FA2
:1006AB00017C5B7CB17CA5AD1280245D337806A503
:1006BB00BD80F080E1CA887D41AD437CB17CA5ADA6
:1006CB00122D1450020B047C5BAD232F01DA88A48E
:1006DB002D05BE008040060B80780480982F007C8F
:1006EB00437C507C617C720207F6BE24FFFF6806D8
:1006FB00BE04FFFF780302081A1207DD5CB0046822
:10070B00F57CB8A54868EF7CB870039F1122A5B89B
:10071B0000030208222E008150079C803807020834
:10072B001F9C8050ED0A51C2E74D51780302080C13
:10073B007E5400807E901A6C0080061B9068142FEC
:10074B0011BF1040049F104CAB0330E7EECAA86CEE
:10075B00AA80E8DA39DA587C4ABE5080500A1B80EE
:10076B0068BC2F1150020B700207F63F800000414E
:10077B0020000042C80000447A0000461C4000479D
:10078B00C35000497424004B1896804CBEBC205AB1
:10079B000E1BCA6753C21C749DC5AE7C7B6006548E
:1007AB0007681623231207CB7CB75438680A7F10CF
:1007BB001207C81206557F01227CB7543803241C3C
:1007CB006CAA2E5407767E4400FF0B2A0069120098
:1007DB0002222D0092D50E104E10807D422D4450DA
:1007EB0002B2D54E50806C447CB8222C4450120B74
:1007FB001C7E40005E507FBE18000078040B8068A2
:10080B0016A2D57CB8137C4B7CB592E77C5B227E21
:10081B001CFFFF229F11227E24FF8020D5026C45F6
:10082B006D3322CAF89000007EEBF07CBF5480B48D
:10083B008018900003E07032900002E0702C900062
:10084B00060BEA30BE34000268030209327CBF5447
:10085B000F14681B14683C0BB1680302093290003B
:10086B0005E07006900004E0601E020932801990CA
:10087B000092E0B4040F900005E06003020932908F
:10088B000004E060030209327E3410C67E2400FFB0
:10089B0002091A900092E0B40406900005E0600390
:1008AB000209329000047EEB707CA75EA00F1B70D8
:1008BB0068342E707F68040B70786C7E2400017C8A
:1008CB00BA60053E241478FB9000DAE00A3B5D32F7
:1008DB00680A7E3410C87E2400FF80337E3410C635
:1008EB007E2400FF80297E2400017CBA60053E2413
:1008FB001478FB9000DBE00A3B5D32680A7E341013
:10090B00C87E2400FF80087E3410C67E2400FF9032
:10091B0000D6793E00021BEA207E3400029000D400
:10092B001BEA30800780001221C9800312218BDA69
:10093B00F822CA79740E7E7001121A577414121BA6
:10094B00407CFB30E60874147E7080121A577CBF13
:10095B0020E003020A367E14004C7E040001742151
:10096B00121ACD900008F090008C693E00020BEA41
:10097B00204D237803020A196CFF020A0E9000091E
:10098B00E01A3B90008C691E00020BEA002D317DB2
:10099B00207E1BA00A4F2E44004C7A91827A8183D1
:1009AB007EEBE0BCEA784090000904F0900009E08F
:1009BB001A3B2D317D207E1BB0704674146C771260
:1009CB001A57E47E34FE007E24007E7A1BB075F449
:1009DB000053DCF07E34FE077A1BB07E34000A1223
:1009EB0020DC75C76080FE90008C693E00020BEA2C
:1009FB00207E1B70BCE7780474018001E490000931
:100A0B00F00BF0900008E0BCFB5003020988D20009
:100A1B0090000A0BEA304D33681190000A0BEA3054
:100A2B00993474146C77121A57C200DA7922740154
:100A3B007E34FE0B7E24007E7A1BB07E34FE907AD1
:100A4B001BB07E34FE947A1BB07E34FE917A1BB0C1
:100A5B007E34FE927A1BB07E34FE937A1BB07E34CA
:100A6B00FE047E1BB044807A1BB07E34FE047E24D1
:100A7B00007E7E1BB030E0F27E34FE077E24007ECB
:100A8B007E1BB044807A1BB07E34FE077E24007E32
:100A9B007E1BB030E0F2740A7E34FE017E24007EB1
:100AAB007A1BB07E34FDEC7E1BB0F59F7E34FDF7D8
:100ABB007E1BB0F5A6E59D54FC4402F59D7E34FEED
:100ACB00007E1BB054FC7A1BB07E1BB044807A1B9B
:100ADB00B0E5DC549F4420F5DC43DC807E34000120
:100AEB0012210C7E34FE007E24007E7E1BB054F35C
:100AFB0044047A1BB074047E14FE017E04007E7ADB
:100B0B000BB07E1BB054BF7A1BB022900000E05498
:100B1B0080BEB0806803020BC4900003E01BB16879
:100B2B00221468370BB16803020BC47E3410717E3C
:100B3B002400FF9000D6793E00021BEA207E340091
:100B4B0012806C7E3410837E2400FF9000D6793E99
:100B5B0000021BEA207E3400438054900002E01414
:100B6B00681F1468340BB178507E34106D7E2400EE
:100B7B00FF9000D6793E00021BEA207E34000480F1
:100B8B002E7E3410CA7E2400FF9000D6793E0002E0
:100B9B001BEA207E34000880167E34104F7E240022
:100BAB00FF9000D6793E00021BEA207E34001E9097
:100BBB0000D41BEA30800580000221C99000060B8F
:100BCB00EA309000D40BEA20BD2328069000D41BFA
:100BDB00EA3002218B53B2FC43B10374807E34FEA6
:100BEB00077E24007E7A1BB07E34FE077E24007EB7
:100BFB007E1BB030E0F253DCF075F490E46C7712AE
:100C0B001A5774017E7008121A5774077E703F12C0
:100C1B001A5774097E703F121A57740B7E700712A5
:100C2B001A5774016C77121A577402900092F0E401
:100C3B009000D3F09000DAF09000DBF0C2027E342B
:100C4B0001007E2400C290016B793E00021BEA205A
:100C5B0090016FF0900170F07408900171F0A9D7BA
:100C6B00AF740190018CF090018CE070119F11908A
:100C7B000184793E00021BEA209F000200EE22CA8B
:100C8B003B9001771BEA307F306D3390017A020D78
:100C9B00217438900179F09001770BEA50BE540023
:100CAB00385004900179F0122079900179E00A5BB9
:100CBB002E540003900010F074CF900011F09001AF
:100CCB007A0BEA107E3400127E2400011B1A10905E
:100CDB000179E00A3BCA397F137E1400147E0400AD
:100CEB0001121D741BFD900179E00A3B2E340008A4
:100CFB000A371221FF900179E00A3B2D739001799D
:100D0B00E00A2B90017A0BEA302D321BEA3090016E
:100D1B00770BEA309D321BEA309001770BEA304DAE
:100D2B00336803020C9CDA3B22CA3B9001721BEA2C
:100D3B00307F306D33900175020DCB743890017498
:100D4B00F09001720BEA50BE5400385004900174BD
:100D5B00F0122092900174E00A5B2E540003900075
:100D6B0010F074AF900011F09001750BEA107E3407
:100D7B0000127E2400011B1A10900174E00A3BCA7A
:100D8B00397F137E1400147E040001121D741BFDA9
:100D9B00900174E00A3B2E3400080A371221FF90B1
:100DAB000174E00A3B2D73900174E00A2B900175DE
:100DBB000BEA302D321BEA309001720BEA309D3278
:100DCB001BEA309001720BEA304D336803020D467B
:100DDB00DA3B22900092E0BEB0026822900000E065
:100DEB00701C900003E07016900005E070109000EE
:100DFB0004E0700A9000060BEA304D3368030221C1
:100E0B00C9900002E0B4015F7404900092F0E4908A
:100E1B0000DAF09000DBF0740E7E7001121A57743A
:100E2B00127E7020121A5774107E7008121A5774A3
:100E3B000E7E7002121A5774127E7020121A57749B
:100E4B00107E7008121A57740E7E7001121A5774A6
:100E5B00126C77121A5774137E7008121A57740E8D
:100E6B006C77121A5780107403900092F074FF90F5
:100E7B0000DAF09000DBF00221F2900092E0B40473
:100E8B0029900000E0B40222900005E06003020FFD
:100E9B0023900003E06003020F23900002E07078C0
:100EAB009000060BEA304D336802806C9000047E94
:100EBB00EB607C765E700F1B60682E2E607F680483
:100ECB000B6078547E2400017CB760053E241478B7
:100EDB00FB7C656E60FF9000DAE05CB6F0740E127E
:100EEB001A5774117E704080237E2400017CB760FA
:100EFB00053E241478FB7C656E60FF9000DBE05CA4
:100F0B00B6F0740E121A5774147E7080121A57743E
:100F1B000E6C77121A5780030221C90221F290003E
:100F2B0092E0B40423900000E0B4021C900005E0B2
:100F3B00707A900003E07074900002E0706E900085
:100F4B00060BEA304D33680280629000047EEB6042
:100F5B007C765E700F1B6068292E607F68040B60C7
:100F6B00784A7E2400017CB760053E241478FB9000
:100F7B0000DAE04CB5F0740E121A5774117E701033
:100F8B00801E7E2400017CB760053E241478FB9004
:100F9B0000DBE04CB5F0740E121A5774147E7020FF
:100FAB00121A57740E6C77121A5780030221C9025A
:100FBB0021F2CAF8740E6C77121A577411121B4077
:100FCB007CFB30E20F74117C7F5E70FB121A57E4CE
:100FDB009000D3F07CBF30E40A74117C7F4E70809C
:100FEB00121A579000D3E024FD684E1468500BB2D0
:100FFB00784F7CBF30E04A7E1400007E0400017401
:10100B0020121ACD9000060BEA30121B0790000637
:10101B001BEA30900000E0546024E0680D24E06887
:10102B000E2440780F1213548017121F5280121285
:10103B002226800D1221C980081211528003121230
:10104B003ADAF8221E0353005400430020005500E7
:10105B0053004200200053006500720069006100DC
:10106B006C00040309041201000202000040BF34AB
:10107B0002FF00010102000109024300020100808E
:10108B0032090400000102020100052400100105D1
:10109B002401000104240202052406000107058235
:1010AB00034000FF09040100020A0000000705814C
:1010BB00024000000705010240000000000100088B
:1010CB0003530054004300CA7BCA6BCA5BCA4BCAAA
:1010DB003BCA2BCA1BCA0BC0D0C083C0827EF1FC9B
:1010EB007406121B407CEB7402121B407CCB740405
:1010FB00121B407CDB7CBE30E1031200C97CBE308E
:10110B00E2031216757CBC30E003120FBD7CBC30C1
:10111B00E1031219617CBC30E203121C7A7CBD30F6
:10112B00E10312093D7CBE30E00312000A7AF1FCA8
:10113B00D082D083D0D0DA0BDA1BDA2BDA3BDA4B46
:10114B00DA5BDA6BDA7B32CAF8740E6C77121A57E9
:10115B007411121B4020E1679000D40BEA30BE34AF
:10116B00004028057EF04080027CF79000D6691E77
:10117B0000020BEA007C7F7420121D220A2F9000C4
:10118B00D40BEA309D321BEA300A159000D6693E2B
:10119B0000020BEA202D31793E00021BEA20900061
:1011AB00D40BEA304D33780F74117E700A121A5734
:1011BB00E49000D3F0800874117E7002121A57DA93
:1011CB00F82290015C1BEA20793E00027E34015F1D
:1011DB007E2400017E1B307E3401607E2400017A68
:1011EB001B307E34015E7E2400017E1B307E340179
:1011FB00617E2400017A1B307E34015D7E24000168
:10120B007E1B307E3401627E2400017A1B307E34DB
:10121B00015C7E2400017E1B307E3401637E240042
:10122B00017A1B30900160693E00020BEA202274A8
:10123B000E6C77121A577411121B4030E04F90004E
:10124B00D6691E00020BEA007420121ACD0A1B90FD
:10125B0000D40BEA209D211BEA209000D6693E00AA
:10126B00020BEA202D31793E00021BEA209000D4BC
:10127B000BEA304D33780E74117E7048121A57E416
:10128B009000D3F02274117E7040021A5722900006
:10129B0000E0B48024900003E0701E900002E07028
:1012AB0018900005E07012900004E0700C9000069E
:1012BB000BEA30BE34000168030221C9900092E0B2
:1012CB00B4040A7E3410C87E2400FF80087E3410DC
:1012DB00C67E2400FF9000D6793E00021BEA207EDA
:1012EB003400019000D41BEA3002218BCA799001A3
:1012FB00041BEA00791E00021220AB7453900010FD
:10130B00F0E4900011F0900012F0900013F07E3496
:10131B0001047E240001900184793E00021BEA2027
:10132B007E1400147E040001900104693E00020B40
:10133B00EA201200EE7D732E7400087D370B340A01
:10134B00371221FF7D37DA7922900001E0BEB00D14
:10135B0050507EA003A49013657302138C02138F5D
:10136B000213AD0213920213AD02139502139802EE
:10137B00139B02139E0213A10213A40213A70213C1
:10138B00AA02082E020E85020F290214FC020B166C
:10139B00022220021299020DDE0216BF021CCF029E
:1013AB0022230221C975C8FF53CAC053C9C053CAEF
:1013BB003F43C9C074FF7E34FE4D7E24007E7A1BF2
:1013CB00B0E47E34FE157A1BB07E34FE457A1BB03A
:1013DB007E34FE1D7A1BB074FF7E34FE257A1BB063
:1013EB007E34FE2D7A1BB07E34FE357E1BB0443F1F
:1013FB007A1BB07E1BB0543F7A1BB02243BA807568
:10140B00E90053EAF875F52475940075930075920D
:10141B000075910075960075950075B20075B10059
:10142B0075B40075B30075CA0075C90012162B127E
:10143B0013B0120A391221AC7E34000112210C12A6
:10144B001F377E34000112210C12221CD2AF022155
:10145B00E5CA3B7F707CF57CE67CD77CCBCA7B0AEC
:10146B00366D222F110A1F6D001220F4DA0B120DAC
:10147B00341220927405900010F074A8900011F0B3
:10148B009000127AEBC09000137AEBD09000147A94
:10149B00EBE09000157AEBF07E34000A1221FFDAB4
:1014AB003B22121407759300759400759100759289
:1014BB000075950075960075B10075B20075B30097
:1014CB0075B40075C90075CA0075CB0075CC007575
:1014DB00E10075E2007580FF7590FF75A0FF75B098
:1014EB00FF75C0FF75C8FFC2C2121CA543C1108097
:1014FB00FBCAF8900000E07027900005E070219087
:10150B000004E0701B900003E070159000027EEB6E
:10151B00F0BEF080500A9000060BEA304D336805A0
:10152B001221C98017E47C7F121A574CFF68047490
:10153B000380027402900092F01221F2DAF822CAB0
:10154B00F87CFBBEF03B28037EF03B744C90000C08
:10155B00F0744590000DF0744490000EF0742890D8
:10156B00000FF09000107AEBF00A3FCA397F107E23
:10157B001400117E040001121D741BFD0A3F2E3452
:10158B0000050A371221FFDAF822CAF87CFBBEF0FD
:10159B003B28037EF03B744C90000CF0744590009C
:1015AB000DF0744490000EF0744090000FF090001A
:1015BB00107AEBF00A3FCA397F107E1400117E04BB
:1015CB000001121D741BFD0A3F2E3400050A371251
:1015DB0021FFDAF822CAF87CFB9001801BEA207904
:1015EB003E00021220AB744C900010F0740190007E
:1015FB0011F09000127AEBF0E4900013F090018060
:10160B00691E00020BEA007E3400147E240001796F
:10161B001100021B1A007E34000C1221FFDAF82293
:10162B0075B0FF53B20353B10353B2FC43B1037410
:10163B00FF7E34FE4B7E24007E7A1BB0E47E34FEAC
:10164B00137A1BB07E34FE437A1BB07E34FE1B7ABA
:10165B001BB074FF7E34FE237A1BB07E34FE2B7AD4
:10166B001BB07E34FE337A1BB022E46C77121A5710
:10167B007402900092F0E49000D3F0C202740E7EDC
:10168B007001121A5774117E7048121A57740E7E1D
:10169B007002121A5774117E7048121A57740E7E0C
:1016AB007001121A5774147E7090121A57740E6CC4
:1016BB0077021A57900092E0B4041F900000E0B438
:1016CB008118900003E07012900005E0700C900000
:1016DB00060BEA30BE34000168030221C97E3410C8
:1016EB00C67E2400FF9000D6793E00021BEA207EC6
:1016FB003400019000D41BEA3002218B7584017EEB
:10170B0044041FE47A49B01B4478F97EF800207E2C
:10171B000400FF7E14222D0B0A405D4468222950E1
:10172B0000020A25693000032E0800050B44800ACD
:10173B007E0BB07A1BB00B1C0B0C1B4478F280D7C2
:10174B0002219C7CA77C7B744C90000CF074459020
:10175B00000DF0744490000EF0742890000FF0749C
:10176B0002900010F07CB754077E44000160053EE8
:10177B00441478FB7CB9900011F09000127AEBA026
:10178B007E3400070221FF7CA77C7B744C90000CFD
:10179B00F0744590000DF0744490000EF07440907E
:1017AB00000FF07402900010F07CB754077E4400D9
:1017BB000160053E441478FB7CB9900011F0900059
:1017CB00127AEBA07E3400070221FF7C6B744C90E5
:1017DB00000CF0744590000DF0744490000EF07402
:1017EB002890000FF07402900010F0E4900011F0BC
:1017FB007CB65407C40354F87C6B4E60807CB754A2
:10180B00074CB6900012F07E3400070221FF7C6B70
:10181B00744C90000CF0744590000DF074449000E3
:10182B000EF0744090000FF07402900010F0E490F2
:10183B000011F07CB65407C40354F87C6B4E6080E7
:10184B007CB754074CB6900012F07E34000702218F
:10185B00FFCA3B7CF57CE67CD77CCB7C7EAC7F12D5
:10186B000C8A1220797405900010F074C890001146
:10187B00F09000127AEBC09000137AEBD09000142A
:10188B007AEBE09000157AEBF07E34000A1221FF20
:10189B00DA3B22CA3B7F3090018B7AEB7090018A46
:1018AB00F01221D70B347F03120D341220927403E4
:1018BB00900010F074A7900011F090018AE0900056
:1018CB0012F090018BE0900013F07E34000812218F
:1018DB00FFDA3B227C6B744C90000CF0744590004B
:1018EB000DF0744490000EF0742890000FF0740209
:1018FB00900010F0E4900011F05E60077CB6C4031A
:10190B0054F87C6B7CB754074CB6900012F07E34C5
:10191B0000070221FF7C6B744C90000CF074459017
:10192B00000DF0744490000EF0744090000FF074B2
:10193B0002900010F0E4900011F05E60077CB6C4DA
:10194B000354F87C6B7CB754074CB6900012F07EB6
:10195B003400070221FFCAF8740E7E7001121A5769
:10196B007411121B407CFB30E50874117E70401221
:10197B001A577CBF30E20774116C77121A5790001C
:10198B00900BEA304D3368089000900BEA30993495
:10199B00C202DAF822CA799001301BEA00791E00E4
:1019AB00027E3401307E240001900184793E0002D6
:1019BB001BEA207E14000C7E040001900130693E6E
:1019CB0000020BEA201200EE7D730A371221FF7D15
:1019DB0037DA7922CA3B7D727CCB12207974069060
:1019EB000010F074C6900011F07401900012F0908A
:1019FB0000137AEBC09000147AEB707E3400157EE6
:101A0B002400011B1A707E34000B1221FFDA3B22DB
:101A1B00CA3B7D727CCB1220797406900010F07457
:101A2B00C6900011F07402900012F09000137AEB44
:101A3B00C09000147AEB707E3400157E2400011BDD
:101A4B001A707E34000B1221FFDA3B227CA77C7BC1
:101A5B00E5FC20E7FB7CB7547FF5FC0000000000A1
:101A6B00000000000000000000000000000000006B
:101A7B00000000000000000000000000000000005B
:101A8B000000007AA1EC22CA3B7D727CCB1220793C
:101A9B007406900010F074C6900011F0E4900012E0
:101AAB00F09000137AEBC09000147AEB707E340048
:101ABB00157E2400011B1A707E34000B1221FFDAF5
:101ACB003B22CA3B7F30CAB80BFD7416121B407AFF
:101ADB00FBB039BFFFFF800C29BFFFFE121B407A02
:101AEB003BB00B747EFBA07CBA147AFBB04CAA788B
:101AFB00E729BFFFFF9EF80003DA3B2290017C1B16
:101B0B00EA307E34017D7E2400017E1B307E340161
:101B1B007E7E2400017A1B307E34017C7E24000102
:101B2B007E1B307E34017F7E2400017A1B309001B6
:101B3B007E0BEA30227CABE5FC20E7FB7CBA4480D1
:101B4B00F5FC000000000000000000000000000099
:101B5B00000000000000000000000000000000007A
:101B6B0000000000000000000000E5EC22CA3B1260
:101B7B0020AB7443900010F0E4900011F090001231
:101B8B00F0900013F07E340008CA397F107E1400E9
:101B9B00147E040001121D741BFD7E3400101221F3
:101BAB00FFDA3B22CA3B7F311220AB74449000100A
:101BBB00F07401900011F0E4900012F0900013F01B
:101BCB007E3400147E240001797100021B1A607EA2
:101BDB0034000C1221FFDA3B22900092E0B404098E
:101BEB00900000E0BEB0A168030221C97E34016BF6
:101BFB007E2400019000D6793E00021BEA20900063
:101C0B00060BEA309000D41BEA3002218B90009235
:101C1B00E0B40409900000E0BEB02168030221C9C2
:101C2B007E34016B7E2400019000D6793E00021BAE
:101C3B00EA209000060BEA309000D41BEA30022118
:101C4B00BBCA39C083C0829001880BEA300B341BAE
:101C5B00EA309001880BEA30BE34000A400A6D333B
:101C6B009001881BEA30B2C2D082D083DA3932CAF3
:101C7B00F8740E7E7002121A577411121B407CFB03
:101C8B0030E50874117E7040121A577CBF30E207A2
:101C9B0074116C77121A57DAF8225389F0E589F52B
:101CAB0089758AE0758CB1A9D7BA740B7E34FEA006
:101CBB007E24007E7A1BB0A9C7BA438E80D2A9D2EC
:101CCB00AFD28C22900092E0B4041D900000E0B4DF
:101CDB000116900003E07010900005E0700A900070
:101CEB00060BEA304D3368030221C90221F27D2332
:101CFB0000000000000000000000000000000000D9
:101D0B0000000000000000000000000000007D3219
:101D1B001B347D2378DA22CA3BCA787F30CAB8805D
:101D2B000B7EFBB07E3B700B74121A5729AFFFFF73
:101D3B007CBA1439BFFFFF4CAA78E61BFDDA3B22B5
:101D4B00CAF87CFB1220927403900010F074A390DD
:101D5B000011F07402900012F09000137AEBF07EF9
:101D6B003400081221FFDAF8227F217F707F108068
:101D7B000A7E2B307A1B300B540B34691FFFFD7D11
:101D8B00011B04790FFFFD4D1178E67F1722CAF86E
:101D9B007CFB1220797402900010F074C590001136
:101DAB00F09000127AEBF07E3400071221FFDAF884
:101DBB0022CAF87CFB1220797402900010F074C4D4
:101DCB00900011F09000127AEBF07E340007122194
:101DDB00FFDAF822CAF87CFB1220927402900010F2
:101DEB00F074A5900011F09000127AEBF07E3400A5
:101DFB00071221FFDAF82280120000000000000019
:101E0B0000000000000000000000007D231B344D8B
:101E1B002278E6221220797402900010F074C79099
:101E2B000011F07401900012F07E3400070221FFC4
:101E3B001220797402900010F074C0900011F074AD
:101E4B0001900012F07E3400070221FF12209274E1
:101E5B0002900010F074A3900011F0740190001226
:101E6B00F07E3400070221FF1220927402900010C2
:101E7B00F074A4900011F07401900012F07E340005
:101E8B00070221FF1220797402900010F074C290A7
:101E9B000011F07401900012F07E3400070221FF54
:101EAB001220927402900010F074A2900011F07442
:101EBB0002900012F07E3400070221FF1220797489
:101ECB0002900010F074C1900011F0740190001298
:101EDB00F07E3400070221FF122092740290001052
:101EEB00F074A0900011F07401900012F07E340099
:101EFB00070221FF1220927402900010F074A2903E
:101F0B000011F07401900012F07E3400070221FFE3
:101F1B001220927402900010F074A1900011F074D2
:101F2B0001900012F07E3400070221FF120BE053E8
:101F3B00B57F53B67F7E34217A1222157E1422533D
:101F4B007E0400FF02220A900001E024DF680A14DD
:101F5B00680A0BB17809021C18021BE40221230248
:101F6B0021C91220797402900010F074C0900011F6
:101F7B00F0E4900012F07E3400070221FF12209251
:101F8B007402900010F074A4900011F0E490001211
:101F9B00F07E3400070221FF1220797402900010AA
:101FAB00F074C7900011F0E4900012F07E3400073B
:101FBB000221FF1220927402900010F074A0900086
:101FCB0011F0E4900012F07E3400070221FF122082
:101FDB00927402900010F074A3900011F0E4900042
:101FEB0012F07E3400070221FF1220797402900058
:101FFB0010F074C2900011F0E4900012F07E3400E7
:10200B00070221FF1220797402900010F074C19026
:10201B000011F0E4900012F07E3400070221FF1251
:10202B0020927402900010F074A1900011F0E490D3
:10203B000012F07E3400070221FF122092740290EE
:10204B000010F074A2900011F0E4900012F07E34B6
:10205B0000070221FFCAF80A5B2E540020121ACD8A
:10206B007CFB74146C77121A577CBFDAF822744F0E
:10207B0090000CF0744C90000DF0744590000EF035
:10208B00748090000FF022744C90000CF07443900D
:10209B00000DF0744490000EF0748090000FF0224D
:1020AB00743790000CF0745390000DF07445900051
:1020BB000EF0744790000FF022A9C7AF740E7E701C
:1020CB0001121A5774146C77121A57C200A9D7AFA2
:1020DB0022CA797D7380077E3403E8121E027D3796
:1020EB001B744D3378F1DA792275ED02226D007590
:1020FB00ED022275ED04226D0075ED042275ED06DF
:10210B00227D237E3417707D131B147D3178F87D6F
:10211B00121B147D2178EC22900092E0B4040990FC
:10212B000000E0BEB02168030221C90221F2122097
:10213B00927401900010F074A6900011F07E3400A0
:10214B00060221FF1220797401900010F074C390E5
:10215B000011F07E3400060221FF7CA77C7B0A5A1B
:10216B002E540020121D2274117E7001021A577E0C
:10217B0014004C7E040001900008E00A3B02000EA4
:10218B0074039000D3F074117E7040121A57021131
:10219B00521214AD9F007E3422657E2400FF020094
:1021AB00CE53C1F7E5C154F84403F5C143C1202216
:1021BB0074049000D3F074117E7040021A577405AA
:1021CB009000D3F074117E7060021A576D33800249
:1021DB000B347E0BB00B1470F722800343C11090AD
:1021EB000092E0B404F622E49000D3F074117E70F8
:1021FB0048021A577E14000C7E04000102000E9058
:10220B00008C791E00021BEA002290000A1BEA30A8
:10221B002275ED3E220221C90221C90221C92830B3
:10222B0029000002010188000000010100090000E3
:10223B000201000A0000000401008C00FF225C0078
:10224B0002010090000000004053544349535023B7
:0C225B000040535443495350230030000E
:00000001FF
