:10000000021BE6740E6C77121F7C7411122065308F
:10001000E04F9000D6691E00020BEA007420121F08
:10002000F20A1B9000D40BEA209D211BEA209000CD
:10003000D6693E00020BEA202D31793E00021BEA10
:10004000209000D40BEA304D33780E74117E704846
:10005000121F7CE49000D3F02274117E7040021FC6
:100060007C2222021862900000E0B48024900003F9
:10007000E0701E900002E07018900005E070129091
:100080000004E0700C9000060BEA30BE34000168FA
:1000900003022756900092E0B4040A7E3416F07EE4
:1000A0002400FF80087E3416EE7E2400FF9000D6E8
:1000B000793E00021BEA207E3400019000D41BEA46
:1000C000300227279000901BEA30220216FA7F7038
:1000D0007F517EC400017ED4015C7E9400E1020168
:1000E0003D4005E47A7BB0227A7BB00B7C227F70A6
:1000F0007F519001880BEAC069DE00027E94010303
:1001000002013D4005E47A7BB0227A7BB00B7C2271
:10011000540F2490D43440D430F30CBEB041400787
:10012000BEB05B500224204CCC68021BC00B84D3B1
:1001300089944CCC680B742012012780F5CA3B6D62
:10014000889F337CAE7E5BB00B5C7007C37D38DA72
:100150003B8994B42569C2F37E5BB00B5CA5F8249F
:10016000D0BEB00A501B7E500A20F60DAC5CA52D07
:100170007CCB70034EF00180DDAC5DA52D7CDB8077
:10018000D524CFBEB01AA5E850055E00DFD2F390AB
:100190000512A3E4936011BCB078F77417934CABCD
:1001A00030F6B34EF08080AEA3E4936010BCB0781C
:1001B000F77416937C3B7423937C2B89147CB0805A
:1001C00013742012012720F205BEC00250F31B6DEC
:1001D00029B600011201270201321B6E69160002C6
:1001E0000B6A00BE08000078087E0400FF7E14271A
:1001F000B020F21E4CCC681A7F10E47E1B804C8825
:1002000068070B1C04BCBD78F2C2F6CA0B120311BE
:10021000DA0B7E0BB060C0CA0B120127DA0B0B0C95
:100220004CDD68EE1BD078EA80ADD2F07E101080F5
:10023000037E10085EB05F800AD2F67E100A800549
:100240007E100AC2F66D119F117E00201B6C7E6B22
:100250007030F6021A3720F1051B6C7E6B6030F6A9
:10026000041A261A2430F0051B6D0B6A20A5EC3306
:1002700082F692F6500A7CEA9F229F217F127CAE82
:100280004C44780F7C457C567C676C772E00F87860
:10029000EF80122F117CB3337C3B9CB140047C3B3C
:1002A0000B70A5D8EE7CB230E005DAB8C44C3BCA7E
:1002B000380B207E00207E3000BE18000078C1BEC2
:1002C0001008780730F404C2F480B5CA287CB2BCA8
:1002D000BD38027CBD120311DA28BC2D500A1BD098
:1002E000E4CA2812011080F07CB213DAB84004C4CA
:1002F000CAB8C4CA28BEF08040095CDD7805A5DA1A
:100300000260065EF07F120110DA28A5DADA020137
:1003100032BEF001680F30F402240220F50620F707
:100320000330F6010420F229BCBC5025CAB87CBFBA
:1003300013B0E67420501174307C8A5E80F0680837
:100340001203515EA00F8003120127DAB8BCBC78FB
:10035000DB30F40F7430120127745830F3027478D4
:1003600012012730F605742D020127742B20F5F8B1
:10037000742020F7F3221B6C7E6BB010F1021B6C13
:1003800020F60B30E704F404D2F27CCB800520E7A2
:10039000057CDB0201565EF07F80F81B6E6916005B
:1003A000020B6A0030F0076D221B0A200B0D1B0A9E
:1003B00080020141E46C22BE3007500B7F1F2D31BB
:1003C0002E34FFF77E39B0227CBF20E7A8742E4E72
:1003D000F0800201271204FB403D7CBD7003047CC9
:1003E000DB1206127C3D4C3368101B307CBE20E4CF
:1003F000091203B470044C3378F07CBD7CD3BEA0EA
:10040000FD481CBCAB5818E49CBA2CB31801E47C22
:10041000DB02049C1204FB406E7CBD041206127ABF
:10042000FBA07CAE7CBDA2F492F0C2F4400260015D
:100430000424051203117E30FF0B301203B4CA38B6
:1004400012011020F0044CDD68031203C8DA38BC36
:100450003D78E6740E120110742B7EFBA030F70776
:10046000742D6EA0FF0BA07AFBA01201277EA00ABC
:100470007EFBB0847AFBA01201107EFBB01201104B
:100480009EF80008020132D2F27ED0000201F11281
:1004900004FB40F37CBA2CBD041206127AFBA07C4C
:1004A000BA7CAE30E701E40420F4044CDD6805D2E8
:1004B000F0C2F4042CBD1203116C337EFBB0601B40
:1004C00020E712147AFBB01203B4CA38120110DA12
:1004D000380B3080E6047AFBB01B301203B4CA3804
:1004E0001201104CDD68071203C81BD080E19EF892
:1004F000000930F0031203C80201327CEA7CAF101D
:10050000F7037ED0067CFA1B6E693600020B6A2068
:1005100002055A2D2B204C4248232E0053584F449D
:10052000494355502A4E46454700042080010200A9
:100530001040DA2C313939C6402A769B8F14D50108
:100540000202020201020203030404034E614E0090
:100550002B494E46002D494E46007D522D557CBEFE
:1005600092E67CEB7CBA601F0470287CB5C2E77E03
:100570000400FF60067E14054CD3227E140555400E
:10058000047E140550D322DA099F22CA2BCA2BC33A
:10059000CA09220A0A7E144D10AD109E083AF09E38
:1005A00010267CB5C2E77EA0567C9BA46E54FFFF4C
:1005B0002E54C511ACA92D15E4A539CAB8CA1B2003
:1005C000E70A1207A6DA1B1206F5800AF4041207DE
:1005D000A6DA1B120655DAA87CB5337CB4334E502C
:1005E000806C4424822F111478FBDA497407BE40D2
:1005F0000A40099E400ACA0201140BA0CA486C4472
:100600002F117F012F112F112F101478EFCA48CA14
:1006100049227F0F20E73ABEB007400274070A0B59
:100620002D109E1400097E19B02EB0FB501F4C11E6
:100630006817E47A19B01B147E19B0047A19B0B4A3
:100640000A0BE47A19B0A5D9ED0BA074017A19B0A0
:10065000225EE0BF225D22680D5D0078122D220B24
:100660004068099F11222D000B0078F902081A1228
:1006700007DD5C800B806808248150072CB0500A8D
:100680000208222CB0400302081F7C8B5D117826E3
:100690007CB17CA5BE1080680A5D33780DA5BD8055
:1006A000057F1002080C6D0080307F017C5B7CB1FF
:1006B0007CA5AD1280245D337806A5BD80F080E175
:1006C000CA887D41AD437CB17CA5AD122D1450028A
:1006D0000B047C5BAD232F01DA88A42D05BE0080BE
:1006E00040060B80780480982F007C437C507C610E
:1006F0007C720207F6BE24FFFF6806BE04FFFF7887
:100700000302081A1207DD5CB00468F57CB8A5483E
:1007100068EF7CB870039F1122A5B800030208227D
:100720002E008150079C80380702081F9C8050EDE6
:100730000A51C2E74D51780302080C7E5400807EB6
:10074000901A6C0080061B9068142F11BF10400493
:100750009F104CAB0330E7EECAA86CAA80E8DA39E8
:10076000DA587C4ABE5080500A1B8068BC2F11505A
:10077000020B700207F63F8000004120000042C8D3
:100780000000447A0000461C400047C350004974F2
:1007900024004B1896804CBEBC205A0E1BCA6753CF
:1007A000C21C749DC5AE7C7B60065407681623236B
:1007B0001207CB7CB75438680A7F101207C812069C
:1007C000557F01227CB7543803241C6CAA2E540791
:1007D000767E4400FF0B2A0069120002222D00924F
:1007E000D50E104E10807D422D445002B2D54E5091
:1007F000806C447CB8222C4450120B1C7E40005E5E
:10080000507FBE18000078040B806816A2D57CB813
:10081000137C4B7CB592E77C5B227E1CFFFF229F02
:1008200011227E24FF8020D5026C456D33227E3458
:10083000FEB67E24007E7E1BB054FC44037A1BB0BF
:100840007E1BB054F3440C7A1BB07E1BB054CF44D3
:10085000307A1BB07E34FBF47E1BB054FC7A1BB0A4
:100860007E34FEE27E1BB054F87A1BB0E47E34FE88
:10087000F07A1BB07E34FEF17A1BB074037E34FE36
:10088000F27A1BB074E77E34FEF37A1BB07E34FE3E
:10089000E07E1BB044807A1BB0E47E34FEEE7A1B0F
:1008A000B07E34FEEF7A1BB07E34FEEC7E1BB0547B
:1008B000FE7A1BB07E14FEE87E04007E7E0BB054F0
:1008C000FC7A0BB07E1BB044017A1BB074257E34D9
:1008D00001F4120D0A7E34FEE87E24007E7E1BB0F9
:1008E000548F44607A1BB07E1BB044087A1BB07EE4
:1008F00034FEEC7E1BB054FD7A1BB07E14FEB57E38
:1009000004007E7E0BB044017A0BB07E1BB054EF26
:100910007A1BB07E14FEE97E0BB054FC7A0BB07EDD
:100920001BB044107A1BB074267E3401F4120D0AF9
:100930007E34FEE97E24007E7E1BB0548F44607AB4
:100940001BB07E1BB044087A1BB07E34FEEC7E1BCD
:10095000B054DF7A1BB07E34FEB57E1BB044047AFF
:100960001BB07E34FEED7E1BB054FE7A1BB07E14AD
:10097000FEEA7E04007E7E0BB054FC7A0BB07E1B38
:10098000B044017A1BB074277E3401F4120D0A7E44
:1009900034FEEA7E24007E7E1BB0548F44607A1BB6
:1009A000B07E1BB044087A1BB07E34FEED7E1BB0D7
:1009B00054FD7A1BB07E34FEB57E1BB044107A1B0A
:1009C000B07E34FEFD7E1BB044807A1BB07E34FBCB
:1009D000F47E1BB054FC44037A1BB07E1BB054FB66
:1009E0007A1BB074601221A27C7B4E70017460028D
:1009F00022C8CAF89000007EEBF07CBF5480B4801F
:100A000018900003E07032900002E0702C90000615
:100A10000BEA30BE3400026803020AF67CBF540FB2
:100A200014681B14683C0BB16803020AF6900005B9
:100A3000E07006900004E0601E020AF68019900043
:100A400092E0B4040F900005E06003020AF6900003
:100A500004E06003020AF67E3416EE7E2400FF02F4
:100A60000ADE900092E0B40406900005E060030204
:100A70000AF69000047EEB707CA75EA00F1B7068E6
:100A8000342E707F68040B70786C7E2400017CBA71
:100A900060053E241478FB9000DAE00A3B5D326882
:100AA0000A7E3416F07E2400FF80337E3416EE7EFC
:100AB0002400FF80297E2400017CBA60053E2414B6
:100AC00078FB9000DBE00A3B5D32680A7E3416F06A
:100AD0007E2400FF80087E3416EE7E2400FF900006
:100AE000D6793E00021BEA207E3400029000D41B1F
:100AF000EA30800780001227568003122727DAF891
:100B0000227C7B24EFBEB0184003020C097EA003B8
:100B1000A4900B1573020B5D020B72020B86020B85
:100B20009A020C09020C09020C09020C09020C09B8
:100B3000020C09020C09020C09020C09020C090240
:100B40000C09020C09020C09020C09020C09020C26
:100B500009020BAE020BC2020BD6020BEA7E34FE78
:100B6000D57E24007E7E1B707CA7E47E34FED602F8
:100B70000BFC7E34FED77E24007E7E1B707CA7E4B7
:100B80007E34FED880767E34FED97E24007E7E1BA5
:100B9000707CA7E47E34FEDA80627E34FEDB7E2445
:100BA000007E7E1B707CA7E47E34FEDC804E7E34AB
:100BB000FEF57E24007E7E1B707CA7E47E34FEF66C
:100BC000803A7E34FEF77E24007E7E1B707CA7E494
:100BD0007E34FEF880267E34FEF97E24007E7E1B65
:100BE000707CA7E47E34FEFA80127E34FEFB7E2405
:100BF000007E7E1B707CA7E47E34FEFC7E24007E9B
:100C00007E1B700A474D4580026D447D3422CA79AF
:100C1000740E7E7001121F7C74141220657CFB30F0
:100C2000E60874147E7080121F7C7CBF20E00302F3
:100C30000D077E14004C7E0400017421121FF290F7
:100C40000008F090008C693E00020BEA204D2378EA
:100C500003020CEA6CFF020CDF900009E01A3B90E3
:100C6000008C691E00020BEA002D317D207E1BA046
:100C70000A4F2E44004C7A91827A81837EEBE0BC4D
:100C8000EA784090000904F0900009E01A3B2D3109
:100C90007D207E1BB0704674146C77121F7CE47E3E
:100CA00034FE007E24007E7A1BB075F40053DCF025
:100CB0007E34FE077A1BB07E34000A12267875C790
:100CC0006080FE90008C693E00020BEA207E1B7063
:100CD000BCE7780474018001E4900009F00BF09007
:100CE0000008E0BCFB5003020C59D20090000A0B34
:100CF000EA304D33681190000A0BEA3099347414CD
:100D00006C77121F7CC200DA79227D0324EFBEB01B
:100D1000184003020E047EA003A4900D1E73020D62
:100D200066020D7A020D8D020DA0020E04020E0461
:100D3000020E04020E04020E04020E04020E04024D
:100D40000E04020E04020E04020E04020E04020E31
:100D500004020E04020E04020E04020DB3020DC6BC
:100D6000020DD9020DEC7E34FED57E24007E7A1B66
:100D7000007C317E34FED6020DFD7E34FED77E240B
:100D8000007E7A1B007C317E34FED880707E34FE7B
:100D9000D97E24007E7A1B007C317E34FEDA805DB1
:100DA0007E34FEDB7E24007E7A1B007C317E34FEA6
:100DB000DC804A7E34FEF57E24007E7A1B007C3186
:100DC0007E34FEF680377E34FEF77E24007E7A1B6A
:100DD000007C317E34FEF880247E34FEF97E2400CF
:100DE0007E7A1B007C317E34FEFA80117E34FEFB5D
:100DF0007E24007E7A1B007C317E34FEFC7E240043
:100E00007E7A1B3022CA3B7C7B24EFBEB0184003A5
:100E1000020EDE7EA003A4900E1B73020E63020E70
:100E200070020E7D020E8A020EDE020EDE020EDE61
:100E3000020EDE020EDE020EDE020EDE020EDE020A
:100E40000EDE020EDE020EDE020EDE020EDE020EEE
:100E5000DE020EDE020EDE020E9A020EAA020EBAAA
:100E6000020ECA74551221717CEB6CFF74568025FA
:100E700074571221717CEB6CFF74588018745912EE
:100E800021717CEB6CFF745A800B745B1221717CB6
:100E9000EB6CFF745C122171803E74751221A27C90
:100EA000EB6CFF74761221A2802E74771221A27C43
:100EB000EB6CFF74781221A2801E74791221A27C3F
:100EC000EB6CFF747A1221A2800E747B1221A27C3B
:100ED000EB6CFF747C1221A20A6B4D6780026D6679
:100EE0007D36DA3B2274017E34FE0B7E24007E7A4E
:100EF0001BB07E34FE907A1BB07E34FE947A1BB019
:100F00007E34FE917A1BB07E34FE927A1BB07E3422
:100F1000FE937A1BB07E34FE047E1BB044807A1BA5
:100F2000B07E34FE047E24007E7E1BB030E0F27E74
:100F300034FE077E24007E7E1BB044807A1BB07E88
:100F400034FE077E24007E7E1BB030E0F2740A7E01
:100F500034FE017E24007E7A1BB07E34FDEC7E1BC5
:100F6000B0F59F7E34FDF77E1BB0F5A6E59D54FCE1
:100F70004402F59D7E34FE007E1BB054FC7A1BB00B
:100F80007E1BB044807A1BB0E5DC549F4420F5DC26
:100F900043DC807E3400011226A87E34FE007E24CD
:100FA000007E7E1BB054F344047A1BB074047E149C
:100FB000FE017E04007E7A0BB07E1BB054BF7A1B0C
:100FC000B022900000E05480BEB080680302107030
:100FD000900003E01BB168221468370BB16803026C
:100FE00010707E3416997E2400FF9000D6793E0062
:100FF000021BEA207E340012806C7E3416AB7E2405
:1010000000FF9000D6793E00021BEA207E340043A8
:101010008054900002E014681F1468340BB17850BB
:101020007E3416957E2400FF9000D6793E00021B88
:10103000EA207E340004802E7E3416F27E2400FFE7
:101040009000D6793E00021BEA207E34000880160C
:101050007E3416777E2400FF9000D6793E00021B76
:10106000EA207E34001E9000D41BEA308005800008
:101070000227569000060BEA309000D40BEA20BD00
:101080002328069000D41BEA30022727CA797D73F3
:1010900024EFBEB018400302114A7EA003A49010B2
:1010A000A2730210EA0210F502110002110B0211E4
:1010B0004A02114A02114A02114A02114A02114A15
:1010C00002114A02114A02114A02114A02114A024D
:1010D000114A02114A02114A02114A02114A02112E
:1010E0001B02112602113102113C74550A3E1222D4
:1010F000A37456801F74570A3E1222A3745880149A
:1011000074590A3E1222A3745A8009745B0A3E1273
:1011100022A3745C7C7F1222A3802F74750A3E1276
:1011200022C87476801F74770A3E1222C8747880B1
:101130001474790A3E1222C8747A8009747B0A3EBC
:101140001222C8747C7C7F1222C8DA7922CA3B90B2
:1011500001641BEA307F30900092E0B40402800307
:101160000212056D339001671BEA307E34138890BC
:1011700001691BEA30A9C7AF740E7E7001121F7C93
:10118000741112206530E019A9D7AF7E34000A121D
:1011900023B99001690BEA301B341BEA3068668082
:1011A000D49001640BEA30BE3400400804744080DF
:1011B000027CB7900166F0A9C7AFC202740E7E70C0
:1011C00001121F7C9001670BEA307F032D13900101
:1011D00066E07E7001122701D202A9D7AF900166A6
:1011E000E00A2B9001670BEA302D321BEA309001A8
:1011F000640BEA309D321BEA30900166E0BEB040DD
:10120000400302116BDA3B2253B2FC43B1037480FA
:101210007E34FE077E24007E7A1BB07E34FE077E7D
:1012200024007E7E1BB030E0F253DCF075F490E4D5
:101230006C77121F7C74017E7008121F7C74077E0D
:10124000703F121F7C74097E703F121F7C740B7EEE
:101250007007121F7C74016C77121F7C740290005F
:1012600092F0E49000D3F09000DAF09000DBF0C24E
:10127000027E3401007E2400C290016B793E0002A0
:101280001BEA2090016FF0900170F07408900171DA
:10129000F0A9D7AF740190018EF090018EE070112B
:1012A0009F11900188793E00021BEA209F000200F6
:1012B000EE22CA3B9001771BEA307F306D339001FC
:1012C0007A0213497438900179F09001770BEA5053
:1012D000BE5400385004900179F01226159001791F
:1012E000E00A5B2E540003900010F074CF900011C0
:1012F000F090017A0BEA107E3400127E2400011B6C
:101300001A10900179E00A3BCA397F137E14001449
:101310007E0400011222ED1BFD900179E00A3B2EB4
:101320003400080A3712277F900179E00A3B2D73B9
:10133000900179E00A2B90017A0BEA302D321BEAFA
:10134000309001770BEA309D321BEA309001770B29
:10135000EA304D3368030212C4DA3B22CA3B9001E3
:10136000721BEA307F306D339001750213F37438CD
:10137000900174F09001720BEA50BE540038500492
:10138000900174F012262E900174E00A5B2E540036
:1013900003900010F074AF900011F09001750BEA0B
:1013A000107E3400127E2400011B1A10900174E09C
:1013B0000A3BCA397F137E1400147E0400011222F6
:1013C000ED1BFD900174E00A3B2E3400080A371231
:1013D000277F900174E00A3B2D73900174E00A2B83
:1013E0009001750BEA302D321BEA309001720BEA46
:1013F000309D321BEA309001720BEA304D336803A6
:1014000002136EDA3B22900092E0BEB00268229096
:101410000000E0701C900003E07016900005E07082
:1014200010900004E0700A9000060BEA304D33681B
:1014300003022756900002E0B4015F74049000920A
:10144000F0E49000DAF09000DBF0740E7E70011290
:101450001F7C74127E7020121F7C74107E70081224
:101460001F7C740E7E7002121F7C74127E7020121C
:101470001F7C74107E7008121F7C740E7E70011227
:101480001F7C74126C77121F7C74137E7008121FFD
:101490007C740E6C77121F7C80107403900092F0A5
:1014A00074FF9000DAF09000DBF002277290009257
:1014B000E0B40429900000E0B40222900005E0604E
:1014C0000302154B900003E0600302154B900002ED
:1014D000E070789000060BEA304D336802806C9023
:1014E00000047EEB607C765E700F1B60682E2E60C1
:1014F0007F68040B6078547E2400017CB760053E51
:10150000241478FB7C656E60FF9000DAE05CB6F036
:10151000740E121F7C74117E704080237E240001A3
:101520007CB760053E241478FB7C656E60FF9000FC
:10153000DBE05CB6F0740E121F7C74147E708012B7
:101540001F7C740E6C77121F7C80030227560227C3
:1015500072900092E0B40423900000E0B4021C906A
:101560000005E0707A900003E07074900002E07073
:101570006E9000060BEA304D3368028062900004E2
:101580007EEB607C765E700F1B6068292E607F6842
:10159000040B60784A7E2400017CB760053E241469
:1015A00078FB9000DAE04CB5F0740E121F7C7411D9
:1015B0007E7010801E7E2400017CB760053E2414DE
:1015C00078FB9000DBE04CB5F0740E121F7C7414B5
:1015D0007E7020121F7C740E6C77121F7C800302B9
:1015E0002756022772CAF8740E6C77121F7C74118A
:1015F0001220657CFB30E20F74117C7F5E70FB1261
:101600001F7CE49000D3F07CBF30E40A74117C7F2F
:101610004E7080121F7C9000D3E024FD684E146849
:10162000500BB2784F7CBF30E04A7E1400007E043D
:1016300000017420121FF29000060BEA3012202CD9
:101640009000061BEA30900000E0546024E0680D32
:1016500024E0680E2440780F12192A80171224EE15
:1016600080121227AC800D122756800812177A803C
:1016700003120003DAF8221E035300540043002033
:1016800000550053004200200053006500720069BD
:101690000061006C00040309041201000202000052
:1016A00040BF3402FF0001010200010902430002B1
:1016B000010080320904000001020201000524003B
:1016C0001001052401000104240202052406000182
:1016D000070582034000FF09040100020A00000020
:1016E00007058102400000070501024000000000DC
:1016F00001000803530054004300CA7BCA6BCA5B55
:10170000CA4BCA3BCA2BCA1BCA0BC0D0C083C082FB
:101710007EF1FC74061220657CEB74021220657C5D
:10172000CB74041220657CDB7CBE30E1031227AF52
:101730007CBE30E203121B547CBC30E0031215E582
:101740007CBC30E103121E867CBC30E2031221D344
:101750007CBD30E103120C0E7CBE30E0031200624F
:101760007AF1FCD082D083D0D0DA0BDA1BDA2BDA14
:101770003BDA4BDA5BDA6BDA7B32CAF8740E6C77E1
:10178000121F7C741112206520E1679000D40BEACF
:1017900030BE34004028057EF04080027CF7900087
:1017A000D6691E00020BEA007C7F74201222510AC7
:1017B0002F9000D40BEA309D321BEA300A159000BE
:1017C000D6693E00020BEA202D31793E00021BEA69
:1017D000209000D40BEA304D33780F74117E700ADC
:1017E000121F7CE49000D3F0800874117E70021206
:1017F0001F7CDAF82290015C1BEA20793E00027E11
:1018000034015F7E2400017E1B307E3401607E2423
:1018100000017A1B307E34015E7E2400017E1B3085
:101820007E3401617E2400017A1B307E34015D7EAE
:101830002400017E1B307E3401627E2400017A1B6D
:10184000307E34015C7E2400017E1B307E340163D7
:101850007E2400017A1B30900160693E00020BEA91
:101860002022CA7BCA6BCA5BCA4BCA2BCA1BCA0BD3
:10187000C0D0C083C08290017E0BEA300B341BEADB
:101880003090017C0BEA300B341BEA3090017E0B68
:10189000EA30BE3403E840206D3390017E1BEA300D
:1018A000B2C27425120E052E340064BE3403E7283C
:1018B000026D33742512108CD082D083D0D0DA0B15
:1018C000DA1BDA2BDA4BDA5BDA6BDA7B32CA799025
:1018D00001041BEA00791E0002122647745390008F
:1018E00010F0E4900011F0900012F0900013F07EE0
:1018F0003401047E240001900188793E00021BEA35
:10190000207E1400147E040001900104693E000250
:101910000BEA201200EE7D732E7400087D370B3425
:101920000A3712277F7D37DA7922900001E0BEB0B6
:101930000D50507EA003A490193B73021962021946
:101940006502198302196802198302196B02196E64
:1019500002197102197402197702197A02197D02AB
:1019600019800209F20214AD021551021A25020F64
:10197000C20227A6020066021406021B9E0221FE76
:101980000227A9022756CA3B7F707CF57CE67CD7EC
:101990007CCBCA7B0A366D222F110A1F6D001226DE
:1019A00090DA0B12135C12262E7405900010F0745E
:1019B000A8900011F09000127AEBC09000137AEB1F
:1019C000D09000147AEBE09000157AEBF07E3400B2
:1019D0000A12277FDA3B22A9D7BA75E90075EA0017
:1019E000759300759400759100759200759500755A
:1019F000960075B10075B20075B30075B40075C975
:101A00000075CA0075CB0075CC0075E10075E20069
:101A1000120EE5122795D2AFC2C2121C2D12239BC3
:101A200012237B80FECAF8900000E070279000052A
:101A3000E07021900004E0701B900003E0701590AE
:101A400000027EEBF0BEF080500A9000060BEA30F8
:101A50004D3368051227568017E47C7F121F7C4C9B
:101A6000FF6804740380027402900092F0122772DF
:101A7000DAF822CAF87CFBBEF03B28037EF03B7408
:101A80004C90000CF0744590000DF0744490000EE2
:101A9000F0742890000FF09000107AEBF00A3FCA23
:101AA000397F107E1400117E0400011222ED1BFD0F
:101AB0000A3F2E3400050A3712277FDAF822CAF8C7
:101AC0007CFBBEF03B28037EF03B744C90000CF096
:101AD000744590000DF0744490000EF07440900036
:101AE0000FF09000107AEBF00A3FCA397F107E1495
:101AF00000117E0400011222ED1BFD0A3F2E34006E
:101B0000050A3712277FDAF822CAF87CFB90018495
:101B10001BEA20793E0002122647744C900010F018
:101B20007401900011F09000127AEBF0E490001331
:101B3000F0900184691E00020BEA007E3400147EDE
:101B4000240001791100021B1A007E34000C1227B8
:101B50007FDAF822E46C77121F7C7402900092F016
:101B6000E49000D3F0C202740E7E7001121F7C74E8
:101B7000117E7048121F7C740E7E7002121F7C74DE
:101B8000117E7048121F7C740E7E7001121F7C74CF
:101B9000147E7090121F7C740E6C77021F7C900074
:101BA00092E0B4041F900000E0B48118900003E0BC
:101BB0007012900005E0700C9000060BEA30BE3405
:101BC000000168030227567E3416EE7E2400FF9043
:101BD00000D6793E00021BEA207E3400019000D43A
:101BE0001BEA300227277584017E44041FE47A49EA
:101BF000B01B4478F97EF800207E0400FF7E142795
:101C0000B40B0A405D446822295000020A2569305D
:101C100000032E0800050B44800A7E0BB07A1BB02F
:101C20000B1C0B0C1B4478F280D702273875C8FFB9
:101C300053CA0F53C90F43CA0F53C9F0E47E34FE91
:101C40004D7E24007E7A1BB07E34FE157A1BB07E5A
:101C500034FE457A1BB07E34FE1D7A1BB07E34FE06
:101C6000257A1BB07E34FE2D7A1BB07E34FE357A89
:101C70001BB0227CA77C7B744C90000CF0744590C8
:101C8000000DF0744490000EF0742890000FF07472
:101C900002900010F07CB754077E44000160053EBE
:101CA000441478FB7CB9900011F09000127AEBA0FC
:101CB0007E34000702277F7CA77C7B744C90000C4D
:101CC000F0744590000DF0744490000EF074409054
:101CD000000FF07402900010F07CB754077E4400AF
:101CE0000160053E441478FB7CB9900011F090002F
:101CF000127AEBA07E34000702277F7C6B744C9035
:101D0000000CF0744590000DF0744490000EF074D7
:101D10002890000FF07402900010F0E4900011F091
:101D20007CB65407C40354F87C6B4E60807CB75477
:101D3000074CB6900012F07E34000702277F7C6BC0
:101D4000744C90000CF0744590000DF074449000B9
:101D50000EF0744090000FF07402900010F0E490C8
:101D60000011F07CB65407C40354F87C6B4E6080BD
:101D70007CB754074CB6900012F07E34000702275F
:101D80007FCA3B7CF57CE67CD77CCB7C7EAC7F122B
:101D900012B21226157405900010F074C89000114C
:101DA000F09000127AEBC09000137AEBD090001400
:101DB0007AEBE09000157AEBF07E34000A12277F70
:101DC000DA3B22CA3B7F3090018D7AEB7090018C18
:101DD000F01227640B347F0312135C12262E740357
:101DE000900010F074A7900011F090018CE090002A
:101DF00012F090018DE0900013F07E34000812275D
:101E00007FDA3B227C6B744C90000CF074459000A0
:101E10000DF0744490000EF0742890000FF07402DE
:101E2000900010F0E4900011F05E60077CB6C403EF
:101E300054F87C6B7CB754074CB6900012F07E349B
:101E4000000702277F7C6B744C90000CF074459067
:101E5000000DF0744490000EF0744090000FF07488
:101E600002900010F0E4900011F05E60077CB6C4B0
:101E70000354F87C6B7CB754074CB6900012F07E8C
:101E800034000702277FCAF8740E7E7001121F7C8F
:101E900074111220657CFB30E50874117E704012CD
:101EA0001F7C7CBF30E20774116C77121F7C90009E
:101EB000900BEA304D3368089000900BEA3099346B
:101EC000C202DAF822CA799001301BEA00791E00BA
:101ED000027E3401307E240001900188793E0002A8
:101EE0001BEA207E14000C7E040001900130693E44
:101EF00000020BEA201200EE7D730A3712277F7D65
:101F000037DA7922CA3B7D727CCB12261574069093
:101F10000010F074C6900011F07401900012F0905F
:101F200000137AEBC09000147AEB707E3400157EBB
:101F30002400011B1A707E34000B12277FDA3B222B
:101F4000CA3B7D727CCB1226157406900010F0748B
:101F5000C6900011F07402900012F09000137AEB1A
:101F6000C09000147AEB707E3400157E2400011BB3
:101F70001A707E34000B12277FDA3B227CA77C7B11
:101F8000E5FC20E7FB7CB7547FF5FC000000000077
:101F90000000000000000000000000000000000041
:101FA0000000000000000000000000000000000031
:101FB0000000007AA1EC22CA3B7D727CCB12261570
:101FC0007406900010F074C6900011F0E4900012B6
:101FD000F09000137AEBC09000147AEB707E34001E
:101FE000157E2400011B1A707E34000B12277FDA45
:101FF0003B22CA3B7F30CAB80BFD74161220657AAB
:10200000FBB039BFFFFF800C29BFFFFE1220657AAD
:102010003BB00B747EFBA07CBA147AFBB04CAA7860
:10202000E729BFFFFF9EF80003DA3B229001801BE7
:10203000EA307E3401817E2400017E1B307E340133
:10204000827E2400017A1B307E3401807E240001D0
:102050007E1B307E3401837E2400017A1B30900188
:10206000820BEA30227CABE5FC20E7FB7CBA4480A3
:10207000F5FC00000000000000000000000000006F
:102080000000000000000000000000000000000050
:1020900000000000000000000000E5EC22CA3B1236
:1020A00026477443900010F0E4900011F090001265
:1020B000F0900013F07E340008CA397F107E1400BF
:1020C000147E0400011222ED1BFD7E340010122745
:1020D0007FDA3B22CA3B7F311226477444900010BE
:1020E000F07401900011F0E4900012F0900013F0F1
:1020F0007E3400147E240001797100021B1A607E78
:1021000034000C12277FDA3B22900092E0B40409DD
:10211000900000E0BEB0A168030227567E34016B38
:102120007E2400019000D6793E00021BEA20900038
:10213000060BEA309000D41BEA3002272790009269
:10214000E0B40409900000E0BEB021680302275605
:102150007E34016B7E2400019000D6793E00021B84
:10216000EA209000060BEA309000D41BEA300227E8
:10217000487CAB7E34FBF17E24007E7E1BB020E7E2
:10218000F27CBA44807A1BB07E34FBF17E24007E60
:102190007E1BB020E7F27E34FBF27E24007E7E1BA5
:1021A000B0227CAB7E34FBF57E24007E7E1BB0200B
:1021B000E7F27CBA44807A1BB07E34FBF57E2400C3
:1021C0007E7E1BB020E7F27E34FBF67E24007E7E0E
:1021D0001BB022CAF8740E7E7002121F7C7411129A
:1021E00020657CFB30E50874117E7040121F7C7CFA
:1021F000BF30E20774116C77121F7CDAF82290006E
:1022000092E0B4041D900000E0B40116900003E0D9
:102210007010900005E0700A9000060BEA304D3314
:1022200068030227560227727D2300000000000089
:10223000000000000000000000000000000000009E
:1022400000000000000000007D321B347D2378DA9E
:1022500022CA3BCA787F30CAB8800B7EFBB07E3B77
:10226000700B74121F7C29AFFFFF7CBA1439BFFFBB
:10227000FF4CAA78E61BFDDA3B22CAF87CFB12264B
:102280002E7403900010F074A3900011F07402906B
:102290000012F09000137AEBF07E34000812277FD2
:1022A000DAF8227CA77C3B7E34FBF17E24007E7E24
:1022B0001BB020E7F27EF4FBF27EE4007E7A7BA086
:1022C0007CB3547F7A1BB0227CA77C3B7E34FBF529
:1022D0007E24007E7E1BB020E7F27EF4FBF67EE4D7
:1022E000007E7A7BA07CB3547F7A1BB0227F217F53
:1022F000707F10800A7E2B307A1B300B540B3469B0
:102300001FFFFD7D011B04790FFFFD4D1178E67F56
:102310001722CAF87CFB1226157402900010F07484
:10232000C5900011F09000127AEBF07E3400071295
:10233000277FDAF822CAF87CFB1226157402900077
:1023400010F074C4900011F09000127AEBF07E341B
:10235000000712277FDAF822CAF87CFB12262E74B7
:1023600002900010F074A5900011F09000127AEB2A
:10237000F07E34000712277FDAF822538EF7438E5F
:102380000443AF0474017E34FEA27E24007E7A1BD7
:10239000B075D6B975D7B0438E102212082E7425A9
:1023A0007E34032012108C74267E34032012108C8D
:1023B00074277E34032002108C801200000000007D
:1023C000000000000000000000000000007D231B52
:1023D000344D2278E6221226157402900010F07413
:1023E000C7900011F07401900012F07E34000702D3
:1023F000277F1226157402900010F074C09000110F
:10240000F07401900012F07E34000702277F12263C
:102410002E7402900010F074A3900011F0740190DB
:102420000012F07E34000702277F12262E740290DD
:102430000010F074A4900011F07401900012F07E6E
:1024400034000702277F1226157402900010F074E2
:10245000C2900011F07401900012F07E3400070267
:10246000277F12262E7402900010F074A2900011A3
:10247000F07402900012F07E34000702277F1226CB
:10248000157402900010F074C1900011F074019066
:102490000012F07E34000702277F12262E7402906D
:1024A0000010F074A0900011F07401900012F07E02
:1024B00034000702277F12262E7402900010F07459
:1024C000A2900011F07401900012F07E3400070217
:1024D000277F12262E7402900010F074A190001134
:1024E000F07401900012F07E34000702277F900004
:1024F00001E024DF680A14680A0BB1780902213D63
:102500000221090226BF02275612261574029000E6
:1025100010F074C0900011F0E4900012F07E3400CE
:102520000702277F12262E7402900010F074A490E8
:102530000011F0E4900012F07E34000702277F12B1
:1025400026157402900010F074C7900011F0E4900A
:102550000012F07E34000702277F12262E740290AC
:102560000010F074A0900011F0E4900012F07E349E
:10257000000702277F12262E7402900010F074A329
:10258000900011F0E4900012F07E34000702277FE3
:102590001226157402900010F074C2900011F0E43D
:1025A000900012F07E34000702277F122615740275
:1025B000900010F074C1900011F0E4900012F07ED1
:1025C00034000702277F12262E7402900010F07448
:1025D000A1900011F0E4900012F07E340007022771
:1025E0007F12262E7402900010F074A2900011F059
:1025F000E4900012F07E34000702277FCAF80A5BDD
:102600002E540020121FF27CFB74146C77121F7C76
:102610007CBFDAF822744F90000CF0744C90000DDF
:10262000F0744590000EF0748090000FF022744C0E
:1026300090000CF0744390000DF0744490000EF084
:10264000748090000FF022743790000CF074539057
:10265000000DF0744590000EF0744790000FF022CA
:10266000A9C7AF740E7E7001121F7C74146C7712B0
:102670001F7CC200A9D7AF22CA797D7380077E3440
:1026800003E81223B97D371B744D3378F1DA7922D0
:1026900075ED02226D0075ED022275ED04226D00CC
:1026A00075ED042275ED06227D237E3417707D13AF
:1026B0001B147D3178F87D121B147D2178EC22905B
:1026C0000092E0B40409900000E0BEB0216803026B
:1026D000275602277212262E7401900010F074A65D
:1026E000900011F07E34000602277F122615740137
:1026F000900010F074C3900011F07E3400060227A1
:102700007F7CA77C7B0A5A2E540020122251741120
:102710007E7001021F7C7E14004C7E04000190003C
:1027200008E00A3B02114D74039000D3F074117E4F
:102730007040121F7C02177A1219D79F007E34272F
:10274000EA7E2400FF0200CE74049000D3F07411DE
:102750007E7040021F7C74059000D3F074117E706F
:1027600060021F7C6D3380020B347E0BB00B147043
:10277000F722E49000D3F074117E7048021F7C7E33
:1027800014000C7E04000102114D90008C791E0093
:10279000021BEA00221212087E34271602279F909D
:1027A000000A1BEA30220227560227560227562229
:1027B00028302900000201017C0000000201017E96
:1027C0000000000101000900000201000A000000F1
:1027D0000401008C00FF27E10002010090000000CE
:0C27E00000405354434953502300300084
:00000001FF
