:10000000021BF1740E6C77121F877411122070306E
:10001000E04F9000D6691E00020BEA007420121F08
:10002000FD0A1B9000D40BEA209D211BEA209000C2
:10003000D6693E00020BEA202D31793E00021BEA10
:10004000209000D40BEA304D33780E74117E704846
:10005000121F87E49000D3F02274117E7040021FBB
:100060008722220217F5900000E0B480249000035C
:10007000E0701E900002E07018900005E070129091
:100080000004E0700C9000060BEA30BE34000168FA
:1000900003022761900092E0B4040A7E3416F07ED9
:1000A0002400FF80087E3416EE7E2400FF9000D6E8
:1000B000793E00021BEA207E3400019000D41BEA46
:1000C000300227329000901BEA30220216FA7F702D
:1000D0007F517EC400017ED4015C7E9400E1020168
:1000E0003D4005E47A7BB0227A7BB00B7C227F70A6
:1000F0007F519001880BEAC069DE00027E94010303
:1001000002013D4005E47A7BB0227A7BB00B7C2271
:10011000540F2490D43440D430F30CBEB041400787
:10012000BEB05B500224204CCC68021BC00B84D3B1
:1001300089944CCC680B742012012780F5CA3B6D62
:10014000889F337CAE7E5BB00B5C7007C37D38DA72
:100150003B8994B42569C2F37E5BB00B5CA5F8249F
:10016000D0BEB00A501B7E500A20F60DAC5CA52D07
:100170007CCB70034EF00180DDAC5DA52D7CDB8077
:10018000D524CFBEB01AA5E850055E00DFD2F390AB
:100190000512A3E4936011BCB078F77417934CABCD
:1001A00030F6B34EF08080AEA3E4936010BCB0781C
:1001B000F77416937C3B7423937C2B89147CB0805A
:1001C00013742012012720F205BEC00250F31B6DEC
:1001D00029B600011201270201321B6E69160002C6
:1001E0000B6A00BE08000078087E0400FF7E14271A
:1001F000BB20F21E4CCC681A7F10E47E1B804C881A
:1002000068070B1C04BCBD78F2C2F6CA0B120311BE
:10021000DA0B7E0BB060C0CA0B120127DA0B0B0C95
:100220004CDD68EE1BD078EA80ADD2F07E101080F5
:10023000037E10085EB05F800AD2F67E100A800549
:100240007E100AC2F66D119F117E00201B6C7E6B22
:100250007030F6021A3720F1051B6C7E6B6030F6A9
:10026000041A261A2430F0051B6D0B6A20A5EC3306
:1002700082F692F6500A7CEA9F229F217F127CAE82
:100280004C44780F7C457C567C676C772E00F87860
:10029000EF80122F117CB3337C3B9CB140047C3B3C
:1002A0000B70A5D8EE7CB230E005DAB8C44C3BCA7E
:1002B000380B207E00207E3000BE18000078C1BEC2
:1002C0001008780730F404C2F480B5CA287CB2BCA8
:1002D000BD38027CBD120311DA28BC2D500A1BD098
:1002E000E4CA2812011080F07CB213DAB84004C4CA
:1002F000CAB8C4CA28BEF08040095CDD7805A5DA1A
:100300000260065EF07F120110DA28A5DADA020137
:1003100032BEF001680F30F402240220F50620F707
:100320000330F6010420F229BCBC5025CAB87CBFBA
:1003300013B0E67420501174307C8A5E80F0680837
:100340001203515EA00F8003120127DAB8BCBC78FB
:10035000DB30F40F7430120127745830F3027478D4
:1003600012012730F605742D020127742B20F5F8B1
:10037000742020F7F3221B6C7E6BB010F1021B6C13
:1003800020F60B30E704F404D2F27CCB800520E7A2
:10039000057CDB0201565EF07F80F81B6E6916005B
:1003A000020B6A0030F0076D221B0A200B0D1B0A9E
:1003B00080020141E46C22BE3007500B7F1F2D31BB
:1003C0002E34FFF77E39B0227CBF20E7A8742E4E72
:1003D000F0800201271204FB403D7CBD7003047CC9
:1003E000DB1206127C3D4C3368101B307CBE20E4CF
:1003F000091203B470044C3378F07CBD7CD3BEA0EA
:10040000FD481CBCAB5818E49CBA2CB31801E47C22
:10041000DB02049C1204FB406E7CBD041206127ABF
:10042000FBA07CAE7CBDA2F492F0C2F4400260015D
:100430000424051203117E30FF0B301203B4CA38B6
:1004400012011020F0044CDD68031203C8DA38BC36
:100450003D78E6740E120110742B7EFBA030F70776
:10046000742D6EA0FF0BA07AFBA01201277EA00ABC
:100470007EFBB0847AFBA01201107EFBB01201104B
:100480009EF80008020132D2F27ED0000201F11281
:1004900004FB40F37CBA2CBD041206127AFBA07C4C
:1004A000BA7CAE30E701E40420F4044CDD6805D2E8
:1004B000F0C2F4042CBD1203116C337EFBB0601B40
:1004C00020E712147AFBB01203B4CA38120110DA12
:1004D000380B3080E6047AFBB01B301203B4CA3804
:1004E0001201104CDD68071203C81BD080E19EF892
:1004F000000930F0031203C80201327CEA7CAF101D
:10050000F7037ED0067CFA1B6E693600020B6A2068
:1005100002055A2D2B204C4248232E0053584F449D
:10052000494355502A4E46454700042080010200A9
:100530001040DA2C313939C6402A769B8F14D50108
:100540000202020201020203030404034E614E0090
:100550002B494E46002D494E46007D522D557CBEFE
:1005600092E67CEB7CBA601F0470287CB5C2E77E03
:100570000400FF60067E14054CD3227E140555400E
:10058000047E140550D322DA099F22CA2BCA2BC33A
:10059000CA09220A0A7E144D10AD109E083AF09E38
:1005A00010267CB5C2E77EA0567C9BA46E54FFFF4C
:1005B0002E54C511ACA92D15E4A539CAB8CA1B2003
:1005C000E70A1207A6DA1B1206F5800AF4041207DE
:1005D000A6DA1B120655DAA87CB5337CB4334E502C
:1005E000806C4424822F111478FBDA497407BE40D2
:1005F0000A40099E400ACA0201140BA0CA486C4472
:100600002F117F012F112F112F101478EFCA48CA14
:1006100049227F0F20E73ABEB007400274070A0B59
:100620002D109E1400097E19B02EB0FB501F4C11E6
:100630006817E47A19B01B147E19B0047A19B0B4A3
:100640000A0BE47A19B0A5D9ED0BA074017A19B0A0
:10065000225EE0BF225D22680D5D0078122D220B24
:100660004068099F11222D000B0078F902081A1228
:1006700007DD5C800B806808248150072CB0500A8D
:100680000208222CB0400302081F7C8B5D117826E3
:100690007CB17CA5BE1080680A5D33780DA5BD8055
:1006A000057F1002080C6D0080307F017C5B7CB1FF
:1006B0007CA5AD1280245D337806A5BD80F080E175
:1006C000CA887D41AD437CB17CA5AD122D1450028A
:1006D0000B047C5BAD232F01DA88A42D05BE0080BE
:1006E00040060B80780480982F007C437C507C610E
:1006F0007C720207F6BE24FFFF6806BE04FFFF7887
:100700000302081A1207DD5CB00468F57CB8A5483E
:1007100068EF7CB870039F1122A5B800030208227D
:100720002E008150079C80380702081F9C8050EDE6
:100730000A51C2E74D51780302080C7E5400807EB6
:10074000901A6C0080061B9068142F11BF10400493
:100750009F104CAB0330E7EECAA86CAA80E8DA39E8
:10076000DA587C4ABE5080500A1B8068BC2F11505A
:10077000020B700207F63F8000004120000042C8D3
:100780000000447A0000461C400047C350004974F2
:1007900024004B1896804CBEBC205A0E1BCA6753CF
:1007A000C21C749DC5AE7C7B60065407681623236B
:1007B0001207CB7CB75438680A7F101207C812069C
:1007C000557F01227CB7543803241C6CAA2E540791
:1007D000767E4400FF0B2A0069120002222D00924F
:1007E000D50E104E10807D422D445002B2D54E5091
:1007F000806C447CB8222C4450120B1C7E40005E5E
:10080000507FBE18000078040B806816A2D57CB813
:10081000137C4B7CB592E77C5B227E1CFFFF229F02
:1008200011227E24FF8020D5026C456D33227E3458
:10083000FEB67E24007E7E1BB054FC44037A1BB0BF
:100840007E1BB054F3440C7A1BB07E1BB054CF44D3
:10085000307A1BB07E34FBF47E1BB054FC7A1BB0A4
:100860007E34FEE27E1BB054F87A1BB0E47E34FE88
:10087000F07A1BB07E34FEF17A1BB074037E34FE36
:10088000F27A1BB074E77E34FEF37A1BB07E34FE3E
:10089000E07E1BB044807A1BB0E47E34FEEE7A1B0F
:1008A000B07E34FEEF7A1BB07E34FEEC7E1BB0547B
:1008B000FE7A1BB07E14FEE87E04007E7E0BB054F0
:1008C000FC7A0BB07E1BB044017A1BB074257E34D9
:1008D00001F4120D0A7E34FEE87E24007E7E1BB0F9
:1008E000548F44607A1BB07E1BB044087A1BB07EE4
:1008F00034FEEC7E1BB054FD7A1BB07E14FEB57E38
:1009000004007E7E0BB044017A0BB07E1BB054EF26
:100910007A1BB07E14FEE97E0BB054FC7A0BB07EDD
:100920001BB044107A1BB074267E3401F4120D0AF9
:100930007E34FEE97E24007E7E1BB0548F44607AB4
:100940001BB07E1BB044087A1BB07E34FEEC7E1BCD
:10095000B054DF7A1BB07E34FEB57E1BB044047AFF
:100960001BB07E34FEED7E1BB054FE7A1BB07E14AD
:10097000FEEA7E04007E7E0BB054FC7A0BB07E1B38
:10098000B044017A1BB074277E3401F4120D0A7E44
:1009900034FEEA7E24007E7E1BB0548F44607A1BB6
:1009A000B07E1BB044087A1BB07E34FEED7E1BB0D7
:1009B00054FD7A1BB07E34FEB57E1BB044107A1B0A
:1009C000B07E34FEFD7E1BB044807A1BB07E34FBCB
:1009D000F47E1BB054FC44037A1BB07E1BB054FB66
:1009E0007A1BB074601221AD7C7B4E700174600282
:1009F00022D3CAF89000007EEBF07CBF5480B48014
:100A000018900003E07032900002E0702C90000615
:100A10000BEA30BE3400026803020AF67CBF540FB2
:100A200014681B14683C0BB16803020AF6900005B9
:100A3000E07006900004E0601E020AF68019900043
:100A400092E0B4040F900005E06003020AF6900003
:100A500004E06003020AF67E3416EE7E2400FF02F4
:100A60000ADE900092E0B40406900005E060030204
:100A70000AF69000047EEB707CA75EA00F1B7068E6
:100A8000342E707F68040B70786C7E2400017CBA71
:100A900060053E241478FB9000DAE00A3B5D326882
:100AA0000A7E3416F07E2400FF80337E3416EE7EFC
:100AB0002400FF80297E2400017CBA60053E2414B6
:100AC00078FB9000DBE00A3B5D32680A7E3416F06A
:100AD0007E2400FF80087E3416EE7E2400FF900006
:100AE000D6793E00021BEA207E3400029000D41B1F
:100AF000EA30800780001227618003122732DAF87B
:100B0000227C7B24EFBEB0184003020C097EA003B8
:100B1000A4900B1573020B5D020B72020B86020B85
:100B20009A020C09020C09020C09020C09020C09B8
:100B3000020C09020C09020C09020C09020C090240
:100B40000C09020C09020C09020C09020C09020C26
:100B500009020BAE020BC2020BD6020BEA7E34FE78
:100B6000D57E24007E7E1B707CA7E47E34FED602F8
:100B70000BFC7E34FED77E24007E7E1B707CA7E4B7
:100B80007E34FED880767E34FED97E24007E7E1BA5
:100B9000707CA7E47E34FEDA80627E34FEDB7E2445
:100BA000007E7E1B707CA7E47E34FEDC804E7E34AB
:100BB000FEF57E24007E7E1B707CA7E47E34FEF66C
:100BC000803A7E34FEF77E24007E7E1B707CA7E494
:100BD0007E34FEF880267E34FEF97E24007E7E1B65
:100BE000707CA7E47E34FEFA80127E34FEFB7E2405
:100BF000007E7E1B707CA7E47E34FEFC7E24007E9B
:100C00007E1B700A474D4580026D447D3422CA79AF
:100C1000740E7E7001121F8774141220707CFB30DA
:100C2000E60874147E7080121F877CBF20E00302E8
:100C30000D077E14004C7E0400017421121FFD90EC
:100C40000008F090008C693E00020BEA204D2378EA
:100C500003020CEA6CFF020CDF900009E01A3B90E3
:100C6000008C691E00020BEA002D317D207E1BA046
:100C70000A4F2E44004C7A91827A81837EEBE0BC4D
:100C8000EA784090000904F0900009E01A3B2D3109
:100C90007D207E1BB0704674146C77121F87E47E33
:100CA00034FE007E24007E7A1BB075F40053DCF025
:100CB0007E34FE077A1BB07E34000A12268375C785
:100CC0006080FE90008C693E00020BEA207E1B7063
:100CD000BCE7780474018001E4900009F00BF09007
:100CE0000008E0BCFB5003020C59D20090000A0B34
:100CF000EA304D33681190000A0BEA3099347414CD
:100D00006C77121F87C200DA79227D0324EFBEB010
:100D1000184003020E047EA003A4900D1E73020D62
:100D200066020D7A020D8D020DA0020E04020E0461
:100D3000020E04020E04020E04020E04020E04024D
:100D40000E04020E04020E04020E04020E04020E31
:100D500004020E04020E04020E04020DB3020DC6BC
:100D6000020DD9020DEC7E34FED57E24007E7A1B66
:100D7000007C317E34FED6020DFD7E34FED77E240B
:100D8000007E7A1B007C317E34FED880707E34FE7B
:100D9000D97E24007E7A1B007C317E34FEDA805DB1
:100DA0007E34FEDB7E24007E7A1B007C317E34FEA6
:100DB000DC804A7E34FEF57E24007E7A1B007C3186
:100DC0007E34FEF680377E34FEF77E24007E7A1B6A
:100DD000007C317E34FEF880247E34FEF97E2400CF
:100DE0007E7A1B007C317E34FEFA80117E34FEFB5D
:100DF0007E24007E7A1B007C317E34FEFC7E240043
:100E00007E7A1B3022CA3B7C7B24EFBEB0184003A5
:100E1000020EDE7EA003A4900E1B73020E63020E70
:100E200070020E7D020E8A020EDE020EDE020EDE61
:100E3000020EDE020EDE020EDE020EDE020EDE020A
:100E40000EDE020EDE020EDE020EDE020EDE020EEE
:100E5000DE020EDE020EDE020E9A020EAA020EBAAA
:100E6000020ECA745512217C7CEB6CFF74568025EF
:100E7000745712217C7CEB6CFF74588018745912E3
:100E8000217C7CEB6CFF745A800B745B12217C7CA0
:100E9000EB6CFF745C12217C803E74751221AD7C7A
:100EA000EB6CFF74761221AD802E74771221AD7C2D
:100EB000EB6CFF74781221AD801E74791221AD7C29
:100EC000EB6CFF747A1221AD800E747B1221AD7C25
:100ED000EB6CFF747C1221AD0A6B4D6780026D666E
:100EE0007D36DA3B2274017E34FE0B7E24007E7A4E
:100EF0001BB07E34FE907A1BB07E34FE947A1BB019
:100F00007E34FE917A1BB07E34FE927A1BB07E3422
:100F1000FE937A1BB07E34FE047E1BB044807A1BA5
:100F2000B07E34FE047E24007E7E1BB030E0F27E74
:100F300034FE077E24007E7E1BB044807A1BB07E88
:100F400034FE077E24007E7E1BB030E0F2740A7E01
:100F500034FE017E24007E7A1BB07E34FDEC7E1BC5
:100F6000B0F59F7E34FDF77E1BB0F5A6E59D54FCE1
:100F70004402F59D7E34FE007E1BB054FC7A1BB00B
:100F80007E1BB044807A1BB0E5DC549F4420F5DC26
:100F900043DC807E3400011226B37E34FE007E24C2
:100FA000007E7E1BB054F344047A1BB074047E149C
:100FB000FE017E04007E7A0BB07E1BB054BF7A1B0C
:100FC000B022900000E05480BEB080680302107030
:100FD000900003E01BB168221468370BB16803026C
:100FE00010707E3416997E2400FF9000D6793E0062
:100FF000021BEA207E340012806C7E3416AB7E2405
:1010000000FF9000D6793E00021BEA207E340043A8
:101010008054900002E014681F1468340BB17850BB
:101020007E3416957E2400FF9000D6793E00021B88
:10103000EA207E340004802E7E3416F27E2400FFE7
:101040009000D6793E00021BEA207E34000880160C
:101050007E3416777E2400FF9000D6793E00021B76
:10106000EA207E34001E9000D41BEA308005800008
:101070000227619000060BEA309000D40BEA20BDF5
:101080002328069000D41BEA30022732CA797D73E8
:1010900024EFBEB018400302114A7EA003A49010B2
:1010A000A2730210EA0210F502110002110B0211E4
:1010B0004A02114A02114A02114A02114A02114A15
:1010C00002114A02114A02114A02114A02114A024D
:1010D000114A02114A02114A02114A02114A02112E
:1010E0001B02112602113102113C74550A3E1222D4
:1010F000AE7456801F74570A3E1222AE7458801484
:1011000074590A3E1222AE745A8009745B0A3E1268
:1011100022AE745C7C7F1222AE802F74750A3E1260
:1011200022D37476801F74770A3E1222D37478809B
:101130001474790A3E1222D3747A8009747B0A3EB1
:101140001222D3747C7C7F1222D3DA7922CA3B909C
:1011500001641BEA307F30900092E0B40402800307
:101160000212056D339001671BEA307E34138890BC
:1011700001691BEA30A9C7AF740E7E7001121F8788
:10118000741112207030E019A9D7AF7E34000A1212
:1011900023C49001690BEA301B341BEA3068668077
:1011A000D49001640BEA30BE3400400804744080DF
:1011B000027CB7900166F0A9C7AFC202740E7E70C0
:1011C00001121F879001670BEA307F032D139001F6
:1011D00066E07E700112270CD202A9D7AF9001669B
:1011E000E00A2B9001670BEA302D321BEA309001A8
:1011F000640BEA309D321BEA30900166E0BEB040DD
:10120000400302116BDA3B2253B2FC43B1037480FA
:101210007E34FE077E24007E7A1BB07E34FE077E7D
:1012200024007E7E1BB030E0F253DCF075F490E4D5
:101230006C77121F8774017E7008121F8774077EF7
:10124000703F121F8774097E703F121F87740B7ED8
:101250007007121F8774016C77121F877402900049
:1012600092F0E49000D3F09000DAF09000DBF0C24E
:10127000027E3401007E2400C290016B793E0002A0
:101280001BEA2090016FF0900170F07408900171DA
:10129000F0A9D7AF740190018EF090018EE070112B
:1012A0009F11900188793E00021BEA209F000200F6
:1012B000EE22CA3B9001771BEA307F306D339001FC
:1012C0007A0213497438900179F09001770BEA5053
:1012D000BE5400385004900179F012262090017914
:1012E000E00A5B2E540003900010F074CF900011C0
:1012F000F090017A0BEA107E3400127E2400011B6C
:101300001A10900179E00A3BCA397F137E14001449
:101310007E0400011222F81BFD900179E00A3B2EA9
:101320003400080A3712278A900179E00A3B2D73AE
:10133000900179E00A2B90017A0BEA302D321BEAFA
:10134000309001770BEA309D321BEA309001770B29
:10135000EA304D3368030212C4DA3B22CA3B9001E3
:10136000721BEA307F306D339001750213F37438CD
:10137000900174F09001720BEA50BE540038500492
:10138000900174F0122639900174E00A5B2E54002B
:1013900003900010F074AF900011F09001750BEA0B
:1013A000107E3400127E2400011B1A10900174E09C
:1013B0000A3BCA397F137E1400147E0400011222F6
:1013C000F81BFD900174E00A3B2E3400080A371226
:1013D000278A900174E00A3B2D73900174E00A2B78
:1013E0009001750BEA302D321BEA309001720BEA46
:1013F000309D321BEA309001720BEA304D336803A6
:1014000002136EDA3B22900092E0BEB00268229096
:101410000000E0701C900003E07016900005E07082
:1014200010900004E0700A9000060BEA304D33681B
:1014300003022761900002E0B4015F7404900092FF
:10144000F0E49000DAF09000DBF0740E7E70011290
:101450001F8774127E7020121F8774107E7008120E
:101460001F87740E7E7002121F8774127E70201206
:101470001F8774107E7008121F87740E7E70011211
:101480001F8774126C77121F8774137E7008121FE7
:1014900087740E6C77121F8780107403900092F08F
:1014A00074FF9000DAF09000DBF002277D9000924C
:1014B000E0B40429900000E0B40222900005E0604E
:1014C0000302154B900003E0600302154B900002ED
:1014D000E070789000060BEA304D336802806C9023
:1014E00000047EEB607C765E700F1B60682E2E60C1
:1014F0007F68040B6078547E2400017CB760053E51
:10150000241478FB7C656E60FF9000DAE05CB6F036
:10151000740E121F8774117E704080237E24000198
:101520007CB760053E241478FB7C656E60FF9000FC
:10153000DBE05CB6F0740E121F8774147E708012AC
:101540001F87740E6C77121F8780030227610227A2
:101550007D900092E0B40423900000E0B4021C905F
:101560000005E0707A900003E07074900002E07073
:101570006E9000060BEA304D3368028062900004E2
:101580007EEB607C765E700F1B6068292E607F6842
:10159000040B60784A7E2400017CB760053E241469
:1015A00078FB9000DAE04CB5F0740E121F877411CE
:1015B0007E7010801E7E2400017CB760053E2414DE
:1015C00078FB9000DBE04CB5F0740E121F877414AA
:1015D0007E7020121F87740E6C77121F87800302A3
:1015E000276102277DCAF8740E6C77121F87741169
:1015F0001220707CFB30E20F74117C7F5E70FB1256
:101600001F87E49000D3F07CBF30E40A74117C7F24
:101610004E7080121F879000D3E024FD684E14683E
:10162000500BB2784F7CBF30E04A7E1400007E043D
:1016300000017420121FFD9000060BEA30122037C3
:101640009000061BEA30900000E0546024E0680D32
:1016500024E0680E2440780F12193580171225EC0B
:1016600080121227B7800D122761800812177A8026
:1016700003120003DAF8221E035300540043002033
:1016800000550053004200200053006500720069BD
:101690000061006C00040309041201000202000052
:1016A00040BF3402FF0001010200010902430002B1
:1016B000010080320904000001020201000524003B
:1016C0001001052401000104240202052406000182
:1016D000070582034000FF09040100020A00000020
:1016E00007058102400000070501024000000000DC
:1016F00001000803530054004300CA7BCA6BCA5B55
:10170000CA4BCA3BCA2BCA1BCA0BC0D0C083C082FB
:101710007EF1FC74061220707CEB74021220707C47
:10172000CB74041220707CDB7CBE30E1031227BA3C
:101730007CBE30E203121B5F7CBC30E0031215E577
:101740007CBC30E103121E917CBC30E2031221DE2E
:101750007CBD30E103120C0E7CBE30E0031200624F
:101760007AF1FCD082D083D0D0DA0BDA1BDA2BDA14
:101770003BDA4BDA5BDA6BDA7B32CAF8740E6C77E1
:10178000121F87741112207020E1679000D40BEAB9
:1017900030BE34004028057EF04080027CF7900087
:1017A000D6691E00020BEA007C7F742012225C0ABC
:1017B0002F9000D40BEA309D321BEA300A159000BE
:1017C000D6693E00020BEA202D31793E00021BEA69
:1017D000209000D40BEA304D33780F74117E700ADC
:1017E000121F87E49000D3F0800874117E700212FB
:1017F0001F87DAF822CA7BCA6BCA5BCA4BCA2BCADC
:101800001BCA0BC0D0C083C08290017E0BEA300B94
:10181000341BEA3090017C0BEA300B341BEA309029
:10182000017E0BEA30BE3403E8402B6D3390017E1D
:101830001BEA30B2C27425120E052E340064BE3489
:1018400003E728026D33742512108C7E1427EE7E78
:101850000400FF121ED0D082D083D0D0DA0BDA1B66
:10186000DA2BDA4BDA5BDA6BDA7B3290015C1BEA5B
:1018700020793E00027E34015F7E2400017E1B3011
:101880007E3401607E2400017A1B307E34015E7E4E
:101890002400017E1B307E3401617E2400017A1B0E
:1018A000307E34015D7E2400017E1B307E34016277
:1018B0007E2400017A1B307E34015C7E2400017E90
:1018C0001B307E3401637E2400017A1B309001605E
:1018D000693E00020BEA2022CA799001041BEA004B
:1018E000791E00021226527453900010F0E490000A
:1018F00011F0900012F0900013F07E3401047E2469
:101900000001900188793E00021BEA207E14001439
:101910007E040001900104693E00020BEA201200DF
:10192000EE7D732E7400087D370B340A3712278A38
:101930007D37DA7922900001E0BEB00D50507EA0D4
:1019400003A49019467302196D02197002198E02D0
:10195000197302198E02197602197902197C02197B
:101960007F02198202198502198802198B0209F275
:101970000214AD021551021A30020FC20227B10241
:101980000066021406021BA90222090227B40227DC
:1019900061CA3B7F707CF57CE67CD77CCBCA7B0A36
:1019A000366D222F110A1F6D0012269BDA0B1213BF
:1019B0005C1226397405900010F074A8900011F0A4
:1019C0009000127AEBC09000137AEBD09000147A5A
:1019D000EBE09000157AEBF07E34000A12278ADAE9
:1019E0003B22A9D7BA75E90075EA00759300759492
:1019F0000075910075920075950075960075B1009F
:101A000075B20075B30075B40075C90075CA00756C
:101A1000CB0075CC0075E10075E200120EE51227CF
:101A2000A0D2AFC2C2121C381223A612238680FE97
:101A3000CAF8900000E07027900005E07021900047
:101A400004E0701B900003E070159000027EEBF044
:101A5000BEF080500A9000060BEA304D3368051244
:101A600027618017E47C7F121F874CFF6804740392
:101A700080027402900092F012277DDAF822CAF8F0
:101A80007CFBBEF03B28037EF03B744C90000CF0D6
:101A9000744590000DF0744490000EF0742890008E
:101AA0000FF09000107AEBF00A3FCA397F107E14D5
:101AB00000117E0400011222F81BFD0A3F2E3400A3
:101AC000050A3712278ADAF822CAF87CFBBEF03BF7
:101AD00028037EF03B744C90000CF0744590000D90
:101AE000F0744490000EF0744090000FF0900010DD
:101AF0007AEBF00A3FCA397F107E1400117E040091
:101B0000011222F81BFD0A3F2E3400050A37122766
:101B10008ADAF822CAF87CFB9001841BEA20793E1D
:101B20000002122652744C900010F07401900011C3
:101B3000F09000127AEBF0E4900013F090018469C9
:101B40001E00020BEA007E3400147E24000179118D
:101B500000021B1A007E34000C12278ADAF822E4F5
:101B60006C77121F877402900092F0E49000D3F01B
:101B7000C202740E7E7001121F8774117E704812AB
:101B80001F87740E7E7002121F8774117E704812B8
:101B90001F87740E7E7001121F8774147E7090125E
:101BA0001F87740E6C77021F87900092E0B4041FA9
:101BB000900000E0B48118900003E07012900005DE
:101BC000E0700C9000060BEA30BE3400016803029E
:101BD00027617E3416EE7E2400FF9000D6793E0009
:101BE000021BEA207E3400019000D41BEA30022759
:101BF000327584017E44041FE47A49B01B4478F9AD
:101C00007EF800207E0400FF7E1427BF0B0A405D93
:101C1000446822295000020A25693000032E08007A
:101C2000050B44800A7E0BB07A1BB00B1C0B0C1BFF
:101C30004478F280D702274375C8FF53CA0F53C9AF
:101C40000F43CA0F53C9F0E47E34FE4D7E24007E5C
:101C50007A1BB07E34FE157A1BB07E34FE457A1BAB
:101C6000B07E34FE1D7A1BB07E34FE257A1BB07E1A
:101C700034FE2D7A1BB07E34FE357A1BB0227CA751
:101C80007C7B744C90000CF0744590000DF0744413
:101C900090000EF0742890000FF07402900010F085
:101CA0007CB754077E44000160053E441478FB7CF9
:101CB000B9900011F09000127AEBA07E3400070278
:101CC000278A7CA77C7B744C90000CF074459000B4
:101CD0000DF0744490000EF0744090000FF0740208
:101CE000900010F07CB754077E44000160053E442C
:101CF0001478FB7CB9900011F09000127AEBA07E72
:101D000034000702278A7C6B744C90000CF07445F9
:101D100090000DF0744490000EF0742890000FF0C5
:101D20007402900010F0E4900011F07CB65407C4E7
:101D30000354F87C6B4E60807CB754074CB690001F
:101D400012F07E34000702278A7C6B744C90000CE2
:101D5000F0744590000DF0744490000EF0744090C3
:101D6000000FF07402900010F0E4900011F07CB6C7
:101D70005407C40354F87C6B4E60807CB754074C06
:101D8000B6900012F07E34000702278ACA3B7CF529
:101D90007CE67CD77CCB7C7EAC7F1212B2122620F4
:101DA0007405900010F074C8900011F09000127A41
:101DB000EBC09000137AEBD09000147AEBE0900027
:101DC000157AEBF07E34000A12278ADA3B22CA3BEE
:101DD0007F3090018D7AEB7090018CF012276F0BA1
:101DE000347F0312135C1226397403900010F074D0
:101DF000A7900011F090018CE0900012F090018DFE
:101E0000E0900013F07E34000812278ADA3B227C2F
:101E10006B744C90000CF0744590000DF07444907D
:101E2000000EF0742890000FF07402900010F0E49F
:101E3000900011F05E60077CB6C40354F87C6B7CA4
:101E4000B754074CB6900012F07E34000702278A80
:101E50007C6B744C90000CF0744590000DF0744451
:101E600090000EF0744090000FF07402900010F09B
:101E7000E4900011F05E60077CB6C40354F87C6BFC
:101E80007CB754074CB6900012F07E34000702274E
:101E90008ACAF8740E7E7001121F877411122070A6
:101EA0007CFB30E50874117E7040121F877CBF30C8
:101EB000E20774116C77121F879000900BEA304D87
:101EC0003368089000900BEA309934C202DAF822A5
:101ED000CA799001301BEA00791E00027E3401307D
:101EE0007E240001900188793E00021BEA207E14C6
:101EF000000C7E040001900130693E00020BEA20D4
:101F00001200EE7D730A3712278A7D37DA7922CAEA
:101F10003B7D727CCB1226207406900010F074C6B4
:101F2000900011F07401900012F09000137AEBC051
:101F30009000147AEB707E3400157E2400011B1A89
:101F4000707E34000B12278ADA3B22CA3B7D727CFA
:101F5000CB1226207406900010F074C6900011F089
:101F60007402900012F09000137AEBC09000147A83
:101F7000EB707E3400157E2400011B1A707E340045
:101F80000B12278ADA3B227CA77C7BE5FC20E7FB4F
:101F90007CB7547FF5FC000000000000000000004A
:101FA0000000000000000000000000000000000031
:101FB00000000000000000000000000000007AA106
:101FC000EC22CA3B7D727CCB122620740690001056
:101FD000F074C6900011F0E4900012F09000137AB3
:101FE000EBC09000147AEB707E3400157E24000163
:101FF0001B1A707E34000B12278ADA3B22CA3B7F01
:1020000030CAB80BFD74161220707AFBB039BFFFCE
:10201000FF800C29BFFFFE1220707A3BB00B747E4C
:10202000FBA07CBA147AFBB04CAA78E729BFFFFF6B
:102030009EF80003DA3B229001801BEA307E3401D7
:10204000817E2400017E1B307E3401827E240001CB
:102050007A1B307E3401807E2400017E1B307E346A
:1020600001837E2400017A1B309001820BEA30222A
:102070007CABE5FC20E7FB7CBA4480F5FC0000006B
:102080000000000000000000000000000000000050
:102090000000000000000000000000000000000040
:1020A0000000000000E5EC22CA3B12265274439067
:1020B0000010F0E4900011F0900012F0900013F086
:1020C0007E340008CA397F107E1400147E0400019B
:1020D0001222F81BFD7E34001012278ADA3B22CA36
:1020E0003B7F311226527444900010F0740190002E
:1020F00011F0E4900012F0900013F07E3400147E92
:10210000240001797100021B1A607E34000C122732
:102110008ADA3B22900092E0B40409900000E0BE0D
:10212000B0A168030227617E34016B7E2400019018
:1021300000D6793E00021BEA209000060BEA3090A0
:1021400000D41BEA30022732900092E0B4040990D8
:102150000000E0BEB02168030227617E34016B7E7F
:102160002400019000D6793E00021BEA2090000670
:102170000BEA309000D41BEA300227537CAB7E344C
:10218000FBF17E24007E7E1BB020E7F27CBA448007
:102190007A1BB07E34FBF17E24007E7E1BB020E7EC
:1021A000F27E34FBF27E24007E7E1BB0227CAB7E6E
:1021B00034FBF57E24007E7E1BB020E7F27CBA441F
:1021C000807A1BB07E34FBF57E24007E7E1BB0201F
:1021D000E7F27E34FBF67E24007E7E1BB022CAF836
:1021E000740E7E7002121F8774111220707CFB30F7
:1021F000E50874117E7040121F877CBF30E20774BF
:10220000116C77121F87DAF822900092E0B4041D57
:10221000900000E0B40116900003E07010900005FB
:10222000E0700A9000060BEA304D33680302276124
:1022300002277D7D23000000000000000000000058
:10224000000000000000000000000000000000008E
:102250000000007D321B347D2378DA22CA3BCA7825
:102260007F30CAB8800B7EFBB07E3B700B74121FB0
:102270008729AFFFFF7CBA1439BFFFFF4CAA78E66D
:102280001BFDDA3B22CAF87CFB122639740390004E
:1022900010F074A3900011F07402900012F09000FE
:1022A000137AEBF07E34000812278ADAF8227CA732
:1022B0007C3B7E34FBF17E24007E7E1BB020E7F267
:1022C0007EF4FBF27EE4007E7A7BA07CB3547F7ABE
:1022D0001BB0227CA77C3B7E34FBF57E24007E7EF7
:1022E0001BB020E7F27EF4FBF67EE4007E7A7BA052
:1022F0007CB3547F7A1BB0227F217F707F10800ACD
:102300007E2B307A1B300B540B34691FFFFD7D018F
:102310001B04790FFFFD4D1178E67F1722CAF87C68
:10232000FB1226207402900010F074C5900011F08A
:102330009000127AEBF07E34000712278ADAF82236
:10234000CAF87CFB1226207402900010F074C4902E
:102350000011F09000127AEBF07E34000712278A09
:10236000DAF822CAF87CFB1226397402900010F0C9
:1023700074A5900011F09000127AEBF07E34000703
:1023800012278ADAF822538EF7438E0443AF04747F
:10239000017E34FEA27E24007E7A1BB075D6B9750C
:1023A000D7B0438E102212082E74257E34032012DB
:1023B000108C74267E34032012108C74277E340314
:1023C0002002108C801200000000000000000000BD
:1023D00000000000000000007D231B344D2278E641
:1023E000221226207402900010F074C7900011F0A1
:1023F0007401900012F07E34000702278A12262012
:102400007402900010F074C0900011F074019000FC
:1024100012F07E34000702278A12263974029000D7
:1024200010F074A3900011F07401900012F07E344B
:10243000000702278A1226397402900010F074A453
:10244000900011F07401900012F07E340007022712
:102450008A1226207402900010F074C2900011F0CD
:102460007401900012F07E34000702278A12263988
:102470007402900010F074A2900011F074029000A9
:1024800012F07E34000702278A1226207402900080
:1024900010F074C1900011F07401900012F07E34BD
:1024A000000702278A1226397402900010F074A0E7
:1024B000900011F07401900012F07E3400070227A2
:1024C0008A1226397402900010F074A2900011F064
:1024D0007401900012F07E34000702278A12263918
:1024E0007402900010F074A1900011F0740190003B
:1024F00012F07E34000702278A1226207402900010
:1025000010F074C0900011F0E4900012F07E3400DE
:102510000702278A1226397402900010F074A490E2
:102520000011F0E4900012F07E34000702278A12B6
:1025300026207402900010F074C7900011F0E4900F
:102540000012F07E34000702278A122639740290A6
:102550000010F074A0900011F0E4900012F07E34AE
:10256000000702278A1226397402900010F074A323
:10257000900011F0E4900012F07E34000702278AE8
:102580001226207402900010F074C2900011F0E442
:10259000900012F07E34000702278A12262074026F
:1025A000900010F074C1900011F0E4900012F07EE1
:1025B00034000702278A1226397402900010F07442
:1025C000A1900011F0E4900012F07E340007022781
:1025D0008A1226397402900010F074A2900011F053
:1025E000E4900012F07E34000702278A900001E098
:1025F00024DF680A14680A0BB17809022148022115
:10260000140226F6022761CAF80A5B2E5400201233
:102610001FFD7CFB74146C77121F877CBFDAF822D5
:10262000744F90000CF0744C90000DF074459000C5
:102630000EF0748090000FF022744C90000CF07437
:102640004390000DF0744490000EF0748090000FE1
:10265000F022743790000CF0745390000DF0744524
:1026600090000EF0744790000FF022A9C7AF740ECF
:102670007E7001121F8774146C77121F87C200A925
:10268000D7AF22CA797D7380077E3403E81223C452
:102690007D371B744D3378F1DA792275ED02226DA6
:1026A0000075ED022275ED04226D0075ED042275B2
:1026B000ED06227D237E3417707D131B147D317847
:1026C000F87D121B147D2178EC22122639740190BA
:1026D0000010F074A6900011F07E34000602278AE4
:1026E0001226207401900010F074C3900011F07E47
:1026F00034000602278A900092E0B404099000009A
:10270000E0BEB021680302276102277D7CA77C7BA5
:102710000A5A2E54002012225C74117E7001021F8E
:10272000877E14004C7E040001900008E00A3B0202
:10273000114D74039000D3F074117E7040121F8706
:1027400002177A1219E29F007E3427EC7E2400FFE4
:102750000200CE74049000D3F074117E7040021F0A
:102760008774059000D3F074117E7060021F876D2E
:102770003380020B347E0BB00B1470F722E4900010
:10278000D3F074117E7048021F877E14000C7E0403
:10279000000102114D90008C791E00021BEA0022FC
:1027A0001212087E3427210227AA90000A1BEA3061
:1027B00022022761022761022761222830290000B6
:1027C0000201017C0000000201017E000000010105
:1027D000000900000201000A0000000401008C0052
:1027E000FF27FB0002010090000000003000486558
:1027F0006C6C6F20555342210D0A004053544349DD
:04280000535023000E
:00000001FF
