:100000000216D1CA3B9001641BEA307F3090009207
:10001000E0B4040280030200BB6D339001671BEA69
:10002000307E3413889001691BEA30A9C7AF740E83
:100030007E7001121A217411121B0A30E019A9D71F
:10004000AF7E34000A121DA59001690BEA301B3403
:100050001BEA30686680D49001640BEA30BE34003D
:10006000400804744080027CB7900166F0A9C7AFD5
:10007000C202740E7E7001121A219001670BEA30E1
:100080007F032D13900166E07E7001122105D202DC
:10009000A9D7AF900166E00A2B9001670BEA302DDB
:1000A000321BEA309001640BEA309D321BEA30903B
:1000B0000166E0BEB0404003020021DA3B2280032B
:1000C00043C110900092E0B404F6220210F87F7051
:1000D0007F517EC400017ED4015C7E9400E1020168
:1000E0003D4005E47A7BB0227A7BB00B7C227F70A6
:1000F0007F519001840BEAC069DE00027E94010307
:1001000002013D4005E47A7BB0227A7BB00B7C2271
:10011000540F2490D43440D430F30CBEB041400787
:10012000BEB05B500224204CCC68021BC00B84D3B1
:1001300089944CCC680B742012012780F5CA3B6D62
:10014000889F337CAE7E5BB00B5C7007C37D38DA72
:100150003B8994B42569C2F37E5BB00B5CA5F8249F
:10016000D0BEB00A501B7E500A20F60DAC5CA52D07
:100170007CCB70034EF00180DDAC5DA52D7CDB8077
:10018000D524CFBEB01AA5E850055E00DFD2F390AB
:100190000512A3E4936011BCB078F77417934CABCD
:1001A00030F6B34EF08080AEA3E4936010BCB0781C
:1001B000F77416937C3B7423937C2B89147CB0805A
:1001C00013742012012720F205BEC00250F31B6DEC
:1001D00029B600011201270201321B6E69160002C6
:1001E0000B6A00BE08000078087E0400FF7E142120
:1001F000C120F21E4CCC681A7F10E47E1B804C8814
:1002000068070B1C04BCBD78F2C2F6CA0B120311BE
:10021000DA0B7E0BB060C0CA0B120127DA0B0B0C95
:100220004CDD68EE1BD078EA80ADD2F07E101080F5
:10023000037E10085EB05F800AD2F67E100A800549
:100240007E100AC2F66D119F117E00201B6C7E6B22
:100250007030F6021A3720F1051B6C7E6B6030F6A9
:10026000041A261A2430F0051B6D0B6A20A5EC3306
:1002700082F692F6500A7CEA9F229F217F127CAE82
:100280004C44780F7C457C567C676C772E00F87860
:10029000EF80122F117CB3337C3B9CB140047C3B3C
:1002A0000B70A5D8EE7CB230E005DAB8C44C3BCA7E
:1002B000380B207E00207E3000BE18000078C1BEC2
:1002C0001008780730F404C2F480B5CA287CB2BCA8
:1002D000BD38027CBD120311DA28BC2D500A1BD098
:1002E000E4CA2812011080F07CB213DAB84004C4CA
:1002F000CAB8C4CA28BEF08040095CDD7805A5DA1A
:100300000260065EF07F120110DA28A5DADA020137
:1003100032BEF001680F30F402240220F50620F707
:100320000330F6010420F229BCBC5025CAB87CBFBA
:1003300013B0E67420501174307C8A5E80F0680837
:100340001203515EA00F8003120127DAB8BCBC78FB
:10035000DB30F40F7430120127745830F3027478D4
:1003600012012730F605742D020127742B20F5F8B1
:10037000742020F7F3221B6C7E6BB010F1021B6C13
:1003800020F60B30E704F404D2F27CCB800520E7A2
:10039000057CDB0201565EF07F80F81B6E6916005B
:1003A000020B6A0030F0076D221B0A200B0D1B0A9E
:1003B00080020141E46C22BE3007500B7F1F2D31BB
:1003C0002E34FFF77E39B0227CBF20E7A8742E4E72
:1003D000F0800201271204FB403D7CBD7003047CC9
:1003E000DB1206127C3D4C3368101B307CBE20E4CF
:1003F000091203B470044C3378F07CBD7CD3BEA0EA
:10040000FD481CBCAB5818E49CBA2CB31801E47C22
:10041000DB02049C1204FB406E7CBD041206127ABF
:10042000FBA07CAE7CBDA2F492F0C2F4400260015D
:100430000424051203117E30FF0B301203B4CA38B6
:1004400012011020F0044CDD68031203C8DA38BC36
:100450003D78E6740E120110742B7EFBA030F70776
:10046000742D6EA0FF0BA07AFBA01201277EA00ABC
:100470007EFBB0847AFBA01201107EFBB01201104B
:100480009EF80008020132D2F27ED0000201F11281
:1004900004FB40F37CBA2CBD041206127AFBA07C4C
:1004A000BA7CAE30E701E40420F4044CDD6805D2E8
:1004B000F0C2F4042CBD1203116C337EFBB0601B40
:1004C00020E712147AFBB01203B4CA38120110DA12
:1004D000380B3080E6047AFBB01B301203B4CA3804
:1004E0001201104CDD68071203C81BD080E19EF892
:1004F000000930F0031203C80201327CEA7CAF101D
:10050000F7037ED0067CFA1B6E693600020B6A2068
:1005100002055A2D2B204C4248232E0053584F449D
:10052000494355502A4E46454700042080010200A9
:100530001040DA2C313939C6402A769B8F14D50108
:100540000202020201020203030404034E614E0090
:100550002B494E46002D494E46007D522D557CBEFE
:1005600092E67CEB7CBA601F0470287CB5C2E77E03
:100570000400FF60067E14054CD3227E140555400E
:10058000047E140550D322DA099F22CA2BCA2BC33A
:10059000CA09220A0A7E144D10AD109E083AF09E38
:1005A00010267CB5C2E77EA0567C9BA46E54FFFF4C
:1005B0002E54C511ACA92D15E4A539CAB8CA1B2003
:1005C000E70A1207A6DA1B1206F5800AF4041207DE
:1005D000A6DA1B120655DAA87CB5337CB4334E502C
:1005E000806C4424822F111478FBDA497407BE40D2
:1005F0000A40099E400ACA0201140BA0CA486C4472
:100600002F117F012F112F112F101478EFCA48CA14
:1006100049227F0F20E73ABEB007400274070A0B59
:100620002D109E1400097E19B02EB0FB501F4C11E6
:100630006817E47A19B01B147E19B0047A19B0B4A3
:100640000A0BE47A19B0A5D9ED0BA074017A19B0A0
:10065000225EE0BF225D22680D5D0078122D220B24
:100660004068099F11222D000B0078F902081A1228
:1006700007DD5C800B806808248150072CB0500A8D
:100680000208222CB0400302081F7C8B5D117826E3
:100690007CB17CA5BE1080680A5D33780DA5BD8055
:1006A000057F1002080C6D0080307F017C5B7CB1FF
:1006B0007CA5AD1280245D337806A5BD80F080E175
:1006C000CA887D41AD437CB17CA5AD122D1450028A
:1006D0000B047C5BAD232F01DA88A42D05BE0080BE
:1006E00040060B80780480982F007C437C507C610E
:1006F0007C720207F6BE24FFFF6806BE04FFFF7887
:100700000302081A1207DD5CB00468F57CB8A5483E
:1007100068EF7CB870039F1122A5B800030208227D
:100720002E008150079C80380702081F9C8050EDE6
:100730000A51C2E74D51780302080C7E5400807EB6
:10074000901A6C0080061B9068142F11BF10400493
:100750009F104CAB0330E7EECAA86CAA80E8DA39E8
:10076000DA587C4ABE5080500A1B8068BC2F11505A
:10077000020B700207F63F8000004120000042C8D3
:100780000000447A0000461C400047C350004974F2
:1007900024004B1896804CBEBC205A0E1BCA6753CF
:1007A000C21C749DC5AE7C7B60065407681623236B
:1007B0001207CB7CB75438680A7F101207C812069C
:1007C000557F01227CB7543803241C6CAA2E540791
:1007D000767E4400FF0B2A0069120002222D00924F
:1007E000D50E104E10807D422D445002B2D54E5091
:1007F000806C447CB8222C4450120B1C7E40005E5E
:10080000507FBE18000078040B806816A2D57CB813
:10081000137C4B7CB592E77C5B227E1CFFFF229F02
:1008200011227E24FF8020D5026C456D3322CAF848
:100830009000007EEBF07CBF5480B48018900003E1
:10084000E07032900002E0702C9000060BEA30BE9F
:1008500034000268030209327CBF540F14681B1471
:10086000683C0BB16803020932900005E070069005
:100870000004E0601E0209328019900092E0B40486
:100880000F900005E06003020932900004E060036D
:100890000209327E3410EC7E2400FF02091A900017
:1008A00092E0B40406900005E06003020932900073
:1008B000047EEB707CA75EA00F1B7068342E707FE7
:1008C00068040B70786C7E2400017CBA60053E24BD
:1008D0001478FB9000DAE00A3B5D32680A7E34103F
:1008E000EE7E2400FF80337E3410EC7E2400FF80F7
:1008F000297E2400017CBA60053E241478FB900018
:10090000DBE00A3B5D32680A7E3410EE7E2400FF95
:1009100080087E3410EC7E2400FF9000D6793E00E3
:10092000021BEA207E3400029000D41BEA308007CC
:10093000800012215D800312212EDAF82274017EDC
:1009400034FE0B7E24007E7A1BB07E34FE907A1B30
:10095000B07E34FE947A1BB07E34FE917A1BB07E5A
:1009600034FE927A1BB07E34FE937A1BB07E34FE46
:10097000087E1BB044807A1BB07E1BB044407A1BBB
:10098000B07E34FE087E24007E7E1BB030E0F27E16
:1009900034FE047E24007E7E1BB044807A1BB07E31
:1009A00034FE047E24007E7E1BB030E0F27E34FEF6
:1009B000077E24007E7E1BB044807A1BB07E34FE0E
:1009C000077E24007E7E1BB030E0F2740A7E34FE87
:1009D000017E24007E7A1BB07E34FDEC7E1BB0F5D8
:1009E0009F7E34FDF77E1BB0F5A6E59D54FC4402C6
:1009F000F59D7E34FE007E1BB054FC7A1BB07E1B3E
:100A0000B044807A1BB0E5DC549F4420F5DC43DC25
:100A1000807E3400011220AC7E34FE007E24007EF5
:100A20007E1BB054F344047A1BB074047E14FE01A0
:100A30007E04007E7A0BB07E1BB054BF7A1BB022BE
:100A4000CA79740E7E7001121A217414121B0A7C6A
:100A5000FB30E60874147E7080121A217CBF20E0FF
:100A600003020B397E14004C7E0400017421121A1B
:100A700097900008F090008C693E00020BEA204D30
:100A8000237803020B1C6CFF020B11900009E01A83
:100A90003B90008C691E00020BEA002D317D207E08
:100AA0001BA00A4F2E44004C7A91827A81837EEB00
:100AB000E0BCEA784090000904F0900009E01A3B9D
:100AC0002D317D207E1BB0704674146C77121A2174
:100AD000E47E34FE007E24007E7A1BB075F4005361
:100AE000DCF07E34FE077A1BB07E34000A12207CD4
:100AF00075C76080FE90008C693E00020BEA207E84
:100B00001B70BCE7780474018001E4900009F00BCD
:100B1000F0900008E0BCFB5003020A8BD20090006A
:100B20000A0BEA304D33681190000A0BEA30993411
:100B300074146C77121A21C200DA7922900000E056
:100B40005480BEB0806803020BEA900003E01BB142
:100B500068221468370BB16803020BEA7E341097E1
:100B60007E2400FF9000D6793E00021BEA207E34EE
:100B70000012806C7E3410A97E2400FF9000D6798C
:100B80003E00021BEA207E3400438054900002E0C5
:100B900014681F1468340BB178507E3410937E248F
:100BA00000FF9000D6793E00021BEA207E3400044C
:100BB000802E7E3410F07E2400FF9000D6793E0017
:100BC000021BEA207E34000880167E3410757E24D5
:100BD00000FF9000D6793E00021BEA207E34001E02
:100BE0009000D41BEA308005800002215D90000651
:100BF0000BEA309000D40BEA20BD2328069000D4E5
:100C00001BEA3002212E53B2FC43B10374807E34C0
:100C1000FE077E24007E7A1BB07E34FE077E240011
:100C20007E7E1BB030E0F253DCF075F490E46C771C
:100C3000121A2174017E7008121A2174077E703F07
:100C4000121A2174097E703F121A21740B7E7007EC
:100C5000121A2174016C77121A217402900092F01A
:100C6000E49000D3F09000DAF09000DBF0C2027E56
:100C70003401007E2400C290016B793E00021BEA21
:100C80002090016FF0900170F07408900171F0A94C
:100C9000D7AF740190018AF090018AE070119F1122
:100CA000900184793E00021BEA209F000200EE22A0
:100CB000CA3B9001771BEA307F306D3390017A0296
:100CC0000D477438900179F09001770BEA50BE54CB
:100CD00000385004900179F0122001900179E00A67
:100CE0005B2E540003900010F074CF900011F09030
:100CF000017A0BEA107E3400127E2400011B1A10C8
:100D0000900179E00A3BCA397F137E1400147E04F7
:100D10000001121D171BFD900179E00A3B2E3400E3
:100D2000080A37122186900179E00A3B2D73900161
:100D300079E00A2B90017A0BEA302D321BEA3090D1
:100D400001770BEA309D321BEA309001770BEA30D5
:100D50004D336803020CC2DA3B22CA3B9001721B7E
:100D6000EA307F306D33900175020DF174389001D7
:100D700074F09001720BEA50BE5400385004900198
:100D800074F012201A900174E00A5B2E5400039054
:100D90000010F074AF900011F09001750BEA107E16
:100DA0003400127E2400011B1A10900174E00A3BEB
:100DB000CA397F137E1400147E040001121D171B14
:100DC000FD900174E00A3B2E3400080A3712218698
:100DD000900174E00A3B2D73900174E00A2B90019E
:100DE000750BEA302D321BEA309001720BEA309D10
:100DF000321BEA309001720BEA304D336803020D6A
:100E00006CDA3B22900092E0BEB0026822900000B3
:100E1000E0701C900003E07016900005E0701090E8
:100E20000004E0700A9000060BEA304D33680302BC
:100E3000215D900002E0B4015F7404900092F0E440
:100E40009000DAF09000DBF0740E7E7001121A212F
:100E500074127E7020121A2174107E7008121A21EA
:100E6000740E7E7002121A2174127E7020121A21E2
:100E700074107E7008121A21740E7E7001121A21ED
:100E800074126C77121A2174137E7008121A21746E
:100E90000E6C77121A2180107403900092F074FF88
:100EA0009000DAF09000DBF0022179900092E0B43B
:100EB0000429900000E0B40222900005E0600302E3
:100EC0000F49900003E06003020F49900002E070B8
:100ED000789000060BEA304D336802806C90000475
:100EE0007EEB607C765E700F1B60682E2E607F68E4
:100EF000040B6078547E2400017CB760053E241406
:100F000078FB7C656E60FF9000DAE05CB6F0740EF2
:100F1000121A2174117E704080237E2400017CB758
:100F200060053E241478FB7C656E60FF9000DBE07A
:100F30005CB6F0740E121A2174147E7080121A219D
:100F4000740E6C77121A21800302215D02217990C0
:100F50000092E0B40423900000E0B4021C9000056D
:100F6000E0707A900003E07074900002E0706E9080
:100F700000060BEA304D33680280629000047EEB7D
:100F8000607C765E700F1B6068292E607F68040BA2
:100F900060784A7E2400017CB760053E241478FB0B
:100FA0009000DAE04CB5F0740E121A2174117E70C4
:100FB00010801E7E2400017CB760053E241478FB5F
:100FC0009000DBE04CB5F0740E121A2174147E70A0
:100FD00020121A21740E6C77121A21800302215DEF
:100FE000022179CAF8740E6C77121A217411121B3F
:100FF0000A7CFB30E20F74117C7F5E70FB121A21B9
:10100000E49000D3F07CBF30E40A74117C7F4E7012
:1010100080121A219000D3E024FD684E1468500B12
:10102000B2784F7CBF30E04A7E1400007E0400019D
:101030007420121A979000060BEA30121AD1900011
:10104000061BEA30900000E0546024E0680D24E0C4
:10105000680E2440780F12137A8017121EDA80125D
:101060001221BC800D12215D8008121178800312BC
:101070001260DAF8221E035300540043002000558A
:1010800000530042002000530065007200690061B7
:10109000006C00040309041201000202000040BFBA
:1010A0003402FF00010102000109024300020100B5
:1010B0008032090400000102020100052400100131
:1010C000052401000104240202052406000107058D
:1010D00082034000FF09040100020A000000070526
:1010E00081024000000705010240000000000100ED
:1010F0000803530054004300CA7BCA6BCA5BCA4B47
:10110000CA3BCA2BCA1BCA0BC0D0C083C0827EF1A7
:10111000FC7406121B0A7CEB7402121B0A7CCB7453
:1011200004121B0A7CDB7CBE30E1031221C07CBEB2
:1011300030E2031215F77CBC30E003120FE37CBCF5
:1011400030E10312192B7CBC30E203121C477CBD3A
:1011500030E103120A407CBE30E0031221BF7AF175
:10116000FCD082D083D0D0DA0BDA1BDA2BDA3BDA70
:101170004BDA5BDA6BDA7B32CAF8740E6C77121AD0
:10118000217411121B0A20E1679000D40BEA30BED3
:1011900034004028057EF04080027CF79000D6693C
:1011A0001E00020BEA007C7F7420121CC50A2F90DF
:1011B00000D40BEA309D321BEA300A159000D66944
:1011C0003E00020BEA202D31793E00021BEA2090FE
:1011D00000D40BEA304D33780F74117E700A121A66
:1011E00021E49000D3F0800874117E7002121A215D
:1011F000DAF82290015C1BEA20793E00027E34017D
:101200005F7E2400017E1B307E3401607E2400015D
:101210007A1B307E34015E7E2400017E1B307E34DA
:1012200001617E2400017A1B307E34015D7E240042
:10123000017E1B307E3401627E2400017A1B307EE9
:1012400034015C7E2400017E1B307E3401637E24E9
:1012500000017A1B30900160693E00020BEA2022F7
:10126000740E6C77121A217411121B0A30E04F9021
:1012700000D6691E00020BEA007420121A970A1B9E
:101280009000D40BEA209D211BEA209000D6693EF5
:1012900000020BEA202D31793E00021BEA2090006B
:1012A000D40BEA304D33780E74117E7048121A2137
:1012B000E49000D3F02274117E7040021A21229033
:1012C0000000E0B48024900003E0701E900002E073
:1012D0007018900005E07012900004E0700C90000F
:1012E000060BEA30BE340001680302215D900092D3
:1012F000E0B4040A7E3410EE7E2400FF80087E34C1
:1013000010EC7E2400FF9000D6793E00021BEA20FC
:101310007E3400019000D41BEA3002212ECA79905D
:1013200001041BEA00791E0002122033745390005E
:1013300010F0E4900011F0900012F0900013F07E95
:101340003401047E240001900184793E00021BEAEE
:10135000207E1400147E040001900104693E000206
:101360000BEA201200EE7D732E7400087D370B34DB
:101370000A371221867D37DA7922900001E0BEB06B
:101380000D50507EA003A490138B730213B202136E
:10139000B50213D30213B80213D30213BB0213BE58
:1013A0000213C10213C40213C70213CA0213CD02EF
:1013B00013D002082E020EAB020F4F02147E020B56
:1013C0003C0221B60212BF020E04021689021C72F0
:1013D0000221B902215D75C8FF53CAC053C9C05369
:1013E000CA3F43C9C074FF7E34FE4D7E24007E7A1E
:1013F0001BB0E47E34FE157A1BB07E34FE457A1BAA
:10140000B07E34FE1D7A1BB074FF7E34FE257A1B3D
:10141000B07E34FE2D7A1BB07E34FE357E1BB04488
:101420003F7A1BB07E1BB0543F7A1BB022CA3B7F71
:10143000707CF57CE67CD77CCBCA7B0A366D222F8C
:10144000110A1F6D00122094DA0B120D5A12201A85
:101450007405900010F074A8900011F09000127ABA
:10146000EBC09000137AEBD09000147AEBE0900080
:10147000157AEBF07E34000A122186DA3B22CAF894
:10148000900000E07027900005E07021900004E0DB
:10149000701B900003E070159000027EEBF0BEF030
:1014A00080500A9000060BEA304D33680512215D2A
:1014B0008017E47C7F121A214CFF680474038002B9
:1014C0007402900092F0122179DAF822CAF87CFBBB
:1014D000BEF03B28037EF03B744C90000CF074454A
:1014E00090000DF0744490000EF0742890000FF0FE
:1014F0009000107AEBF00A3FCA397F107E14001179
:101500007E040001121D171BFD0A3F2E3400050A40
:1015100037122186DAF822CAF87CFBBEF03B28039A
:101520007EF03B744C90000CF0744590000DF0740C
:101530004490000EF0744090000FF09000107AEB91
:10154000F00A3FCA397F107E1400117E0400011298
:101550001D171BFD0A3F2E3400050A37122186DABB
:10156000F822CAF87CFB9001801BEA20793E000239
:10157000122033744C900010F07401900011F09020
:1015800000127AEBF0E4900013F0900180691E00E5
:10159000020BEA007E3400147E240001791100025F
:1015A0001B1A007E34000C122186DAF82275B0FF77
:1015B00053B20353B10353B2FC43B10374FF7E34FF
:1015C000FE4B7E24007E7A1BB0E47E34FE137A1B31
:1015D000B07E34FE437A1BB07E34FE1B7A1BB0749F
:1015E000FF7E34FE237A1BB07E34FE2B7A1BB07E46
:1015F00034FE337A1BB022E46C77121A2174029005
:101600000092F0E49000D3F0C202740E7E700112DA
:101610001A2174117E7048121A21740E7E70021203
:101620001A2174117E7048121A21740E7E700112F4
:101630001A2174147E7090121A21740E6C77021A9B
:1016400021E59D54FC4403F59D7E34FDA87E2400D5
:101650007E7E1BB054BF7A1BB07E1BB054CF7A1B6A
:10166000B0744C7E14FDA97E04007E7A0BB0744BDE
:101670007E14FDAA7A0BB074A77E14FDAB7A0BB072
:101680007E1BB044807A1BB022900092E0B4041F0D
:10169000900000E0B48118900003E0701290000503
:1016A000E0700C9000060BEA30BE340001680302C3
:1016B000215D7E3410EC7E2400FF9000D6793E0040
:1016C000021BEA207E3400019000D41BEA30022184
:1016D0002E7584017E44041FE47A49B01B4478F9D6
:1016E0007EF800207E0400FF7E1421C50B0A405DB9
:1016F000446822295000020A25693000032E0800A0
:10170000050B44800A7E0BB07A1BB00B1C0B0C1B24
:101710004478F280D702213F7CA77C7B744C9000F8
:101720000CF0744590000DF0744490000EF0742895
:1017300090000FF07402900010F07CB754077E44C4
:10174000000160053E441478FB7CB9900011F090D4
:1017500000127AEBA07E3400070221867CA77C7BF6
:10176000744C90000CF0744590000DF0744490009F
:101770000EF0744090000FF07402900010F07CB7EF
:1017800054077E44000160053E441478FB7CB99008
:101790000011F09000127AEBA07E3400070221863F
:1017A0007C6B744C90000CF0744590000DF0744408
:1017B00090000EF0742890000FF07402900010F06A
:1017C000E4900011F07CB65407C40354F87C6B4ECF
:1017D00060807CB754074CB6900012F07E3400074E
:1017E0000221867C6B744C90000CF0744590000DC7
:1017F000F0744490000EF0744090000FF07402906A
:101800000010F0E4900011F07CB65407C40354F8C3
:101810007C6B4E60807CB754074CB6900012F07E13
:10182000340007022186CA3B7CF57CE67CD77CCB62
:101830007C7EAC7F120CB01220017405900010F079
:1018400074C8900011F09000127AEBC09000137AE7
:10185000EBD09000147AEBE09000157AEBF07E3438
:10186000000A122186DA3B22CA3B7F309001897A36
:10187000EB70900188F012216B0B347F03120D5A2C
:1018800012201A7403900010F074A7900011F090C9
:101890000188E0900012F0900189E0900013F07E42
:1018A000340008122186DA3B227C6B744C90000CC9
:1018B000F0744590000DF0744490000EF074289080
:1018C000000FF07402900010F0E4900011F05E60E0
:1018D000077CB6C40354F87C6B7CB754074CB690B5
:1018E0000012F07E3400070221867C6B744C90005D
:1018F0000CF0744590000DF0744490000EF07440AC
:1019000090000FF07402900010F0E4900011F05E6F
:1019100060077CB6C40354F87C6B7CB754074CB6A4
:10192000900012F07E340007022186CAF8740E7E01
:101930007001121A217411121B0A7CFB30E5087425
:10194000117E7040121A217CBF30E20774116C774F
:10195000121A219000900BEA304D336808900090E5
:101960000BEA309934C202DAF822CA799001301BAE
:10197000EA00791E00027E3401307E2400019001CD
:1019800084793E00021BEA207E14000C7E040001D4
:10199000900130693E00020BEA201200EE7D730ACE
:1019A000371221867D37DA7922CA3B7D727CCB12D1
:1019B00020017406900010F074C6900011F07401BC
:1019C000900012F09000137AEBC09000147AEB7044
:1019D0007E3400157E2400011B1A707E34000B1229
:1019E0002186DA3B22CA3B7D727CCB122001740631
:1019F000900010F074C6900011F07402900012F084
:101A00009000137AEBC09000147AEB707E340015CE
:101A10007E2400011B1A707E34000B122186DA3BF3
:101A2000227CA77C7BE5FC20E7FB7CB7547FF5FCA0
:101A300000000000000000000000000000000000A6
:101A40000000000000000000000000000000000096
:101A500000000000000000007AA1EC22CA3B7D7269
:101A60007CCB1220017406900010F074C690001117
:101A7000F0E4900012F09000137AEBC09000147A1A
:101A8000EB707E3400157E2400011B1A707E34003A
:101A90000B122186DA3B22CA3B7F30CAB80BFD7499
:101AA00016121B0A7AFBB039BFFFFF800C29BFFF5B
:101AB000FE121B0A7A3BB00B747EFBA07CBA147A30
:101AC000FBB04CAA78E729BFFFFF9EF80003DA3B82
:101AD0002290017C1BEA307E34017D7E2400017E51
:101AE0001B307E34017E7E2400017A1B307E34015F
:101AF0007C7E2400017E1B307E34017F7E24000129
:101B00007A1B3090017E0BEA30227CABE5FC20E7AB
:101B1000FB7CBA4480F5FC000000000000000000DF
:101B200000000000000000000000000000000000B5
:101B3000000000000000000000000000000000E5C0
:101B4000EC22CA3B1220337443900010F0E4900062
:101B500011F0900012F0900013F07E340008CA39A2
:101B60007F107E1400147E040001121D171BFD7EE1
:101B7000340010122186DA3B22CA3B7F3112203317
:101B80007444900010F07401900011F0E490001281
:101B9000F0900013F07E3400147E2400017971006F
:101BA000021B1A607E34000C122186DA3B22900060
:101BB00092E0B40409900000E0BEB0A168030221E5
:101BC0005D7E34016B7E2400019000D6793E0002D8
:101BD0001BEA209000060BEA309000D41BEA30028A
:101BE000212E900092E0B40409900000E0BEB021E4
:101BF000680302215D7E34016B7E2400019000D6D3
:101C0000793E00021BEA209000060BEA309000D4D7
:101C10001BEA3002214F43BA8075E90053EAF87598
:101C2000F5241215AD1213D612093D1216417E3459
:101C300000011220AC12211A7E3400011220AC12D5
:101C400021B2D2AF0200BECAF8740E7E7002121A20
:101C5000217411121B0A7CFB30E50874117E704060
:101C6000121A217CBF30E20774116C77121A21DA44
:101C7000F822900092E0B4041D900000E0B4011638
:101C8000900003E07010900005E0700A9000060BD1
:101C9000EA304D33680302215D0221797D23000083
:101CA0000000000000000000000000000000000034
:101CB0000000000000000000000000007D321B3426
:101CC0007D2378DA22CA3BCA787F30CAB8800B7E7F
:101CD000FBB07E3B700B74121A2129AFFFFF7CBA58
:101CE0001439BFFFFF4CAA78E61BFDDA3B22CAF885
:101CF0007CFB12201A7403900010F074A390001162
:101D0000F07402900012F09000137AEBF07E340031
:101D100008122186DAF8227F217F707F10800A7EE8
:101D20002B307A1B300B540B34691FFFFD7D011BD8
:101D300004790FFFFD4D1178E67F1722CAF87CFB6E
:101D40001220017402900010F074C5900011F09000
:101D500000127AEBF07E340007122186DAF822CAEC
:101D6000F87CFB1220017402900010F074C4900003
:101D700011F09000127AEBF07E340007122186DA1F
:101D8000F822CAF87CFB12201A7402900010F0743A
:101D9000A5900011F09000127AEBF07E340007124B
:101DA0002186DAF822801200000000000000000006
:101DB0000000000000000000007D231B344D22784D
:101DC000E6221220017402900010F074C7900011F6
:101DD000F07401900012F07E340007022186122078
:101DE000017402900010F074C0900011F074019022
:101DF0000012F07E34000702218612201A7402902D
:101E00000010F074A3900011F07401900012F07EA5
:101E100034000702218612201A7402900010F07418
:101E2000A4900011F07401900012F07E34000702BB
:101E300021861220017402900010F074C2900011EB
:101E4000F07401900012F07E340007022186122007
:101E50001A7402900010F074A2900011F0740290B5
:101E60000012F07E340007022186122001740290D5
:101E70000010F074C1900011F07401900012F07E17
:101E800034000702218612201A7402900010F074A8
:101E9000A0900011F07401900012F07E340007024F
:101EA000218612201A7402900010F074A290001182
:101EB000F07401900012F07E340007022186122097
:101EC0001A7402900010F074A1900011F074019047
:101ED0000012F07E340007022186900001E024DF2A
:101EE000680A14680A0BB17809021BE2021BAE02F1
:101EF00020C302215D1220017402900010F074C012
:101F0000900011F0E4900012F07E34000702218668
:101F100012201A7402900010F074A4900011F0E4E2
:101F2000900012F07E340007022186122001740214
:101F3000900010F074C7900011F0E4900012F07E51
:101F400034000702218612201A7402900010F074E7
:101F5000A0900011F0E4900012F07E3400070221FE
:101F60008612201A7402900010F074A3900011F0F1
:101F7000E4900012F07E34000702218612200174E2
:101F800002900010F074C2900011F0E4900012F082
:101F90007E3400070221861220017402900010F0A6
:101FA00074C1900011F0E4900012F07E340007023A
:101FB000218612201A7402900010F074A190001172
:101FC000F0E4900012F07E34000702218612201AFD
:101FD0007402900010F074A2900011F0E4900012CE
:101FE000F07E340007022186CAF80A5B2E540020D6
:101FF000121A977CFB74146C77121A217CBFDAF8E2
:1020000022744F90000CF0744C90000DF0744590C9
:10201000000EF0748090000FF022744C90000CF0D1
:10202000744390000DF0744490000EF074809000A2
:102030000FF022743790000CF0745390000DF07480
:102040004590000EF0744790000FF0223000147E8F
:1020500014004C7E040001900008E00A3B120003CB
:1020600002206422A9C7AF740E7E7001121A217477
:10207000146C77121A21C200A9D7AF22CA797D73D6
:1020800080077E3403E8121DA57D371B744D33781D
:10209000F1DA792275ED02226D0075ED022275EDFF
:1020A00004226D0075ED042275ED06227D237E3439
:1020B00017707D131B147D3178F87D121B147D2160
:1020C00078EC22900092E0B40409900000E0BEB0E9
:1020D00021680302215D02217912201A7401900007
:1020E00010F074A6900011F07E34000602218612D2
:1020F00020017401900010F074C3900011F07E3440
:1021000000060221867CA77C7B0A5A2E54002012EE
:102110001CC574117E7001021A21120C0653B57F82
:1021200053B67F7E1421E47E0400FF0221917403E4
:102130009000D3F074117E7040121A2102117812AF
:10214000219C9F007E3421F67E2400FF0200CE7485
:10215000049000D3F074117E7040021A217405902F
:1021600000D3F074117E7060021A216D3380020B6F
:10217000347E0BB00B1470F722E49000D3F074118E
:102180007E7048021A217E14000C7E0400010200B9
:102190000390008C791E00021BEA0022121C16120A
:1021A000204C80FB9000901BEA302290000A1BEA32
:1021B000302275ED3E2202215D02215D02215D2269
:1021C0002228302900000101000900000201000A54
:1021D0000000000401008C00FF21ED0002010090CE
:1021E00000000000405354434953502300405354CF
:0821F000434953502300300065
:00000001FF
