:10000000021CC1740E6C77122057741112214030FB
:10001000E04F9000D6691E00020BEA007420122007
:10002000CD0A1B9000D40BEA209D211BEA209000F2
:10003000D6693E00020BEA202D31793E00021BEA10
:10004000209000D40BEA304D33780E74117E704846
:10005000122057E49000D3F02274117E70400220E9
:100060005722220218B5A9D7BA75E90075EA0075BA
:1000700093007594007591007592007595007596C2
:100080000075B10075B20075B30075B40075C90094
:1000900075CA0075CB0075CC0075E10075E20012E1
:1000A0000EE5122897D2AFC2C2121D0812114D7E62
:1000B00034FA117E24007E7E1BB044407A1BB012BD
:1000C000249D12247D80FE022858220217BA7F70D8
:1000D0007F517EC400017ED4015C7E9400E1020168
:1000E0003D4005E47A7BB0227A7BB00B7C227F70A6
:1000F0007F5190019A0BEAC069DE00027E940103F1
:1001000002013D4005E47A7BB0227A7BB00B7C2271
:10011000540F2490D43440D430F30CBEB041400787
:10012000BEB05B500224204CCC68021BC00B84D3B1
:1001300089944CCC680B742012012780F5CA3B6D62
:10014000889F337CAE7E5BB00B5C7007C37D38DA72
:100150003B8994B42569C2F37E5BB00B5CA5F8249F
:10016000D0BEB00A501B7E500A20F60DAC5CA52D07
:100170007CCB70034EF00180DDAC5DA52D7CDB8077
:10018000D524CFBEB01AA5E850055E00DFD2F390AB
:100190000512A3E4936011BCB078F77417934CABCD
:1001A00030F6B34EF08080AEA3E4936010BCB0781C
:1001B000F77416937C3B7423937C2B89147CB0805A
:1001C00013742012012720F205BEC00250F31B6DEC
:1001D00029B600011201270201321B6E69160002C6
:1001E0000B6A00BE08000078087E0400FF7E142819
:1001F000B520F21E4CCC681A7F10E47E1B804C8820
:1002000068070B1C04BCBD78F2C2F6CA0B120311BE
:10021000DA0B7E0BB060C0CA0B120127DA0B0B0C95
:100220004CDD68EE1BD078EA80ADD2F07E101080F5
:10023000037E10085EB05F800AD2F67E100A800549
:100240007E100AC2F66D119F117E00201B6C7E6B22
:100250007030F6021A3720F1051B6C7E6B6030F6A9
:10026000041A261A2430F0051B6D0B6A20A5EC3306
:1002700082F692F6500A7CEA9F229F217F127CAE82
:100280004C44780F7C457C567C676C772E00F87860
:10029000EF80122F117CB3337C3B9CB140047C3B3C
:1002A0000B70A5D8EE7CB230E005DAB8C44C3BCA7E
:1002B000380B207E00207E3000BE18000078C1BEC2
:1002C0001008780730F404C2F480B5CA287CB2BCA8
:1002D000BD38027CBD120311DA28BC2D500A1BD098
:1002E000E4CA2812011080F07CB213DAB84004C4CA
:1002F000CAB8C4CA28BEF08040095CDD7805A5DA1A
:100300000260065EF07F120110DA28A5DADA020137
:1003100032BEF001680F30F402240220F50620F707
:100320000330F6010420F229BCBC5025CAB87CBFBA
:1003300013B0E67420501174307C8A5E80F0680837
:100340001203515EA00F8003120127DAB8BCBC78FB
:10035000DB30F40F7430120127745830F3027478D4
:1003600012012730F605742D020127742B20F5F8B1
:10037000742020F7F3221B6C7E6BB010F1021B6C13
:1003800020F60B30E704F404D2F27CCB800520E7A2
:10039000057CDB0201565EF07F80F81B6E6916005B
:1003A000020B6A0030F0076D221B0A200B0D1B0A9E
:1003B00080020141E46C22BE3007500B7F1F2D31BB
:1003C0002E34FFF77E39B0227CBF20E7A8742E4E72
:1003D000F0800201271204FB403D7CBD7003047CC9
:1003E000DB1206127C3D4C3368101B307CBE20E4CF
:1003F000091203B470044C3378F07CBD7CD3BEA0EA
:10040000FD481CBCAB5818E49CBA2CB31801E47C22
:10041000DB02049C1204FB406E7CBD041206127ABF
:10042000FBA07CAE7CBDA2F492F0C2F4400260015D
:100430000424051203117E30FF0B301203B4CA38B6
:1004400012011020F0044CDD68031203C8DA38BC36
:100450003D78E6740E120110742B7EFBA030F70776
:10046000742D6EA0FF0BA07AFBA01201277EA00ABC
:100470007EFBB0847AFBA01201107EFBB01201104B
:100480009EF80008020132D2F27ED0000201F11281
:1004900004FB40F37CBA2CBD041206127AFBA07C4C
:1004A000BA7CAE30E701E40420F4044CDD6805D2E8
:1004B000F0C2F4042CBD1203116C337EFBB0601B40
:1004C00020E712147AFBB01203B4CA38120110DA12
:1004D000380B3080E6047AFBB01B301203B4CA3804
:1004E0001201104CDD68071203C81BD080E19EF892
:1004F000000930F0031203C80201327CEA7CAF101D
:10050000F7037ED0067CFA1B6E693600020B6A2068
:1005100002055A2D2B204C4248232E0053584F449D
:10052000494355502A4E46454700042080010200A9
:100530001040DA2C313939C6402A769B8F14D50108
:100540000202020201020203030404034E614E0090
:100550002B494E46002D494E46007D522D557CBEFE
:1005600092E67CEB7CBA601F0470287CB5C2E77E03
:100570000400FF60067E14054CD3227E140555400E
:10058000047E140550D322DA099F22CA2BCA2BC33A
:10059000CA09220A0A7E144D10AD109E083AF09E38
:1005A00010267CB5C2E77EA0567C9BA46E54FFFF4C
:1005B0002E54C511ACA92D15E4A539CAB8CA1B2003
:1005C000E70A1207A6DA1B1206F5800AF4041207DE
:1005D000A6DA1B120655DAA87CB5337CB4334E502C
:1005E000806C4424822F111478FBDA497407BE40D2
:1005F0000A40099E400ACA0201140BA0CA486C4472
:100600002F117F012F112F112F101478EFCA48CA14
:1006100049227F0F20E73ABEB007400274070A0B59
:100620002D109E1400097E19B02EB0FB501F4C11E6
:100630006817E47A19B01B147E19B0047A19B0B4A3
:100640000A0BE47A19B0A5D9ED0BA074017A19B0A0
:10065000225EE0BF225D22680D5D0078122D220B24
:100660004068099F11222D000B0078F902081A1228
:1006700007DD5C800B806808248150072CB0500A8D
:100680000208222CB0400302081F7C8B5D117826E3
:100690007CB17CA5BE1080680A5D33780DA5BD8055
:1006A000057F1002080C6D0080307F017C5B7CB1FF
:1006B0007CA5AD1280245D337806A5BD80F080E175
:1006C000CA887D41AD437CB17CA5AD122D1450028A
:1006D0000B047C5BAD232F01DA88A42D05BE0080BE
:1006E00040060B80780480982F007C437C507C610E
:1006F0007C720207F6BE24FFFF6806BE04FFFF7887
:100700000302081A1207DD5CB00468F57CB8A5483E
:1007100068EF7CB870039F1122A5B800030208227D
:100720002E008150079C80380702081F9C8050EDE6
:100730000A51C2E74D51780302080C7E5400807EB6
:10074000901A6C0080061B9068142F11BF10400493
:100750009F104CAB0330E7EECAA86CAA80E8DA39E8
:10076000DA587C4ABE5080500A1B8068BC2F11505A
:10077000020B700207F63F8000004120000042C8D3
:100780000000447A0000461C400047C350004974F2
:1007900024004B1896804CBEBC205A0E1BCA6753CF
:1007A000C21C749DC5AE7C7B60065407681623236B
:1007B0001207CB7CB75438680A7F101207C812069C
:1007C000557F01227CB7543803241C6CAA2E540791
:1007D000767E4400FF0B2A0069120002222D00924F
:1007E000D50E104E10807D422D445002B2D54E5091
:1007F000806C447CB8222C4450120B1C7E40005E5E
:10080000507FBE18000078040B806816A2D57CB813
:10081000137C4B7CB592E77C5B227E1CFFFF229F02
:1008200011227E24FF8020D5026C456D33227E3458
:10083000FEB67E24007E7E1BB054FC44037A1BB0BF
:100840007E1BB054F3440C7A1BB07E1BB054CF44D3
:10085000307A1BB07E34FBF47E1BB054FC7A1BB0A4
:100860007E34FEE27E1BB054F87A1BB0E47E34FE88
:10087000F07A1BB07E34FEF17A1BB074037E34FE36
:10088000F27A1BB074E77E34FEF37A1BB07E34FE3E
:10089000E07E1BB044807A1BB0E47E34FEEE7A1B0F
:1008A000B07E34FEEF7A1BB07E34FEEC7E1BB0547B
:1008B000FE7A1BB07E14FEE87E04007E7E0BB054F0
:1008C000FC7A0BB07E1BB044017A1BB074257E34D9
:1008D00001F4120D0A7E34FEE87E24007E7E1BB0F9
:1008E000548F44607A1BB07E1BB044087A1BB07EE4
:1008F00034FEEC7E1BB054FD7A1BB07E14FEB57E38
:1009000004007E7E0BB044017A0BB07E1BB054EF26
:100910007A1BB07E14FEE97E0BB054FC7A0BB07EDD
:100920001BB044107A1BB074267E3401F4120D0AF9
:100930007E34FEE97E24007E7E1BB0548F44607AB4
:100940001BB07E1BB044087A1BB07E34FEEC7E1BCD
:10095000B054DF7A1BB07E34FEB57E1BB044047AFF
:100960001BB07E34FEED7E1BB054FE7A1BB07E14AD
:10097000FEEA7E04007E7E0BB054FC7A0BB07E1B38
:10098000B044017A1BB074277E3401F4120D0A7E44
:1009900034FEEA7E24007E7E1BB0548F44607A1BB6
:1009A000B07E1BB044087A1BB07E34FEED7E1BB0D7
:1009B00054FD7A1BB07E34FEB57E1BB044107A1B0A
:1009C000B07E34FEFD7E1BB044807A1BB07E34FBCB
:1009D000F47E1BB054FC44037A1BB07E1BB054FB66
:1009E0007A1BB0746012227D7C7B4E7001746002B1
:1009F00023CACAF89000007EEBF07CBF5480B4801C
:100A000018900003E07032900002E0702C90000615
:100A10000BEA30BE3400026803020AF67CBF540FB2
:100A200014681B14683C0BB16803020AF6900005B9
:100A3000E07006900004E0601E020AF68019900043
:100A400092E0B4040F900005E06003020AF6900003
:100A500004E06003020AF67E3417AE7E2400FF0233
:100A60000ADE900092E0B40406900005E060030204
:100A70000AF69000047EEB707CA75EA00F1B7068E6
:100A8000342E707F68040B70786C7E2400017CBA71
:100A900060053E241478FB9000DAE00A3B5D326882
:100AA0000A7E3417B07E2400FF80337E3417AE7E7A
:100AB0002400FF80297E2400017CBA60053E2414B6
:100AC00078FB9000DBE00A3B5D32680A7E3417B0A9
:100AD0007E2400FF80087E3417AE7E2400FF900045
:100AE000D6793E00021BEA207E3400029000D41B1F
:100AF000EA30800780001228588003122829DAF88B
:100B0000227C7B24EFBEB0184003020C097EA003B8
:100B1000A4900B1573020B5D020B72020B86020B85
:100B20009A020C09020C09020C09020C09020C09B8
:100B3000020C09020C09020C09020C09020C090240
:100B40000C09020C09020C09020C09020C09020C26
:100B500009020BAE020BC2020BD6020BEA7E34FE78
:100B6000D57E24007E7E1B707CA7E47E34FED602F8
:100B70000BFC7E34FED77E24007E7E1B707CA7E4B7
:100B80007E34FED880767E34FED97E24007E7E1BA5
:100B9000707CA7E47E34FEDA80627E34FEDB7E2445
:100BA000007E7E1B707CA7E47E34FEDC804E7E34AB
:100BB000FEF57E24007E7E1B707CA7E47E34FEF66C
:100BC000803A7E34FEF77E24007E7E1B707CA7E494
:100BD0007E34FEF880267E34FEF97E24007E7E1B65
:100BE000707CA7E47E34FEFA80127E34FEFB7E2405
:100BF000007E7E1B707CA7E47E34FEFC7E24007E9B
:100C00007E1B700A474D4580026D447D3422CA79AF
:100C1000740E7E700112205774141221407CFB3038
:100C2000E60874147E70801220577CBF20E0030217
:100C30000D077E14004C7E04000174211220CD901B
:100C40000008F090008C693E00020BEA204D2378EA
:100C500003020CEA6CFF020CDF900009E01A3B90E3
:100C6000008C691E00020BEA002D317D207E1BA046
:100C70000A4F2E44004C7A91827A81837EEBE0BC4D
:100C8000EA784090000904F0900009E01A3B2D3109
:100C90007D207E1BB0704674146C77122057E47E62
:100CA00034FE007E24007E7A1BB075F40053DCF025
:100CB0007E34FE077A1BB07E34000A12277A75C78D
:100CC0006080FE90008C693E00020BEA207E1B7063
:100CD000BCE7780474018001E4900009F00BF09007
:100CE0000008E0BCFB5003020C59D20090000A0B34
:100CF000EA304D33681190000A0BEA3099347414CD
:100D00006C77122057C200DA79227D0324EFBEB03F
:100D1000184003020E047EA003A4900D1E73020D62
:100D200066020D7A020D8D020DA0020E04020E0461
:100D3000020E04020E04020E04020E04020E04024D
:100D40000E04020E04020E04020E04020E04020E31
:100D500004020E04020E04020E04020DB3020DC6BC
:100D6000020DD9020DEC7E34FED57E24007E7A1B66
:100D7000007C317E34FED6020DFD7E34FED77E240B
:100D8000007E7A1B007C317E34FED880707E34FE7B
:100D9000D97E24007E7A1B007C317E34FEDA805DB1
:100DA0007E34FEDB7E24007E7A1B007C317E34FEA6
:100DB000DC804A7E34FEF57E24007E7A1B007C3186
:100DC0007E34FEF680377E34FEF77E24007E7A1B6A
:100DD000007C317E34FEF880247E34FEF97E2400CF
:100DE0007E7A1B007C317E34FEFA80117E34FEFB5D
:100DF0007E24007E7A1B007C317E34FEFC7E240043
:100E00007E7A1B3022CA3B7C7B24EFBEB0184003A5
:100E1000020EDE7EA003A4900E1B73020E63020E70
:100E200070020E7D020E8A020EDE020EDE020EDE61
:100E3000020EDE020EDE020EDE020EDE020EDE020A
:100E40000EDE020EDE020EDE020EDE020EDE020EEE
:100E5000DE020EDE020EDE020E9A020EAA020EBAAA
:100E6000020ECA745512224C7CEB6CFF745680251E
:100E7000745712224C7CEB6CFF7458801874591212
:100E8000224C7CEB6CFF745A800B745B12224C7CFE
:100E9000EB6CFF745C12224C803E747512227D7CD8
:100EA000EB6CFF747612227D802E747712227D7C8B
:100EB000EB6CFF747812227D801E747912227D7C87
:100EC000EB6CFF747A12227D800E747B12227D7C83
:100ED000EB6CFF747C12227D0A6B4D6780026D669D
:100EE0007D36DA3B2274017E34FE0B7E24007E7A4E
:100EF0001BB07E34FE907A1BB07E34FE947A1BB019
:100F00007E34FE917A1BB07E34FE927A1BB07E3422
:100F1000FE937A1BB07E34FE047E1BB044807A1BA5
:100F2000B07E34FE047E24007E7E1BB030E0F27E74
:100F300034FE077E24007E7E1BB044807A1BB07E88
:100F400034FE077E24007E7E1BB030E0F2740A7E01
:100F500034FE017E24007E7A1BB07E34FDEC7E1BC5
:100F6000B0F59F7E34FDF77E1BB0F5A6E59D54FCE1
:100F70004402F59D7E34FE007E1BB054FC7A1BB00B
:100F80007E1BB044807A1BB0E5DC549F4420F5DC26
:100F900043DC807E3400011227AA7E34FE007E24CA
:100FA000007E7E1BB054F344047A1BB074047E149C
:100FB000FE017E04007E7A0BB07E1BB054BF7A1B0C
:100FC000B022900000E05480BEB080680302107030
:100FD000900003E01BB168221468370BB16803026C
:100FE00010707E3417597E2400FF9000D6793E00A1
:100FF000021BEA207E340012806C7E34176B7E2444
:1010000000FF9000D6793E00021BEA207E340043A8
:101010008054900002E014681F1468340BB17850BB
:101020007E3417557E2400FF9000D6793E00021BC7
:10103000EA207E340004802E7E3417B27E2400FF26
:101040009000D6793E00021BEA207E34000880160C
:101050007E3417377E2400FF9000D6793E00021BB5
:10106000EA207E34001E9000D41BEA308005800008
:101070000228589000060BEA309000D40BEA20BDFD
:101080002328069000D41BEA30022829CA797D73F0
:1010900024EFBEB018400302114A7EA003A49010B2
:1010A000A2730210EA0210F502110002110B0211E4
:1010B0004A02114A02114A02114A02114A02114A15
:1010C00002114A02114A02114A02114A02114A024D
:1010D000114A02114A02114A02114A02114A02112E
:1010E0001B02112602113102113C74550A3E1223D3
:1010F000A57456801F74570A3E1223A57458801495
:1011000074590A3E1223A5745A8009745B0A3E1270
:1011100023A5745C7C7F1223A5802F74750A3E1270
:1011200023CA7476801F74770A3E1223CA747880AB
:101130001474790A3E1223CA747A8009747B0A3EB9
:101140001223CA747C7C7F1223CADA792253DEF020
:1011500043DE207E34FEAD7E24007E7E1BB054F83C
:101160007A1BB07E14FEA87E04007E7E0BB0547FF6
:1011700044807A0BB07E0BB0549F7A0BB07E0BB0DC
:1011800054E0440A7A0BB07E1BB054DF7A1BB05394
:10119000BCF043BC8074FF7E34FA827A1BB07E348C
:1011A000FA137A1BB07E34015C0A167E34FA177A81
:1011B0001B307E14015C7E34FA187A1B30E47E34D6
:1011C000FA1E7A1BB07E34FA1F7A1BB07E34FA1BEB
:1011D0007A1BB074077E34FA1A7A1BB07E34FA197F
:1011E0007E1BB054F07A1BB07E34FA127E1BB054D2
:1011F000FE7A1BB07E34FA107E1BB054FC7A1BB012
:101200007E34FA117E1BB044807A1BB022CA3B9018
:1012100001761BEA307F30900092E0B40402800334
:101220000212C56D339001791BEA307E3413889029
:10123000017B1BEA30A9C7AF740E7E7001122057E4
:10124000741112214030E019A9D7AF7E34000A1280
:1012500024BB90017B0BEA301B341BEA30686680AC
:10126000D49001760BEA30BE34004008047440800C
:10127000027CB7900178F0A9C7AFC202740E7E70ED
:10128000011220579001790BEA307F032D13900152
:1012900078E07E7001122803D202A9D7AF900178BE
:1012A000E00A2B9001790BEA302D321BEA309001D5
:1012B000760BEA309D321BEA30900178E0BEB040F8
:1012C000400302122BDA3B2253B2FC43B103748079
:1012D0007E34FE077E24007E7A1BB07E34FE077EBD
:1012E00024007E7E1BB030E0F253DCF075F490E415
:1012F0006C7712205774017E700812205774077E95
:10130000703F12205774097E703F122057740B7E75
:10131000700712205774016C7712205774029000E6
:1013200092F0E49000D3F09000DAF09000DBF0C28D
:10133000027E3401007E2400C290017D793E0002CD
:101340001BEA20900181F0900182F07408900183E3
:10135000F0A9D7AF74019001A0F09001A0E0701146
:101360009F1190019A793E00021BEA209F00020023
:10137000EE22CA3B9001891BEA307F306D33900129
:101380008C021409743890018BF09001890BEA509B
:10139000BE540038500490018BF012271790018B37
:1013A000E00A5B2E540003900010F074CF900011FF
:1013B000F090018C0BEA107E3400127E2400011B99
:1013C0001A1090018BE00A3BCA397F137E14001477
:1013D0007E0400011223EF1BFD90018BE00A3B2EDF
:1013E0003400080A3712288190018BE00A3B2D73E4
:1013F00090018BE00A2B90018C0BEA302D321BEA16
:10140000309001890BEA309D321BEA309001890B44
:10141000EA304D336803021384DA3B22CA3B900161
:10142000841BEA307F306D339001870214B3743827
:10143000900186F09001840BEA50BE5400385004AD
:10144000900186F0122730900186E00A5B2E54004E
:1014500003900010F074AF900011F09001870BEA38
:10146000107E3400127E2400011B1A10900186E0C9
:101470000A3BCA397F137E1400147E040001122334
:10148000EF1BFD900186E00A3B2E3400080A37125C
:101490002881900186E00A3B2D73900186E00A2B9B
:1014A0009001870BEA302D321BEA309001840BEA61
:1014B000309D321BEA309001840BEA304D336803D3
:1014C00002142EDA3B22900092E0BEB00268229015
:1014D0000000E0701C900003E07016900005E070C2
:1014E00010900004E0700A9000060BEA304D33685B
:1014F00003022858900002E0B4015F740490009247
:10150000F0E49000DAF09000DBF0740E7E700112CF
:10151000205774127E702012205774107E700812AB
:101520002057740E7E700212205774127E702012A3
:10153000205774107E7008122057740E7E700112AE
:10154000205774126C7712205774137E7008122083
:1015500057740E6C7712205780107403900092F02D
:1015600074FF9000DAF09000DBF002287490009293
:10157000E0B40429900000E0B40222900005E0608D
:101580000302160B900003E0600302160B900002AA
:10159000E070789000060BEA304D336802806C9062
:1015A00000047EEB607C765E700F1B60682E2E6000
:1015B0007F68040B6078547E2400017CB760053E90
:1015C000241478FB7C656E60FF9000DAE05CB6F076
:1015D000740E12205774117E704080237E24000107
:1015E0007CB760053E241478FB7C656E60FF90003C
:1015F000DBE05CB6F0740E12205774147E7080121B
:101600002057740E6C771220578003022858022846
:1016100074900092E0B40423900000E0B4021C90A7
:101620000005E0707A900003E07074900002E070B2
:101630006E9000060BEA304D336802806290000421
:101640007EEB607C765E700F1B6068292E607F6881
:10165000040B60784A7E2400017CB760053E2414A8
:1016600078FB9000DAE04CB5F0740E12205774113C
:101670007E7010801E7E2400017CB760053E24141D
:1016800078FB9000DBE04CB5F0740E122057741418
:101690007E7020122057740E6C7712205780030240
:1016A0002858022874CAF8740E6C771220577411E7
:1016B0001221407CFB30E20F74117C7F5E70FB12C4
:1016C0002057E49000D3F07CBF30E40A74117C7F93
:1016D0004E70801220579000D3E024FD684E1468AD
:1016E000500BB2784F7CBF30E04A7E1400007E047D
:1016F000000174201220CD9000060BEA3012210761
:101700009000061BEA30900000E0546024E0680D71
:1017100024E0680E2440780F121A5380171226E333
:1017200080121228B2800D122858800812183A80B0
:1017300003120003DAF8221E035300540043002072
:1017400000550053004200200053006500720069FC
:101750000061006C00040309041201000202000091
:1017600040BF3402FF0001010200010902430002F0
:10177000010080320904000001020201000524007A
:1017800010010524010001042402020524060001C1
:10179000070582034000FF09040100020A0000005F
:1017A000070581024000000705010240000000001B
:1017B00001000803530054004300CA7BCA6BCA5B94
:1017C000CA4BCA3BCA2BCA1BCA0BC0D0C083C0823B
:1017D0007EF1FC74061221407CEB74021221407CE5
:1017E000CB74041221407CDB7CBE30E1031200CAC2
:1017F0007CBE30E203121C2F7CBC30E0031216A525
:101800007CBC30E103121F617CBC30E2031222AECB
:101810007CBD30E103120C0E7CBE30E0031200628E
:101820007AF1FCD082D083D0D0DA0BDA1BDA2BDA53
:101830003BDA4BDA5BDA6BDA7B32CAF8740E6C7720
:10184000122057741112214020E1679000D40BEA56
:1018500030BE34004028057EF04080027CF79000C6
:10186000D6691E00020BEA007C7F742012232C0A2A
:101870002F9000D40BEA309D321BEA300A159000FD
:10188000D6693E00020BEA202D31793E00021BEAA8
:10189000209000D40BEA304D33780F74117E700A1B
:1018A000122057E49000D3F0800874117E70021269
:1018B0002057DAF822CA7BCA6BCA5BCA4BCA2BCA4A
:1018C0001BCA0BC0D0C083C0829001900BEA300BC2
:1018D000341BEA3090018E0BEA300B341BEA309057
:1018E00001900BEA30BE342710402B6D33900190ED
:1018F0001BEA30B2C27425120E052E340064BE34C9
:1019000003E728026D33742512108C7E1428E87EBC
:101910000400FF121FA0D082D083D0D0DA0BDA1BD4
:10192000DA2BDA4BDA5BDA6BDA7B3290016E1BEA88
:1019300020793E00027E3401717E2400017E1B303E
:101940007E3401727E2400017A1B307E3401707E69
:101950002400017E1B307E3401737E2400017A1B3B
:10196000307E34016F7E2400017E1B307E34017492
:101970007E2400017A1B307E34016E7E2400017EBD
:101980001B307E3401757E2400017A1B3090017279
:10199000693E00020BEA2022900000E0B48024900F
:1019A0000003E0701E900002E07018900005E070E7
:1019B00012900004E0700C9000060BEA30BE340078
:1019C000016803022858900092E0B4040A7E34179C
:1019D000B07E2400FF80087E3417AE7E2400FF9086
:1019E00000D6793E00021BEA207E3400019000D42C
:1019F0001BEA30022829CA799001041BEA00791EEB
:101A000000021227497453900010F0E4900011F086
:101A1000900012F0900013F07E3401047E24000147
:101A200090019A793E00021BEA207E1400147E0485
:101A30000001900104693E00020BEA201200EE7DD5
:101A4000732E7400087D370B340A371228817D37D6
:101A5000DA7922900001E0BEB00D50507EA003A4C0
:101A6000901A6473021A8B021A8E021AAC021A912F
:101A7000021AAC021A94021A97021A9A021A9D02CA
:101A80001AA0021AA3021AA6021AA90209F2021542
:101A90006D021611021B00020FC20200C702199844
:101AA0000214C6021C790222D90228AF022858CAA1
:101AB0003B7F707CF57CE67CD77CCBCA7B0A366D9D
:101AC000222F110A1F6D00122792DA0B12141C121A
:101AD00027307405900010F074A8900011F0900069
:101AE000127AEBC09000137AEBD09000147AEBE0FE
:101AF0009000157AEBF07E34000A122881DA3B223E
:101B0000CAF8900000E07027900005E07021900076
:101B100004E0701B900003E070159000027EEBF073
:101B2000BEF080500A9000060BEA304D3368051273
:101B300028588017E47C7F1220574CFF68047403F8
:101B400080027402900092F0122874DAF822CAF827
:101B50007CFBBEF03B28037EF03B744C90000CF005
:101B6000744590000DF0744490000EF074289000BD
:101B70000FF09000107AEBF00A3FCA397F107E1404
:101B800000117E0400011223EF1BFD0A3F2E3400DA
:101B9000050A37122881DAF822CAF87CFBBEF03B2E
:101BA00028037EF03B744C90000CF0744590000DBF
:101BB000F0744490000EF0744090000FF09000100C
:101BC0007AEBF00A3FCA397F107E1400117E0400C0
:101BD000011223EF1BFD0A3F2E3400050A3712289D
:101BE00081DAF822CAF87CFB9001961BEA20793E44
:101BF0000002122749744C900010F07401900011FB
:101C0000F09000127AEBF0E4900013F090019669E6
:101C10001E00020BEA007E3400147E2400017911BC
:101C200000021B1A007E34000C122881DAF822E42C
:101C30006C771220577402900092F0E49000D3F079
:101C4000C202740E7E700112205774117E70481209
:101C50002057740E7E700212205774117E70481245
:101C60002057740E7E700112205774147E709012EB
:101C70002057740E6C77022057900092E0B4041F36
:101C8000900000E0B48118900003E070129000050D
:101C9000E0700C9000060BEA30BE340001680302CD
:101CA00028587E3417AE7E2400FF9000D6793E007F
:101CB000021BEA207E3400019000D41BEA30022887
:101CC000297584017E44041FE47A49B01B4478F9E5
:101CD0007EF800207E0400FF7E1428B90B0A405DC8
:101CE000446822295000020A25693000032E0800AA
:101CF000050B44800A7E0BB07A1BB00B1C0B0C1B2F
:101D00004478F280D702283A75C8FF53CA0F53C9E6
:101D10000F43CA0F53C9F0E47E34FE4D7E24007E8B
:101D20007A1BB07E34FE157A1BB07E34FE457A1BDA
:101D3000B07E34FE1D7A1BB07E34FE257A1BB07E49
:101D400034FE2D7A1BB07E34FE357A1BB0227CA780
:101D50007C7B744C90000CF0744590000DF0744442
:101D600090000EF0742890000FF07402900010F0B4
:101D70007CB754077E44000160053E441478FB7C28
:101D8000B9900011F09000127AEBA07E34000702A7
:101D900028817CA77C7B744C90000CF074459000EB
:101DA0000DF0744490000EF0744090000FF0740237
:101DB000900010F07CB754077E44000160053E445B
:101DC0001478FB7CB9900011F09000127AEBA07EA1
:101DD0003400070228817C6B744C90000CF0744531
:101DE00090000DF0744490000EF0742890000FF0F5
:101DF0007402900010F0E4900011F07CB65407C417
:101E00000354F87C6B4E60807CB754074CB690004E
:101E100012F07E3400070228817C6B744C90000C19
:101E2000F0744590000DF0744490000EF0744090F2
:101E3000000FF07402900010F0E4900011F07CB6F6
:101E40005407C40354F87C6B4E60807CB754074C35
:101E5000B6900012F07E340007022881CA3B7CF560
:101E60007CE67CD77CCB7C7EAC7F1213721227176A
:101E70007405900010F074C8900011F09000127A70
:101E8000EBC09000137AEBD09000147AEBE0900056
:101E9000157AEBF07E34000A122881DA3B22CA3B25
:101EA0007F3090019F7AEB7090019EF01228660BB4
:101EB000347F0312141C1227307403900010F07446
:101EC000A7900011F090019EE0900012F090019F09
:101ED000E0900013F07E340008122881DA3B227C67
:101EE0006B744C90000CF0744590000DF0744490AD
:101EF000000EF0742890000FF07402900010F0E4CF
:101F0000900011F05E60077CB6C40354F87C6B7CD3
:101F1000B754074CB6900012F07E340007022881B7
:101F20007C6B744C90000CF0744590000DF0744480
:101F300090000EF0744090000FF07402900010F0CA
:101F4000E4900011F05E60077CB6C40354F87C6B2B
:101F50007CB754074CB6900012F07E34000702287C
:101F600081CAF8740E7E700112205774111221403C
:101F70007CFB30E50874117E70401220577CBF3026
:101F8000E20774116C771220579000900BEA304DE5
:101F90003368089000900BEA309934C202DAF822D4
:101FA000CA799001301BEA00791E00027E340130AC
:101FB0007E24000190019A793E00021BEA207E14E3
:101FC000000C7E040001900130693E00020BEA2003
:101FD0001200EE7D730A371228817D37DA7922CA22
:101FE0003B7D727CCB1227177406900010F074C6EC
:101FF000900011F07401900012F09000137AEBC081
:102000009000147AEB707E3400157E2400011B1AB8
:10201000707E34000B122881DA3B22CA3B7D727C31
:10202000CB1227177406900010F074C6900011F0C0
:102030007402900012F09000137AEBC09000147AB2
:10204000EB707E3400157E2400011B1A707E340074
:102050000B122881DA3B227CA77C7BE5FC20E7FB86
:102060007CB7547FF5FC0000000000000000000079
:102070000000000000000000000000000000000060
:1020800000000000000000000000000000007AA135
:10209000EC22CA3B7D727CCB12271774069000108D
:1020A000F074C6900011F0E4900012F09000137AE2
:1020B000EBC09000147AEB707E3400157E24000192
:1020C0001B1A707E34000B122881DA3B22CA3B7F38
:1020D00030CAB80BFD74161221407AFBB039BFFF2D
:1020E000FF800C29BFFFFE1221407A3BB00B747EAB
:1020F000FBA07CBA147AFBB04CAA78E729BFFFFF9B
:102100009EF80003DA3B229001921BEA307E3401F4
:10211000937E2400017E1B307E3401947E240001D6
:102120007A1B307E3401927E2400017E1B307E3487
:1021300001957E2400017A1B309001940BEA302235
:102140007CABE5FC20E7FB7CBA4480F5FC0000009A
:10215000000000000000000000000000000000007F
:10216000000000000000000000000000000000006F
:102170000000000000E5EC22CA3B1227497443909E
:102180000010F0E4900011F0900012F0900013F0B5
:102190007E340008CA397F107E1400147E040001CA
:1021A0001223EF1BFD7E340010122881DA3B22CA75
:1021B0003B7F311227497444900010F07401900065
:1021C00011F0E4900012F0900013F07E3400147EC1
:1021D000240001797100021B1A607E34000C122861
:1021E00081DA3B22900092E0B40409900000E0BE46
:1021F000B0A168030228587E34017D7E240001903E
:1022000000D6793E00021BEA209000060BEA3090CF
:1022100000D41BEA30022829900092E0B40409900F
:102220000000E0BEB02168030228587E34017D7EA4
:102230002400019000D6793E00021BEA209000069F
:102240000BEA309000D41BEA3002284A7CAB7E3483
:10225000FBF17E24007E7E1BB020E7F27CBA448036
:102260007A1BB07E34FBF17E24007E7E1BB020E71B
:10227000F27E34FBF27E24007E7E1BB0227CAB7E9D
:1022800034FBF57E24007E7E1BB020E7F27CBA444E
:10229000807A1BB07E34FBF57E24007E7E1BB0204E
:1022A000E7F27E34FBF67E24007E7E1BB022CAF865
:1022B000740E7E700212205774111221407CFB3084
:1022C000E50874117E70401220577CBF30E207741D
:1022D000116C77122057DAF822900092E0B4041DB6
:1022E000900000E0B40116900003E070109000052B
:1022F000E0700A9000060BEA304D3368030228585C
:102300000228747D2300000000000000000000008F
:1023100000000000000000000000000000000000BD
:102320000000007D321B347D2378DA22CA3BCA7854
:102330007F30CAB8800B7EFBB07E3B700B741220DE
:102340005729AFFFFF7CBA1439BFFFFF4CAA78E6CC
:102350001BFDDA3B22CAF87CFB1227307403900085
:1023600010F074A3900011F07402900012F090002D
:10237000137AEBF07E340008122881DAF8227C7B95
:102380007CAB5EA00FE5BC54F04CBAF5BC43BC403E
:10239000E5BC30E5FB53BCDFE5BD7C4B6C55E5BED1
:1023A0000A3B4D32227CA77C3B7E34FBF17E24002D
:1023B0007E7E1BB020E7F27EF4FBF27EE4007E7AA4
:1023C0007BA07CB3547F7A1BB0227CA77C3B7E34FD
:1023D000FBF57E24007E7E1BB020E7F27EF4FBF648
:1023E0007EE4007E7A7BA07CB3547F7A1BB0227F90
:1023F000217F707F10800A7E2B307A1B300B540BAC
:1024000034691FFFFD7D011B04790FFFFD4D11781D
:10241000E67F1722CAF87CFB12271774029000107F
:10242000F074C5900011F09000127AEBF07E340049
:1024300007122881DAF822CAF87CFB1227177402E7
:10244000900010F074C4900011F09000127AEBF03C
:102450007E340007122881DAF822CAF87CFB1227A2
:10246000307402900010F074A5900011F0900012EA
:102470007AEBF07E340007122881DAF822538EF7C7
:10248000438E0443AF0474017E34FEA27E24007E9A
:102490007A1BB075D6B975D7B0438E102212082EAC
:1024A00074257E34032012108C74267E340320128F
:1024B000108C74277E34032002108C8012000000E0
:1024C0000000000000000000000000000000007D8F
:1024D000231B344D2278E622122717740290001035
:1024E000F074C7900011F07401900012F07E340077
:1024F000070228811227177402900010F074C09010
:102500000011F07401900012F07E3400070228815F
:102510001227307402900010F074A3900011F07430
:1025200001900012F07E34000702288112273074D7
:1025300002900010F074A4900011F0740190001249
:10254000F07E3400070228811227177402900010D1
:10255000F074C2900011F07401900012F07E34000B
:10256000070228811227307402900010F074A290A4
:102570000011F07402900012F07E340007022881EE
:102580001227177402900010F074C1900011F074BB
:1025900001900012F07E3400070228811227307467
:1025A00002900010F074A0900011F07401900012DD
:1025B000F07E340007022881122730740290001048
:1025C000F074A2900011F07401900012F07E3400BB
:1025D000070228811227307402900010F074A19035
:1025E0000011F07401900012F07E3400070228817F
:1025F0001227177402900010F074C0900011F0E4DC
:10260000900012F07E3400070228811227307402F5
:10261000900010F074A4900011F0E4900012F07E8D
:102620003400070228811227177402900010F074FA
:10263000C7900011F0E4900012F07E3400070228E9
:10264000811227307402900010F074A0900011F0F5
:10265000E4900012F07E34000702288112273074C3
:1026600002900010F074A3900011F0E4900012F0BA
:102670007E3400070228811227177402900010F0A0
:1026800074C2900011F0E4900012F07E3400070252
:1026900028811227177402900010F074C190001165
:1026A000F0E4900012F07E340007022881122730F7
:1026B0007402900010F074A1900011F0E4900012E8
:1026C000F07E340007022881122730740290001037
:1026D000F074A2900011F0E4900012F07E34000734
:1026E000022881900001E024DF680A14680A0BB117
:1026F00078090222180221E40227ED022858CAF8BC
:102700000A5B2E5400201220CD7CFB74146C7712CF
:1027100020577CBFDAF822744F90000CF0744C9074
:10272000000DF0744590000EF0748090000FF022C0
:10273000744C90000CF0744390000DF074449000C1
:102740000EF0748090000FF022743790000CF0743B
:102750005390000DF0744590000EF0744790000FF8
:10276000F022A9C7AF740E7E700112205774146C4A
:1027700077122057C200A9D7AF22CA797D7380078C
:102780007E3403E81224BB7D371B744D3378F1DAB5
:10279000792275ED02226D0075ED022275ED04229D
:1027A0006D0075ED042275ED06227D237E341770D1
:1027B0007D131B147D3178F87D121B147D2178EC7C
:1027C000221227307401900010F074A6900011F0CE
:1027D0007E3400060228811227177401900010F041
:1027E00074C3900011F07E3400060228819000929C
:1027F000E0B40409900000E0BEB02168030228584C
:102800000228747CA77C7B0A5A2E54002012232CA9
:1028100074117E70010220577E14004C7E0400016A
:10282000900008E00A3B02120D74039000D3F0748C
:10283000117E704012205702183A1200669F007EE7
:102840003428E67E2400FF0200CE74049000D3F00A
:1028500074117E704002205774059000D3F07411FB
:102860007E70600220576D3380020B347E0BB00BFC
:102870001470F722E49000D3F074117E70480220A7
:10288000577E14000C7E04000102120D90008C791A
:102890001E00021BEA00221212C87E3428180228E9
:1028A000A89000901BEA302290000A1BEA30220216
:1028B000285802285828302900000201018E000003
:1028C0000002010190000000010100090000020166
:1028D000000A0000000401008C00FF28F50002013E
:1028E000009000000000300048656C6C6F2055536C
:0E28F00042210D0A0040535443495350230027
:00000001FF
