:100000000217209000901BEA302222021C96CA3B65
:100010009001641BEA307F30900092E0B4040280CB
:10002000030200C66D339001671BEA307E341388EB
:100030009001691BEA30A9C7AF740E7E7001121AD5
:10004000707411121B5930E019A9D7AF7E34000A21
:10005000121E4C9001690BEA301B341BEA306866B3
:1000600080D49001640BEA30BE3400400804744030
:1000700080027CB7900166F0A9C7AFC202740E7E01
:100080007001121A709001670BEA307F032D1390F4
:100090000166E07E70011221ACD202A9D7AF9001B7
:1000A00066E00A2B9001670BEA302D321BEA309094
:1000B00001640BEA309D321BEA30900166E0BEB06D
:0A00C00040400302002CDA3B22222C
:1000CB000210F87F707F517EC400017ED4015C7EEC
:1000DB009400E102013D4005E47A7BB0227A7BB0CB
:1000EB000B7C227F707F519001840BEAC069DE008C
:1000FB00027E94010302013D4005E47A7BB0227A33
:10010B007BB00B7C22540F2490D43440D430F30CAE
:10011B00BEB0414007BEB05B500224204CCC6802FD
:10012B001BC00B84D389944CCC680B742012012711
:10013B0080F5CA3B6D889F337CAE7E5BB00B5C70E9
:10014B0007C37D38DA3B8994B42569C2F37E5BB073
:10015B000B5CA5F824D0BEB00A501B7E500A20F6CB
:10016B000DAC5CA52D7CCB70034EF00180DDAC5D3E
:10017B00A52D7CDB80D524CFBEB01AA5E850055E3B
:10018B0000DFD2F3900512A3E4936011BCB078F7B3
:10019B007417934CAB30F6B34EF08080AEA3E49360
:1001AB006010BCB078F77416937C3B7423937C2B54
:1001BB0089147CB08013742012012720F205BEC075
:1001CB000250F31B6D29B600011201270201321BED
:1001DB006E691600020B6A00BE08000078087E04E8
:1001EB0000FF7E14226420F21E4CCC681A7F10E4B0
:1001FB007E1B804C8868070B1C04BCBD78F2C2F6D2
:10020B00CA0B120311DA0B7E0BB060C0CA0B1201C2
:10021B0027DA0B0B0C4CDD68EE1BD078EA80ADD2E5
:10022B00F07E101080037E10085EB05F800AD2F65D
:10023B007E100A80057E100AC2F66D119F117E009A
:10024B00201B6C7E6B7030F6021A3720F1051B6C8D
:10025B007E6B6030F6041A261A2430F0051B6D0BEA
:10026B006A20A5EC3382F692F6500A7CEA9F229F15
:10027B00217F127CAE4C44780F7C457C567C676C9E
:10028B00772E00F878EF80122F117CB3337C3B9CD8
:10029B00B140047C3B0B70A5D8EE7CB230E005DAA4
:1002AB00B8C44C3BCA380B207E00207E3000BE18F1
:1002BB00000078C1BE1008780730F404C2F480B592
:1002CB00CA287CB2BCBD38027CBD120311DA28BC33
:1002DB002D500A1BD0E4CA2812011080F07CB213F7
:1002EB00DAB84004C4CAB8C4CA28BEF08040095C5E
:1002FB00DD7805A5DA0260065EF07F120110DA28C0
:10030B00A5DADA020132BEF001680F30F4022402E2
:10031B0020F50620F70330F6010420F229BCBC506F
:10032B0025CAB87CBF13B0E67420501174307C8A98
:10033B005E80F068081203515EA00F800312012744
:10034B00DAB8BCBC78DB30F40F7430120127745868
:10035B0030F302747812012730F605742D02012751
:10036B00742B20F5F8742020F7F3221B6C7E6BB0F6
:10037B0010F1021B6C20F60B30E704F404D2F27C74
:10038B00CB800520E7057CDB0201565EF07F80F811
:10039B001B6E691600020B6A0030F0076D221B0AF8
:1003AB00200B0D1B0A80020141E46C22BE3007506A
:1003BB000B7F1F2D312E34FFF77E39B0227CBF20EF
:1003CB00E7A8742E4EF0800201271204FB403D7CFF
:1003DB00BD7003047CDB1206127C3D4C3368101B92
:1003EB00307CBE20E4091203B470044C3378F07CEB
:1003FB00BD7CD3BEA0FD481CBCAB5818E49CBA2CEA
:10040B00B31801E47CDB02049C1204FB406E7CBD40
:10041B00041206127AFBA07CAE7CBDA2F492F0C251
:10042B00F4400260010424051203117E30FF0B30EF
:10043B001203B4CA3812011020F0044CDD68031209
:10044B0003C8DA38BC3D78E6740E120110742B7EAB
:10045B00FBA030F707742D6EA0FF0BA07AFBA01248
:10046B0001277EA00A7EFBB0847AFBA01201107ECE
:10047B00FBB01201109EF80008020132D2F27ED0BE
:10048B00000201F11204FB40F37CBA2CBD041206EE
:10049B00127AFBA07CBA7CAE30E701E40420F404B2
:1004AB004CDD6805D2F0C2F4042CBD1203116C3381
:1004BB007EFBB0601B20E712147AFBB01203B4CAA8
:1004CB0038120110DA380B3080E6047AFBB01B309F
:1004DB001203B4CA381201104CDD68071203C81B93
:1004EB00D080E19EF8000930F0031203C8020132FC
:1004FB007CEA7CAF10F7037ED0067CFA1B6E693664
:10050B0000020B6A2002055A2D2B204C4248232E49
:10051B000053584F44494355502A4E464547000413
:10052B0020800102001040DA2C313939C6402A767E
:10053B009B8F14D501020202020102020303040481
:10054B00034E614E002B494E46002D494E46007D11
:10055B00522D557CBE92E67CEB7CBA601F04702852
:10056B007CB5C2E77E0400FF60067E14054CD322E7
:10057B007E14055540047E140550D322DA099F22C0
:10058B00CA2BCA2BC3CA09220A0A7E144D10AD10FE
:10059B009E083AF09E10267CB5C2E77EA0567C9B47
:1005AB00A46E54FFFF2E54C511ACA92D15E4A5392B
:1005BB00CAB8CA1B20E70A1207A6DA1B1206F58077
:1005CB000AF4041207A6DA1B120655DAA87CB53317
:1005DB007CB4334E50806C4424822F111478FBDA98
:1005EB00497407BE400A40099E400ACA0201140B17
:1005FB00A0CA486C442F117F012F112F112F1014FB
:10060B0078EFCA48CA49227F0F20E73ABEB00740AD
:10061B000274070A0B2D109E1400097E19B02EB020
:10062B00FB501F4C116817E47A19B01B147E19B0DC
:10063B00047A19B0B40A0BE47A19B0A5D9ED0BA062
:10064B0074017A19B0225EE0BF225D22680D5D0055
:10065B0078122D220B4068099F11222D000B007878
:10066B00F902081A1207DD5C800B806808248150A0
:10067B00072CB0500A0208222CB0400302081F7C42
:10068B008B5D1178267CB17CA5BE1080680A5D332A
:10069B00780DA5BD80057F1002080C6D0080307FA2
:1006AB00017C5B7CB17CA5AD1280245D337806A503
:1006BB00BD80F080E1CA887D41AD437CB17CA5ADA6
:1006CB00122D1450020B047C5BAD232F01DA88A48E
:1006DB002D05BE008040060B80780480982F007C8F
:1006EB00437C507C617C720207F6BE24FFFF6806D8
:1006FB00BE04FFFF780302081A1207DD5CB0046822
:10070B00F57CB8A54868EF7CB870039F1122A5B89B
:10071B0000030208222E008150079C803807020834
:10072B001F9C8050ED0A51C2E74D51780302080C13
:10073B007E5400807E901A6C0080061B9068142FEC
:10074B0011BF1040049F104CAB0330E7EECAA86CEE
:10075B00AA80E8DA39DA587C4ABE5080500A1B80EE
:10076B0068BC2F1150020B700207F63F800000414E
:10077B0020000042C80000447A0000461C4000479D
:10078B00C35000497424004B1896804CBEBC205AB1
:10079B000E1BCA6753C21C749DC5AE7C7B6006548E
:1007AB0007681623231207CB7CB75438680A7F10CF
:1007BB001207C81206557F01227CB7543803241C3C
:1007CB006CAA2E5407767E4400FF0B2A0069120098
:1007DB0002222D0092D50E104E10807D422D4450DA
:1007EB0002B2D54E50806C447CB8222C4450120B74
:1007FB001C7E40005E507FBE18000078040B8068A2
:10080B0016A2D57CB8137C4B7CB592E77C5B227E21
:10081B001CFFFF229F11227E24FF8020D5026C45F6
:10082B006D3322CAF89000007EEBF07CBF5480B48D
:10083B008018900003E07032900002E0702C900062
:10084B00060BEA30BE34000268030209327CBF5447
:10085B000F14681B14683C0BB1680302093290003B
:10086B0005E07006900004E0601E020932801990CA
:10087B000092E0B4040F900005E06003020932908F
:10088B000004E060030209327E3410EC7E2400FF8A
:10089B0002091A900092E0B40406900005E0600390
:1008AB000209329000047EEB707CA75EA00F1B70D8
:1008BB0068342E707F68040B70786C7E2400017C8A
:1008CB00BA60053E241478FB9000DAE00A3B5D32F7
:1008DB00680A7E3410EE7E2400FF80337E3410ECE9
:1008EB007E2400FF80297E2400017CBA60053E2413
:1008FB001478FB9000DBE00A3B5D32680A7E341013
:10090B00EE7E2400FF80087E3410EC7E2400FF90E6
:10091B0000D6793E00021BEA207E3400029000D400
:10092B001BEA308007800012220480031221D5DAE3
:10093B00F82274017E34FE0B7E24007E7A1BB07E7F
:10094B0034FE907A1BB07E34FE947A1BB07E34FE5C
:10095B00917A1BB07E34FE927A1BB07E34FE937A72
:10096B001BB07E34FE087E1BB044807A1BB07E1B0E
:10097B00B044407A1BB07E34FE087E24007E7E1B82
:10098B00B030E0F27E34FE047E24007E7E1BB04449
:10099B00807A1BB07E34FE047E24007E7E1BB0303A
:1009AB00E0F27E34FE077E24007E7E1BB044807A0C
:1009BB001BB07E34FE077E24007E7E1BB030E0F23F
:1009CB00740A7E34FE017E24007E7A1BB07E34FDD9
:1009DB00EC7E1BB0F59F7E34FDF77E1BB0F5A6E5D4
:1009EB009D54FC4402F59D7E34FE007E1BB054FCEE
:1009FB007A1BB07E1BB044807A1BB0E5DC549F445D
:100A0B0020F5DC43DC807E3400011221537E34FE62
:100A1B00007E24007E7E1BB054F344047A1BB0741A
:100A2B00047E14FE017E04007E7A0BB07E1BB05454
:100A3B00BF7A1BB022CA79740E7E7001121A7074C1
:100A4B0014121B597CFB30E60874147E7080121A4A
:100A5B00707CBF20E003020B397E14004C7E040037
:100A6B00017421121AE6900008F090008C693E0088
:100A7B00020BEA204D237803020B1C6CFF020B11B7
:100A8B00900009E01A3B90008C691E00020BEA00F3
:100A9B002D317D207E1BA00A4F2E44004C7A918273
:100AAB007A81837EEBE0BCEA784090000904F090F9
:100ABB000009E01A3B2D317D207E1BB0704674146B
:100ACB006C77121A70E47E34FE007E24007E7A1B53
:100ADB00B075F40053DCF07E34FE077A1BB07E3425
:100AEB00000A12212375C76080FE90008C693E00BE
:100AFB00020BEA207E1B70BCE7780474018001E4D2
:100B0B00900009F00BF0900008E0BCFB5003020AC8
:100B1B008BD20090000A0BEA304D33681190000A1B
:100B2B000BEA30993474146C77121A70C200DA79AC
:100B3B0022900000E05480BEB0806803020BEA9064
:100B4B000003E01BB168221468370BB16803020B7A
:100B5B00EA7E3410977E2400FF9000D6793E000287
:100B6B001BEA207E340012806C7E3410A97E240098
:100B7B00FF9000D6793E00021BEA207E34004380B2
:100B8B0054900002E014681F1468340BB178507E47
:100B9B003410937E2400FF9000D6793E00021BEAAE
:100BAB00207E340004802E7E3410F07E2400FF90D3
:100BBB0000D6793E00021BEA207E34000880167EA8
:100BCB003410757E2400FF9000D6793E00021BEA9C
:100BDB00207E34001E9000D41BEA3080058000027A
:100BEB0022049000060BEA309000D40BEA20BD23C0
:100BFB0028069000D41BEA300221D553B2FC43B136
:100C0B000374807E34FE077E24007E7A1BB07E3414
:100C1B00FE077E24007E7E1BB030E0F253DCF075C5
:100C2B00F490E46C77121A7074017E7008121A70CB
:100C3B0074077E703F121A7074097E703F121A701F
:100C4B00740B7E7007121A7074016C77121A707421
:100C5B0002900092F0E49000D3F09000DAF0900054
:100C6B00DBF0C2027E3401007E2400C290016B795E
:100C7B003E00021BEA2090016FF0900170F07408A7
:100C8B00900171F0A9D7AF740190018CF090018C99
:100C9B00E070119F11900184793E00021BEA209FA6
:100CAB00000200EE22CA3B9001771BEA307F306DC9
:100CBB003390017A020D477438900179F0900177E7
:100CCB000BEA50BE5400385004900179F01220A862
:100CDB00900179E00A5B2E540003900010F074CF62
:100CEB00900011F090017A0BEA107E3400127E24F2
:100CFB0000011B1A10900179E00A3BCA397F137E61
:100D0B001400147E040001121DBE1BFD900179E03E
:100D1B000A3B2E3400080A3712223A900179E00A76
:100D2B003B2D73900179E00A2B90017A0BEA302D61
:100D3B00321BEA309001770BEA309D321BEA309080
:100D4B0001770BEA304D336803020CC2DA3B22CA3F
:100D5B003B9001721BEA307F306D33900175020DB1
:100D6B00F17438900174F09001720BEA50BE54008C
:100D7B00385004900174F01220C1900174E00A5BAA
:100D8B002E540003900010F074AF900011F09001FE
:100D9B00750BEA107E3400127E2400011B1A109092
:100DAB000174E00A3BCA397F137E1400147E0400E1
:100DBB0001121DBE1BFD900174E00A3B2E3400088E
:100DCB000A3712223A900174E00A3B2D739001749A
:100DDB00E00A2B9001750BEA302D321BEA309001A3
:100DEB00720BEA309D321BEA309001720BEA304DE8
:100DFB00336803020D6CDA3B22900092E0BEB00226
:100E0B006822900000E0701C900003E070169000C8
:100E1B0005E07010900004E0700A9000060BEA30B9
:100E2B004D336803022204900002E0B4015F7404A6
:100E3B00900092F0E49000DAF09000DBF0740E7EFC
:100E4B007001121A7074127E7020121A7074107E58
:100E5B007008121A70740E7E7002121A7074127E61
:100E6B007020121A7074107E7008121A70740E7E35
:100E7B007001121A7074126C77121A7074137E70E0
:100E8B0008121A70740E6C77121A7080107403901B
:100E9B000092F074FF9000DAF09000DBF002222D4C
:100EAB00900092E0B40429900000E0B4022290007C
:100EBB0005E06003020F49900003E06003020F4955
:100ECB00900002E070789000060BEA304D33680218
:100EDB00806C9000047EEB607C765E700F1B60680C
:100EEB002E2E607F68040B6078547E2400017CB743
:100EFB0060053E241478FB7C656E60FF9000DAE0A1
:100F0B005CB6F0740E121A7074117E704080237EE2
:100F1B002400017CB760053E241478FB7C656E6071
:100F2B00FF9000DBE05CB6F0740E121A7074147E46
:100F3B007080121A70740E6C77121A708003022272
:100F4B000402222D900092E0B40423900000E0B440
:100F5B00021C900005E0707A900003E07074900022
:100F6B0002E0706E9000060BEA304D33680280622F
:100F7B009000047EEB607C765E700F1B6068292E00
:100F8B00607F68040B60784A7E2400017CB76005A3
:100F9B003E241478FB9000DAE04CB5F0740E121A74
:100FAB007074117E7010801E7E2400017CB760056A
:100FBB003E241478FB9000DBE04CB5F0740E121A53
:100FCB007074147E7020121A70740E6C77121A7073
:100FDB00800302220402222DCAF8740E6C77121AB7
:100FEB00707411121B597CFB30E20F74117C7F5E05
:100FFB0070FB121A70E49000D3F07CBF30E40A74DB
:10100B00117C7F4E7080121A709000D3E024FD6823
:10101B004E1468500BB2784F7CBF30E04A7E140000
:10102B00007E0400017420121AE69000060BEA30D1
:10103B00121B209000061BEA30900000E054602445
:10104B00E0680D24E0680E2440780F12137A8017A5
:10105B00121F818012122261800D1222048008124D
:10106B0011788003121260DAF8221E035300540029
:10107B004300200055005300420020005300650040
:10108B007200690061006C00040309041201000284
:10109B0002000040BF3402FF0001010200010902FF
:1010AB00430002010080320904000001020201002A
:1010BB00052400100105240100010424020205246B
:1010CB00060001070582034000FF09040100020A24
:1010DB0000000007058102400000070501024000E7
:1010EB0000000001000803530054004300CA7BCAF0
:1010FB006BCA5BCA4BCA3BCA2BCA1BCA0BC0D0C03C
:10110B0083C0827EF1FC7406121B597CEB740212B5
:10111B001B597CCB7404121B597CDB7CBE30E10366
:10112B001200C97CBE30E2031216467CBC30E003D1
:10113B00120FE37CBC30E10312197A7CBC30E20362
:10114B00121CC47CBD30E103120A407CBE30E003AC
:10115B0012000A7AF1FCD082D083D0D0DA0BDA1BE2
:10116B00DA2BDA3BDA4BDA5BDA6BDA7B32CAF874FE
:10117B000E6C77121A707411121B5920E1679000D4
:10118B00D40BEA30BE34004028057EF04080027C50
:10119B00F79000D6691E00020BEA007C7F742012C8
:1011AB001D6C0A2F9000D40BEA309D321BEA300ADB
:1011BB00159000D6693E00020BEA202D31793E00D6
:1011CB00021BEA209000D40BEA304D33780F7411D8
:1011DB007E700A121A70E49000D3F0800874117EAE
:1011EB007002121A70DAF82290015C1BEA20793E29
:1011FB0000027E34015F7E2400017E1B307E3401B1
:10120B00607E2400017A1B307E34015E7E24000157
:10121B007E1B307E3401617E2400017A1B307E34CC
:10122B00015D7E2400017E1B307E3401627E240032
:10123B00017A1B307E34015C7E2400017E1B307EE4
:10124B003401637E2400017A1B30900160693E00FB
:10125B00020BEA2022740E6C77121A707411121B97
:10126B005930E04F9000D6691E00020BEA00742043
:10127B00121AE60A1B9000D40BEA209D211BEA20D0
:10128B009000D6693E00020BEA202D31793E000218
:10129B001BEA209000D40BEA304D33780E74117E8C
:1012AB007048121A70E49000D3F02274117E7040D3
:1012BB00021A7022900000E0B48024900003E070CA
:1012CB001E900002E07018900005E0701290000470
:1012DB00E0700C9000060BEA30BE3400016803028C
:1012EB002204900092E0B4040A7E3410EE7E2400B7
:1012FB00FF80087E3410EC7E2400FF9000D6793EF0
:10130B0000021BEA207E3400019000D41BEA30025D
:10131B0021D5CA799001041BEA00791E0002122024
:10132B00DA7453900010F0E4900011F0900012F07A
:10133B00900013F07E3401047E2400019001847927
:10134B003E00021BEA207E1400147E040001900173
:10135B0004693E00020BEA201200EE7D732E74002E
:10136B00087D370B340A3712223A7D37DA7922900F
:10137B000001E0BEB00D50507EA003A490138B7300
:10138B000213B20213B50213D30213B80213D30222
:10139B0013BB0213BE0213C10213C40213C7021301
:1013AB00CA0213CD0213D002082E020EAB020F4F4E
:1013BB000214CD020B3C02225B0212BF020E04028E
:1013CB0016D8021D1902225E02220475C8FF53CAE9
:1013DB00C053C9C053CA3F43C9C074FF7E34FE4DCE
:1013EB007E24007E7A1BB0E47E34FE157A1BB07E21
:1013FB0034FE457A1BB07E34FE1D7A1BB074FF7E23
:10140B0034FE257A1BB07E34FE2D7A1BB07E34FE63
:10141B00357E1BB0443F7A1BB07E1BB0543F7A1B0A
:10142B00B022CA3B7F707CF57CE67CD77CCBCA7B39
:10143B000A366D222F110A1F6D0012213BDA0B1297
:10144B000D5A1220C17405900010F074A890001171
:10145B00F09000127AEBC09000137AEBD09000144E
:10146B007AEBE09000157AEBF07E34000A12223A08
:10147B00DA3B22121C65759300759400759100750B
:10148B00920075950075960075B10075B20075B335
:10149B000075B40075C90075CA0075CB0075CC001A
:1014AB0075E10075E2007580FF7590FF75A0FF7503
:1014BB00B0FF75C0FF75C8FFC2C2121CEF1220F33C
:1014CB0080FBCAF8900000E07027900005E07021C7
:1014DB00900004E0701B900003E070159000027EFA
:1014EB00EBF0BEF080500A9000060BEA304D3368EB
:1014FB00051222048017E47C7F121A704CFF6804DB
:10150B00740380027402900092F012222DDAF822FA
:10151B00CAF87CFBBEF03B28037EF03B744C90007A
:10152B000CF0744590000DF0744490000EF074288C
:10153B0090000FF09000107AEBF00A3FCA397F1041
:10154B007E1400117E040001121DBE1BFD0A3F2EEE
:10155B003400050A3712223ADAF822CAF87CFBBEAD
:10156B00F03B28037EF03B744C90000CF0744590DC
:10157B00000DF0744490000EF0744090000FF0904A
:10158B0000107AEBF00A3FCA397F107E1400117EEF
:10159B00040001121DBE1BFD0A3F2E3400050A3745
:1015AB0012223ADAF822CAF87CFB9001801BEA205F
:1015BB00793E00021220DA744C900010F074019006
:1015CB000011F09000127AEBF0E4900013F0900110
:1015DB0080691E00020BEA007E3400147E24000199
:1015EB00791100021B1A007E34000C12223ADAF831
:1015FB002275B0FF53B20353B10353B2FC43B10393
:10160B0074FF7E34FE4B7E24007E7A1BB0E47E3466
:10161B00FE137A1BB07E34FE437A1BB07E34FE1B66
:10162B007A1BB074FF7E34FE237A1BB07E34FE2B04
:10163B007A1BB07E34FE337A1BB022E46C77121A1D
:10164B00707402900092F0E49000D3F0C202740E1A
:10165B007E7001121A7074117E7048121A70740E1B
:10166B007E7002121A7074117E7048121A70740E0A
:10167B007E7001121A7074147E7090121A70740EB0
:10168B006C77021A70E59D54FC4403F59D7E34FD86
:10169B00A87E24007E7E1BB054BF7A1BB07E1BB08D
:1016AB0054CF7A1BB0744C7E14FDA97E04007E7A55
:1016BB000BB0744B7E14FDAA7A0BB074A77E14FD8D
:1016CB00AB7A0BB07E1BB044807A1BB02290009299
:1016DB00E0B4041F900000E0B48118900003E070A8
:1016EB0012900005E0700C9000060BEA30BE34003F
:1016FB000168030222047E3410EC7E2400FF90006C
:10170B00D6793E00021BEA207E3400019000D41BE8
:10171B00EA300221D57584017E44041FE47A49B076
:10172B001B4478F97EF800207E0400FF7E142268AB
:10173B000B0A405D446822295000020A25693000DB
:10174B00032E0800050B44800A7E0BB07A1BB00BEE
:10175B001C0B0C1B4478F280D70221E67CA77C7B08
:10176B00744C90000CF0744590000DF07444900094
:10177B000EF0742890000FF07402900010F07CB7FC
:10178B0054077E44000160053E441478FB7CB990FD
:10179B000011F09000127AEBA07E34000702223A7F
:1017AB007CA77C7B744C90000CF0744590000DF082
:1017BB00744490000EF0744090000FF0740290008F
:1017CB0010F07CB754077E44000160053E4414784A
:1017DB00FB7CB9900011F09000127AEBA07E3400E4
:1017EB000702223A7C6B744C90000CF0744590000D
:1017FB000DF0744490000EF0742890000FF07402FA
:10180B00900010F0E4900011F07CB65407C4035420
:10181B00F87C6B4E60807CB754074CB6900012F08E
:10182B007E34000702223A7C6B744C90000CF074EF
:10183B004590000DF0744490000EF0744090000F32
:10184B00F07402900010F0E4900011F07CB6540795
:10185B00C40354F87C6B4E60807CB754074CB69035
:10186B000012F07E34000702223ACA3B7CF57CE67C
:10187B007CD77CCB7C7EAC7F120CB01220A874057D
:10188B00900010F074C8900011F09000127AEBC029
:10189B009000137AEBD09000147AEBE09000157A5D
:1018AB00EBF07E34000A12223ADA3B22CA3B7F303D
:1018BB0090018B7AEB7090018AF01222120B347F1D
:1018CB0003120D5A1220C17403900010F074A790EC
:1018DB000011F090018AE0900012F090018BE090E3
:1018EB000013F07E34000812223ADA3B227C6B7430
:1018FB004C90000CF0744590000DF0744490000E69
:10190B00F0742890000FF07402900010F0E4900037
:10191B0011F05E60077CB6C40354F87C6B7CB75443
:10192B00074CB6900012F07E34000702223A7C6B13
:10193B00744C90000CF0744590000DF074449000C2
:10194B000EF0744090000FF07402900010F0E490D1
:10195B000011F05E60077CB6C40354F87C6B7CB757
:10196B0054074CB6900012F07E34000702223ACA9C
:10197B00F8740E7E7001121A707411121B597CFBD5
:10198B0030E50874117E7040121A707CBF30E2078C
:10199B0074116C77121A709000900BEA304D33680B
:1019AB00089000900BEA309934C202DAF822CA7917
:1019BB009001301BEA00791E00027E3401307E2438
:1019CB000001900184793E00021BEA207E14000C7A
:1019DB007E040001900130693E00020BEA201200E8
:1019EB00EE7D730A3712223A7D37DA7922CA3B7DB4
:1019FB00727CCB1220A87406900010F074C6900075
:101A0B0011F07401900012F09000137AEBC090006B
:101A1B00147AEB707E3400157E2400011B1A707E45
:101A2B0034000B12223ADA3B22CA3B7D727CCB127A
:101A3B0020A87406900010F074C6900011F0740288
:101A4B00900012F09000137AEBC09000147AEB70B8
:101A5B007E3400157E2400011B1A707E34000B129D
:101A6B00223ADA3B227CA77C7BE5FC20E7FB7CB7A8
:101A7B00547FF5FC00000000000000000000000097
:101A8B00000000000000000000000000000000004B
:101A9B000000000000000000000000007AA1EC2212
:101AAB00CA3B7D727CCB1220A87406900010F07498
:101ABB00C6900011F0E4900012F09000137AEBC086
:101ACB009000147AEB707E3400157E2400011B1AF3
:101ADB00707E34000B12223ADA3B22CA3B7F30CAAB
:101AEB00B80BFD7416121B597AFBB039BFFFFF8080
:101AFB000C29BFFFFE121B597A3BB00B747EFBA067
:101B0B007CBA147AFBB04CAA78E729BFFFFF9EF88A
:101B1B000003DA3B2290017C1BEA307E34017D7E90
:101B2B002400017E1B307E34017E7E2400017A1B53
:101B3B00307E34017C7E2400017E1B307E34017F9D
:101B4B007E2400017A1B3090017E0BEA30227CABA5
:101B5B00E5FC20E7FB7CBA4480F5FC0000000000AC
:101B6B00000000000000000000000000000000006A
:101B7B00000000000000000000000000000000005A
:101B8B00000000E5EC22CA3B1220DA7443900010EF
:101B9B00F0E4900011F0900012F0900013F07E34FE
:101BAB000008CA397F107E1400147E040001121D38
:101BBB00BE1BFD7E34001012223ADA3B22CA3B7F59
:101BCB00311220DA7444900010F07401900011F07F
:101BDB00E4900012F0900013F07E3400147E240089
:101BEB0001797100021B1A607E34000C12223ADA62
:101BFB003B22900092E0B40409900000E0BEB0A13B
:101C0B0068030222047E34016B7E2400019000D60F
:101C1B00793E00021BEA209000060BEA309000D4BC
:101C2B001BEA300221D5900092E0B4040990000029
:101C3B00E0BEB02168030222047E34016B7E2400D7
:101C4B00019000D6793E00021BEA209000060BEAB9
:101C5B00309000D41BEA300221F643BA8075E900BC
:101C6B0053EAF875F5241215FC1213D612093D121E
:101C7B0016907E3400011221531221C17E340001D3
:101C8B00122153122257D2AF022220CA39C083C06D
:101C9B00829001880BEA300B341BEA309001880BE1
:101CAB00EA30BE34000A400A6D339001881BEA30DB
:101CBB00B2C2D082D083DA3932CAF8740E7E700287
:101CCB00121A707411121B597CFB30E50874117ECB
:101CDB007040121A707CBF30E20774116C77121AC5
:101CEB0070DAF8225389F0E589F589758AE0758CED
:101CFB00B1A9D7BA740B7E34FEA07E24007E7A1B6A
:101D0B00B0A9C7BA438E80D2A9D2AFD28C22900091
:101D1B0092E0B4041D900000E0B40116900003E0C3
:101D2B007010900005E0700A9000060BEA304D33FE
:101D3B00680302220402222D7D2300000000000014
:101D4B000000000000000000000000000000000088
:101D5B0000000000000000007D321B347D2378DA88
:101D6B0022CA3BCA787F30CAB8800B7EFBB07E3B61
:101D7B00700B74121A7029AFFFFF7CBA1439BFFFB6
:101D8B00FF4CAA78E61BFDDA3B22CAF87CFB12203B
:101D9B00C17403900010F074A3900011F0740290C2
:101DAB000012F09000137AEBF07E34000812223A06
:101DBB00DAF8227F217F707F10800A7E2B307A1B0E
:101DCB00300B540B34691FFFFD7D011B04790FFF92
:101DDB00FD4D1178E67F1722CAF87CFB1220A87400
:101DEB0002900010F074C5900011F09000127AEB85
:101DFB00F07E34000712223ADAF822CAF87CFB1282
:101E0B0020A87402900010F074C4900011F09000A0
:101E1B00127AEBF07E34000712223ADAF822CAF873
:101E2B007CFB1220C17402900010F074A59000117D
:101E3B00F09000127AEBF07E34000712223ADAF8B7
:101E4B0022801200000000000000000000000000D3
:101E5B0000000000007D231B344D2278E622122067
:101E6B00A87402900010F074C7900011F0740190E8
:101E7B000012F07E34000702223A1220A87402905E
:101E8B000010F074C0900011F07401900012F07EFD
:101E9B0034000702223A1220C17402900010F07431
:101EAB00A3900011F07401900012F07E3400070231
:101EBB00223A1220C17402900010F074A490001109
:101ECB00F07401900012F07E34000702223A1220C7
:101EDB00A87402900010F074C2900011F07401907D
:101EEB000012F07E34000702223A1220C1740290D5
:101EFB000010F074A2900011F07402900012F07EAA
:101F0B0034000702223A1220A87402900010F074D9
:101F1B00C1900011F07401900012F07E34000702A2
:101F2B00223A1220C17402900010F074A09000119C
:101F3B00F07401900012F07E34000702223A122056
:101F4B00C17402900010F074A2900011F074019013
:101F5B000012F07E34000702223A1220C174029064
:101F6B000010F074A1900011F07401900012F07E3B
:101F7B0034000702223A900001E024DF680A14685B
:101F8B000A0BB17809021C31021BFD02216A0222E5
:101F9B00041220A87402900010F074C0900011F08D
:101FAB00E4900012F07E34000702223A1220C17432
:101FBB0002900010F074A4900011F0E4900012F065
:101FCB007E34000702223A1220A87402900010F00F
:101FDB0074C7900011F0E4900012F07E34000702F9
:101FEB00223A1220C17402900010F074A0900011DC
:101FFB00F0E4900012F07E34000702223A1220C166
:10200B007402900010F074A3900011F0E490001291
:10201B00F07E34000702223A1220A87402900010BE
:10202B00F074C2900011F0E4900012F07E340007BF
:10203B0002223A1220A87402900010F074C1900092
:10204B0011F0E4900012F07E34000702223A1220C5
:10205B00C17402900010F074A1900011F0E4900094
:10206B0012F07E34000702223A1220C17402900053
:10207B0010F074A2900011F0E4900012F07E340086
:10208B000702223ACAF80A5B2E540020121AE67C89
:10209B00FB74146C77121A707CBFDAF822744F90B1
:1020AB00000CF0744C90000DF0744590000EF07421
:1020BB008090000FF022744C90000CF07443900051
:1020CB000DF0744490000EF0748090000FF02274A9
:1020DB003790000CF0745390000DF0744590000E87
:1020EB00F0744790000FF0223000147E14004C7EE9
:1020FB00040001900008E00A3B12000E02210B22A3
:10210B00A9C7AF740E7E7001121A7074146C77121B
:10211B001A70C200A9D7AF22CA797D7380077E34AB
:10212B0003E8121E4C7D371B744D3378F1DA79229C
:10213B0075ED02226D0075ED022275ED04226D0026
:10214B0075ED042275ED06227D237E3417707D1309
:10215B001B147D3178F87D121B147D2178EC2290B5
:10216B000092E0B40409900000E0BEB021680302C5
:10217B00220402222D1220C17401900010F074A6CB
:10218B00900011F07E34000602223A1220A874014E
:10219B00900010F074C3900011F07E340006022200
:1021AB003A7CA77C7B0A5A2E540020121D6C7411AA
:1021BB007E7001021A70120C0653B57F53B67F7EE8
:1021CB0014228E7E0400FF02224574039000D3F08C
:1021DB0074117E7040121A7002117812147E9F00D7
:1021EB007E3422A07E2400FF0200CE74049000D324
:1021FB00F074117E7040021A7074059000D3F07465
:10220B00117E7060021A706D3380020B347E0BB03E
:10221B000B1470F722800343C110900092E0B404BA
:10222B00F622E49000D3F074117E7048021A707E8F
:10223B0014000C7E04000102000E90008C791E002D
:10224B00021BEA002290000A1BEA302275ED3E22A7
:10225B000222040222040222042830290000020177
:10226B0001880000000101000900000201000A00C2
:10227B0000000401008C00FF229700020100900077
:10228B0000000040535443495350230040535443E0
:07229B0049535023003000FD
:00000001FF
