:1000000002160A9000901BEA302222021B4FCA3BC4
:100010009001641BEA307F30900092E0B4040280CB
:10002000030200C66D339001671BEA307E341388EB
:100030009001691BEA30A9C7AF740E7E70011219D6
:100040005A7411121A4330E019A9D7AF7E34000A4E
:10005000121CFF9001690BEA301B341BEA30686602
:1000600080D49001640BEA30BE3400400804744030
:1000700080027CB7900166F0A9C7AFC202740E7E01
:10008000700112195A9001670BEA307F032D13900B
:100090000166E07E7001122047D202A9D7AF90011D
:1000A00066E00A2B9001670BEA302D321BEA309094
:1000B00001640BEA309D321BEA30900166E0BEB06D
:0A00C00040400302002CDA3B22222C
:1000CB000210D27F707F517EC400017ED4015C7E12
:1000DB009400E102013D4005E47A7BB0227A7BB0CB
:1000EB000B7C227F707F519001840BEAC069DE008C
:1000FB00027E94010302013D4005E47A7BB0227A33
:10010B007BB00B7C22540F2490D43440D430F30CAE
:10011B00BEB0414007BEB05B500224204CCC6802FD
:10012B001BC00B84D389944CCC680B742012012711
:10013B0080F5CA3B6D889F337CAE7E5BB00B5C70E9
:10014B0007C37D38DA3B8994B42569C2F37E5BB073
:10015B000B5CA5F824D0BEB00A501B7E500A20F6CB
:10016B000DAC5CA52D7CCB70034EF00180DDAC5D3E
:10017B00A52D7CDB80D524CFBEB01AA5E850055E3B
:10018B0000DFD2F3900512A3E4936011BCB078F7B3
:10019B007417934CAB30F6B34EF08080AEA3E49360
:1001AB006010BCB078F77416937C3B7423937C2B54
:1001BB0089147CB08013742012012720F205BEC075
:1001CB000250F31B6D29B600011201270201321BED
:1001DB006E691600020B6A00BE08000078087E04E8
:1001EB0000FF7E1420F520F21E4CCC681A7F10E421
:1001FB007E1B804C8868070B1C04BCBD78F2C2F6D2
:10020B00CA0B120311DA0B7E0BB060C0CA0B1201C2
:10021B0027DA0B0B0C4CDD68EE1BD078EA80ADD2E5
:10022B00F07E101080037E10085EB05F800AD2F65D
:10023B007E100A80057E100AC2F66D119F117E009A
:10024B00201B6C7E6B7030F6021A3720F1051B6C8D
:10025B007E6B6030F6041A261A2430F0051B6D0BEA
:10026B006A20A5EC3382F692F6500A7CEA9F229F15
:10027B00217F127CAE4C44780F7C457C567C676C9E
:10028B00772E00F878EF80122F117CB3337C3B9CD8
:10029B00B140047C3B0B70A5D8EE7CB230E005DAA4
:1002AB00B8C44C3BCA380B207E00207E3000BE18F1
:1002BB00000078C1BE1008780730F404C2F480B592
:1002CB00CA287CB2BCBD38027CBD120311DA28BC33
:1002DB002D500A1BD0E4CA2812011080F07CB213F7
:1002EB00DAB84004C4CAB8C4CA28BEF08040095C5E
:1002FB00DD7805A5DA0260065EF07F120110DA28C0
:10030B00A5DADA020132BEF001680F30F4022402E2
:10031B0020F50620F70330F6010420F229BCBC506F
:10032B0025CAB87CBF13B0E67420501174307C8A98
:10033B005E80F068081203515EA00F800312012744
:10034B00DAB8BCBC78DB30F40F7430120127745868
:10035B0030F302747812012730F605742D02012751
:10036B00742B20F5F8742020F7F3221B6C7E6BB0F6
:10037B0010F1021B6C20F60B30E704F404D2F27C74
:10038B00CB800520E7057CDB0201565EF07F80F811
:10039B001B6E691600020B6A0030F0076D221B0AF8
:1003AB00200B0D1B0A80020141E46C22BE3007506A
:1003BB000B7F1F2D312E34FFF77E39B0227CBF20EF
:1003CB00E7A8742E4EF0800201271204FB403D7CFF
:1003DB00BD7003047CDB1206127C3D4C3368101B92
:1003EB00307CBE20E4091203B470044C3378F07CEB
:1003FB00BD7CD3BEA0FD481CBCAB5818E49CBA2CEA
:10040B00B31801E47CDB02049C1204FB406E7CBD40
:10041B00041206127AFBA07CAE7CBDA2F492F0C251
:10042B00F4400260010424051203117E30FF0B30EF
:10043B001203B4CA3812011020F0044CDD68031209
:10044B0003C8DA38BC3D78E6740E120110742B7EAB
:10045B00FBA030F707742D6EA0FF0BA07AFBA01248
:10046B0001277EA00A7EFBB0847AFBA01201107ECE
:10047B00FBB01201109EF80008020132D2F27ED0BE
:10048B00000201F11204FB40F37CBA2CBD041206EE
:10049B00127AFBA07CBA7CAE30E701E40420F404B2
:1004AB004CDD6805D2F0C2F4042CBD1203116C3381
:1004BB007EFBB0601B20E712147AFBB01203B4CAA8
:1004CB0038120110DA380B3080E6047AFBB01B309F
:1004DB001203B4CA381201104CDD68071203C81B93
:1004EB00D080E19EF8000930F0031203C8020132FC
:1004FB007CEA7CAF10F7037ED0067CFA1B6E693664
:10050B0000020B6A2002055A2D2B204C4248232E49
:10051B000053584F44494355502A4E464547000413
:10052B0020800102001040DA2C313939C6402A767E
:10053B009B8F14D501020202020102020303040481
:10054B00034E614E002B494E46002D494E46007D11
:10055B00522D557CBE92E67CEB7CBA601F04702852
:10056B007CB5C2E77E0400FF60067E14054CD322E7
:10057B007E14055540047E140550D322DA099F22C0
:10058B00CA2BCA2BC3CA09220A0A7E144D10AD10FE
:10059B009E083AF09E10267CB5C2E77EA0567C9B47
:1005AB00A46E54FFFF2E54C511ACA92D15E4A5392B
:1005BB00CAB8CA1B20E70A1207A6DA1B1206F58077
:1005CB000AF4041207A6DA1B120655DAA87CB53317
:1005DB007CB4334E50806C4424822F111478FBDA98
:1005EB00497407BE400A40099E400ACA0201140B17
:1005FB00A0CA486C442F117F012F112F112F1014FB
:10060B0078EFCA48CA49227F0F20E73ABEB00740AD
:10061B000274070A0B2D109E1400097E19B02EB020
:10062B00FB501F4C116817E47A19B01B147E19B0DC
:10063B00047A19B0B40A0BE47A19B0A5D9ED0BA062
:10064B0074017A19B0225EE0BF225D22680D5D0055
:10065B0078122D220B4068099F11222D000B007878
:10066B00F902081A1207DD5C800B806808248150A0
:10067B00072CB0500A0208222CB0400302081F7C42
:10068B008B5D1178267CB17CA5BE1080680A5D332A
:10069B00780DA5BD80057F1002080C6D0080307FA2
:1006AB00017C5B7CB17CA5AD1280245D337806A503
:1006BB00BD80F080E1CA887D41AD437CB17CA5ADA6
:1006CB00122D1450020B047C5BAD232F01DA88A48E
:1006DB002D05BE008040060B80780480982F007C8F
:1006EB00437C507C617C720207F6BE24FFFF6806D8
:1006FB00BE04FFFF780302081A1207DD5CB0046822
:10070B00F57CB8A54868EF7CB870039F1122A5B89B
:10071B0000030208222E008150079C803807020834
:10072B001F9C8050ED0A51C2E74D51780302080C13
:10073B007E5400807E901A6C0080061B9068142FEC
:10074B0011BF1040049F104CAB0330E7EECAA86CEE
:10075B00AA80E8DA39DA587C4ABE5080500A1B80EE
:10076B0068BC2F1150020B700207F63F800000414E
:10077B0020000042C80000447A0000461C4000479D
:10078B00C35000497424004B1896804CBEBC205AB1
:10079B000E1BCA6753C21C749DC5AE7C7B6006548E
:1007AB0007681623231207CB7CB75438680A7F10CF
:1007BB001207C81206557F01227CB7543803241C3C
:1007CB006CAA2E5407767E4400FF0B2A0069120098
:1007DB0002222D0092D50E104E10807D422D4450DA
:1007EB0002B2D54E50806C447CB8222C4450120B74
:1007FB001C7E40005E507FBE18000078040B8068A2
:10080B0016A2D57CB8137C4B7CB592E77C5B227E21
:10081B001CFFFF229F11227E24FF8020D5026C45F6
:10082B006D3322CAF89000007EEBF07CBF5480B48D
:10083B008018900003E07032900002E0702C900062
:10084B00060BEA30BE34000268030209327CBF5447
:10085B000F14681B14683C0BB1680302093290003B
:10086B0005E07006900004E0601E020932801990CA
:10087B000092E0B4040F900005E06003020932908F
:10088B000004E060030209327E3410C67E2400FFB0
:10089B0002091A900092E0B40406900005E0600390
:1008AB000209329000047EEB707CA75EA00F1B70D8
:1008BB0068342E707F68040B70786C7E2400017C8A
:1008CB00BA60053E241478FB9000DAE00A3B5D32F7
:1008DB00680A7E3410C87E2400FF80337E3410C635
:1008EB007E2400FF80297E2400017CBA60053E2413
:1008FB001478FB9000DBE00A3B5D32680A7E341013
:10090B00C87E2400FF80087E3410C67E2400FF9032
:10091B0000D6793E00021BEA207E3400029000D400
:10092B001BEA308007800012209C800312206DDAB6
:10093B00F822CA79740E7E700112195A7414121AA5
:10094B00437CFB30E60874147E708012195A7CBF0E
:10095B0020E003020A367E14004C7E040001742151
:10096B001219D0900008F090008C693E00020BEA3F
:10097B00204D237803020A196CFF020A0E9000091E
:10098B00E01A3B90008C691E00020BEA002D317DB2
:10099B00207E1BA00A4F2E44004C7A91827A8183D1
:1009AB007EEBE0BCEA784090000904F0900009E08F
:1009BB001A3B2D317D207E1BB0704674146C771260
:1009CB00195AE47E34FE007E24007E7A1BB075F447
:1009DB000053DCF07E34FE077A1BB07E34000A1223
:1009EB001FBE75C76080FE90008C693E00020BEA4B
:1009FB00207E1B70BCE7780474018001E490000931
:100A0B00F00BF0900008E0BCFB5003020988D20009
:100A1B0090000A0BEA304D33681190000A0BEA3054
:100A2B00993474146C7712195AC200DA7922740152
:100A3B007E34FE0B7E24007E7A1BB07E34FE907AD1
:100A4B001BB07E34FE947A1BB07E34FE917A1BB0C1
:100A5B007E34FE927A1BB07E34FE937A1BB07E34CA
:100A6B00FE047E1BB044807A1BB07E34FE047E24D1
:100A7B00007E7E1BB030E0F27E34FE077E24007ECB
:100A8B007E1BB044807A1BB07E34FE077E24007E32
:100A9B007E1BB030E0F2740A7E34FE017E24007EB1
:100AAB007A1BB07E34FDEC7E1BB0F59F7E34FDF7D8
:100ABB007E1BB0F5A6E59D54FC4402F59D7E34FEED
:100ACB00007E1BB054FC7A1BB07E1BB044807A1B9B
:100ADB00B0E5DC549F4420F5DC43DC807E34000120
:100AEB00121FEE7E34FE007E24007E7E1BB054F37C
:100AFB0044047A1BB074047E14FE017E04007E7ADB
:100B0B000BB07E1BB054BF7A1BB022900000E05498
:100B1B0080BEB0806803020BC4900003E01BB16879
:100B2B00221468370BB16803020BC47E3410717E3C
:100B3B002400FF9000D6793E00021BEA207E340091
:100B4B0012806C7E3410837E2400FF9000D6793E99
:100B5B0000021BEA207E3400438054900002E01414
:100B6B00681F1468340BB178507E34106D7E2400EE
:100B7B00FF9000D6793E00021BEA207E34000480F1
:100B8B002E7E3410CA7E2400FF9000D6793E0002E0
:100B9B001BEA207E34000880167E34104F7E240022
:100BAB00FF9000D6793E00021BEA207E34001E9097
:100BBB0000D41BEA308005800002209C9000060BBD
:100BCB00EA309000D40BEA20BD2328069000D41BFA
:100BDB00EA3002206D53B2FC43B10374807E34FEC5
:100BEB00077E24007E7A1BB07E34FE077E24007EB7
:100BFB007E1BB030E0F253DCF075F490E46C7712AE
:100C0B00195A74017E700812195A74077E703F12BC
:100C1B00195A74097E703F12195A740B7E700712A1
:100C2B00195A74016C7712195A7402900092F0E4FD
:100C3B009000D3F09000DAF09000DBF0C2027E342B
:100C4B0001007E2400C290016B793E00021BEA205A
:100C5B0090016FF0900170F07408900171F0A9D7BA
:100C6B00AF740190018CF090018CE070119F11908A
:100C7B000184793E00021BEA209F000200EE22CA8B
:100C8B003B9001771BEA307F306D3390017A020D78
:100C9B00217438900179F09001770BEA50BE540023
:100CAB00385004900179F0121F5B900179E00A5BD8
:100CBB002E540003900010F074CF900011F09001AF
:100CCB007A0BEA107E3400127E2400011B1A10905E
:100CDB000179E00A3BCA397F137E1400147E0400AD
:100CEB0001121C4D1BFD900179E00A3B2E340008CC
:100CFB000A371220C5900179E00A3B2D73900179D8
:100D0B00E00A2B90017A0BEA302D321BEA3090016E
:100D1B00770BEA309D321BEA309001770BEA304DAE
:100D2B00336803020C9CDA3B22CA3B9001721BEA2C
:100D3B00307F306D33900175020DCB743890017498
:100D4B00F09001720BEA50BE5400385004900174BD
:100D5B00F0121F74900174E00A5B2E540003900094
:100D6B0010F074AF900011F09001750BEA107E3407
:100D7B0000127E2400011B1A10900174E00A3BCA7A
:100D8B00397F137E1400147E040001121C4D1BFDD1
:100D9B00900174E00A3B2E3400080A371220C590EC
:100DAB000174E00A3B2D73900174E00A2B900175DE
:100DBB000BEA302D321BEA309001720BEA309D3278
:100DCB001BEA309001720BEA304D336803020D467B
:100DDB00DA3B22900092E0BEB0026822900000E065
:100DEB00701C900003E07016900005E070109000EE
:100DFB0004E0700A9000060BEA304D3368030220C2
:100E0B009C900002E0B4015F7404900092F0E490B7
:100E1B0000DAF09000DBF0740E7E700112195A7438
:100E2B00127E702012195A74107E700812195A749F
:100E3B000E7E700212195A74127E702012195A7497
:100E4B00107E700812195A740E7E700112195A74A2
:100E5B00126C7712195A74137E700812195A740E89
:100E6B006C7712195A80107403900092F074FF90F3
:100E7B0000DAF09000DBF00220B8900092E0B404AE
:100E8B0029900000E0B40222900005E06003020FFD
:100E9B0023900003E06003020F23900002E07078C0
:100EAB009000060BEA304D336802806C9000047E94
:100EBB00EB607C765E700F1B60682E2E607F680483
:100ECB000B6078547E2400017CB760053E241478B7
:100EDB00FB7C656E60FF9000DAE05CB6F0740E127E
:100EEB00195A74117E704080237E2400017CB760F8
:100EFB00053E241478FB7C656E60FF9000DBE05CA4
:100F0B00B6F0740E12195A74147E708012195A743A
:100F1B000E6C7712195A800302209C0220B89000A5
:100F2B0092E0B40423900000E0B4021C900005E0B2
:100F3B00707A900003E07074900002E0706E900085
:100F4B00060BEA304D33680280629000047EEB6042
:100F5B007C765E700F1B6068292E607F68040B60C7
:100F6B00784A7E2400017CB760053E241478FB9000
:100F7B0000DAE04CB5F0740E12195A74117E701031
:100F8B00801E7E2400017CB760053E241478FB9004
:100F9B0000DBE04CB5F0740E12195A74147E7020FD
:100FAB0012195A740E6C7712195A800302209C0284
:100FBB0020B8CAF8740E6C7712195A7411121A43AE
:100FCB007CFB30E20F74117C7F5E70FB12195AE4CC
:100FDB009000D3F07CBF30E40A74117C7F4E70809C
:100FEB0012195A9000D3E024FD684E1468500BB2CE
:100FFB00784F7CBF30E04A7E1400007E0400017401
:10100B00201219D09000060BEA30121A0A90000633
:10101B001BEA30900000E0546024E0680D24E06887
:10102B000E2440780F1213548017121E34801212A4
:10103B0020F2800D12209C80081211528003121294
:10104B003ADAF8221E0353005400430020005500E7
:10105B0053004200200053006500720069006100DC
:10106B006C00040309041201000202000040BF34AB
:10107B0002FF00010102000109024300020100808E
:10108B0032090400000102020100052400100105D1
:10109B002401000104240202052406000107058235
:1010AB00034000FF09040100020A0000000705814C
:1010BB00024000000705010240000000000100088B
:1010CB0003530054004300CA7BCA6BCA5BCA4BCAAA
:1010DB003BCA2BCA1BCA0BC0D0C083C0827EF1FC9B
:1010EB007406121A437CEB7402121A437CCB740401
:1010FB00121A437CDB7CBE30E1031200C97CBE308C
:10110B00E2031215307CBC30E003120FBD7CBC3007
:10111B00E1031218647CBC30E203121B7D7CBD30F2
:10112B00E10312093D7CBE30E00312000A7AF1FCA8
:10113B00D082D083D0D0DA0BDA1BDA2BDA3BDA4B46
:10114B00DA5BDA6BDA7B32CAF8740E6C7712195AE7
:10115B007411121A4320E1679000D40BEA30BE34AD
:10116B00004028057EF04080027CF79000D6691E77
:10117B0000020BEA007C7F7420121BFB0A2F9000ED
:10118B00D40BEA309D321BEA300A159000D6693E2B
:10119B0000020BEA202D31793E00021BEA20900061
:1011AB00D40BEA304D33780F74117E700A12195A32
:1011BB00E49000D3F0800874117E700212195ADA91
:1011CB00F82290015C1BEA20793E00027E34015F1D
:1011DB007E2400017E1B307E3401607E2400017A68
:1011EB001B307E34015E7E2400017E1B307E340179
:1011FB00617E2400017A1B307E34015D7E24000168
:10120B007E1B307E3401627E2400017A1B307E34DB
:10121B00015C7E2400017E1B307E3401637E240042
:10122B00017A1B30900160693E00020BEA202274A8
:10123B000E6C7712195A7411121A4330E04F90004A
:10124B00D6691E00020BEA0074201219D00A1B90FB
:10125B0000D40BEA209D211BEA209000D6693E00AA
:10126B00020BEA202D31793E00021BEA209000D4BC
:10127B000BEA304D33780E74117E704812195AE414
:10128B009000D3F02274117E704002195A22900004
:10129B0000E0B48024900003E0701E900002E07028
:1012AB0018900005E07012900004E0700C9000069E
:1012BB000BEA30BE340001680302209C900092E0E0
:1012CB00B4040A7E3410C87E2400FF80087E3410DC
:1012DB00C67E2400FF9000D6793E00021BEA207EDA
:1012EB003400019000D41BEA3002206DCA799001C2
:1012FB00041BEA00791E0002121F8D74539000101C
:10130B00F0E4900011F0900012F0900013F07E3496
:10131B0001047E240001900184793E00021BEA2027
:10132B007E1400147E040001900104693E00020B40
:10133B00EA201200EE7D732E7400087D370B340A01
:10134B00371220C57D37DA7922900001E0BEB00D4F
:10135B0050507EA003A49013657302138C02138F5D
:10136B000213AD0213920213AD02139502139802EE
:10137B00139B02139E0213A10213A40213A70213C1
:10138B00AA02082E020E85020F29021401020B1667
:10139B000220EC021299020DDE0215C2021BA802FA
:1013AB0020EF02209CCA3B7F707CF57CE67CD77CCF
:1013BB00CBCA7B0A366D222F110A1F6D00121FD666
:1013CB00DA0B120D34121F747405900010F074A810
:1013DB00900011F09000127AEBC09000137AEBD0D2
:1013EB009000147AEBE09000157AEBF07E34000A53
:1013FB001220C5DA3B22CAF8900000E0702790005B
:10140B0005E07021900004E0701B900003E0701564
:10141B009000027EEBF0BEF080500A9000060BEAC3
:10142B00304D33680512209C8017E47C7F12195ACB
:10143B004CFF6804740380027402900092F0122037
:10144B00B8DAF822CAF87CFBBEF03B28037EF03BEF
:10145B00744C90000CF0744590000DF074449000A7
:10146B000EF0742890000FF09000107AEBF00A3F0A
:10147B00CA397F107E1400117E040001121C4D1B13
:10148B00FD0A3F2E3400050A371220C5DAF822CAAE
:10149B00F87CFBBEF03B28037EF03B744C90000CB9
:1014AB00F0744590000DF0744490000EF074409071
:1014BB00000FF09000107AEBF00A3FCA397F107ED4
:1014CB001400117E040001121C4D1BFD0A3F2E342B
:1014DB0000050A371220C5DAF822CAF87CFB900106
:1014EB00801BEA20793E0002121F8D744C90001075
:1014FB00F07401900011F09000127AEBF0E4900080
:10150B0013F0900180691E00020BEA007E34001478
:10151B007E240001791100021B1A007E34000C128C
:10152B0020C5DAF822E46C7712195A7402900092F3
:10153B00F0E49000D3F0C202740E7E700112195ABF
:10154B0074117E704812195A740E7E700212195A59
:10155B0074117E704812195A740E7E700112195A4A
:10156B0074147E709012195A740E6C7702195AA962
:10157B00D7BA75E90075EA007593007594007591FB
:10158B000075920075950075960075B10075B200E7
:10159B0075B30075B40075C90075CA0075CB0075BD
:1015AB00CC0075E10075E200120A391220DBD2AFD4
:1015BB00C2C2121C7280FE900092E0B4041F900015
:1015CB0000E0B48118900003E07012900005E07009
:1015DB000C9000060BEA30BE340001680302209C1D
:1015EB007E3410C67E2400FF9000D6793E00021B8D
:1015FB00EA207E3400019000D41BEA3002206D7586
:10160B0084017E44041FE47A49B01B4478F97EF8C8
:10161B0000207E0400FF7E1420F90B0A405D446815
:10162B0022295000020A25693000032E0800050B01
:10163B0044800A7E0BB07A1BB00B1C0B0C1B44783E
:10164B00F280D702207E7CA77C7B744C90000CF040
:10165B00744590000DF0744490000EF074289000C7
:10166B000FF07402900010F07CB754077E44000119
:10167B0060053E441478FB7CB9900011F090001289
:10168B007AEBA07E3400070220C57CA77C7B744CD0
:10169B0090000CF0744590000DF0744490000EF027
:1016AB00744090000FF07402900010F07CB7540758
:1016BB007E44000160053E441478FB7CB990001118
:1016CB00F09000127AEBA07E3400070220C57C6BF1
:1016DB00744C90000CF0744590000DF07444900025
:1016EB000EF0742890000FF07402900010F0E4904C
:1016FB000011F07CB65407C40354F87C6B4E608029
:10170B007CB754074CB6900012F07E3400070220D1
:10171B00C57C6B744C90000CF0744590000DF0740C
:10172B004490000EF0744090000FF0740290001083
:10173B00F0E4900011F07CB65407C40354F87C6BB2
:10174B004E60807CB754074CB6900012F07E34008C
:10175B00070220C5CA3B7CF57CE67CD77CCB7C7E24
:10176B00AC7F120C8A121F5B7405900010F074C8CA
:10177B00900011F09000127AEBC09000137AEBD02E
:10178B009000147AEBE09000157AEBF07E34000AAF
:10179B001220C5DA3B22CA3B7F3090018B7AEB706B
:1017AB0090018AF01220AA0B347F03120D34121F02
:1017BB00747403900010F074A7900011F090018ADC
:1017CB00E0900012F090018BE0900013F07E34005B
:1017DB00081220C5DA3B227C6B744C90000CF07421
:1017EB004590000DF0744490000EF0742890000F9B
:1017FB00F07402900010F0E4900011F05E60077C32
:10180B00B6C40354F87C6B7CB754074CB6900012EB
:10181B00F07E3400070220C57C6B744C90000CF0FA
:10182B00744590000DF0744490000EF074409000DD
:10183B000FF07402900010F0E4900011F05E60075E
:10184B007CB6C40354F87C6B7CB754074CB6900041
:10185B0012F07E3400070220C5CAF8740E7E7001A8
:10186B0012195A7411121A437CFB30E50874117E5D
:10187B00704012195A7CBF30E20774116C77121941
:10188B005A9000900BEA304D3368089000900BEAA9
:10189B00309934C202DAF822CA799001301BEA007F
:1018AB00791E00027E3401307E2400019001847980
:1018BB003E00021BEA207E14000C7E040001900106
:1018CB0030693E00020BEA201200EE7D730A3712DC
:1018DB0020C57D37DA7922CA3B7D727CCB121F5B28
:1018EB007406900010F074C6900011F07401900013
:1018FB0012F09000137AEBC09000147AEB707E34E8
:10190B0000157E2400011B1A707E34000B1220C5BB
:10191B00DA3B22CA3B7D727CCB121F5B74069000B4
:10192B0010F074C6900011F07402900012F0900049
:10193B00137AEBC09000147AEB707E3400157E2482
:10194B0000011B1A707E34000B1220C5DA3B227C7F
:10195B00A77C7BE5FC20E7FB7CB7547FF5FC000004
:10196B00000000000000000000000000000000006C
:10197B00000000000000000000000000000000005C
:10198B000000000000007AA1EC22CA3B7D727CCBE8
:10199B00121F5B7406900010F074C6900011F0E4F7
:1019AB00900012F09000137AEBC09000147AEB7059
:1019BB007E3400157E2400011B1A707E34000B123E
:1019CB0020C5DA3B22CA3B7F30CAB80BFD74161216
:1019DB001A437AFBB039BFFFFF800C29BFFFFE1201
:1019EB001A437A3BB00B747EFBA07CBA147AFBB023
:1019FB004CAA78E729BFFFFF9EF80003DA3B229041
:101A0B00017C1BEA307E34017D7E2400017E1B307D
:101A1B007E34017E7E2400017A1B307E34017C7E75
:101A2B002400017E1B307E34017F7E2400017A1B53
:101A3B003090017E0BEA30227CABE5FC20E7FB7C8F
:101A4B00BA4480F5FC00000000000000000000001C
:101A5B00000000000000000000000000000000007B
:101A6B0000000000000000000000000000E5EC2278
:101A7B00CA3B121F8D7443900010F0E4900011F0DC
:101A8B00900012F0900013F07E340008CA397F10DA
:101A9B007E1400147E040001121C4D1BFD7E3400CD
:101AAB00101220C5DA3B22CA3B7F31121F8D7444C2
:101ABB00900010F07401900011F0E4900012F0907F
:101ACB000013F07E3400147E240001797100021B98
:101ADB001A607E34000C1220C5DA3B22900092E093
:101AEB00B40409900000E0BEB0A1680302209C7E04
:101AFB0034016B7E2400019000D6793E00021BEA74
:101B0B00209000060BEA309000D41BEA3002206DC7
:101B1B00900092E0B40409900000E0BEB02168038D
:101B2B0002209C7E34016B7E2400019000D6793E0E
:101B3B0000021BEA209000060BEA309000D41BEA4F
:101B4B003002208ECA39C083C0829001880BEA30E4
:101B5B000B341BEA309001880BEA30BE3400644032
:101B6B000A6D339001881BEA30B2C2D082D083DA7F
:101B7B003932CAF8740E7E700212195A7411121A85
:101B8B00437CFB30E50874117E704012195A7CBF00
:101B9B0030E20774116C7712195ADAF8229000921E
:101BAB00E0B4041D900000E0B40116900003E07057
:101BBB0010900005E0700A9000060BEA304D336878
:101BCB000302209C0220B87D2300000000000000CF
:101BDB0000000000000000000000000000000000FA
:101BEB00000000000000007D321B347D2378DA22D8
:101BFB00CA3BCA787F30CAB8800B7EFBB07E3B7085
:101C0B000B7412195A29AFFFFF7CBA1439BFFFFFAF
:101C1B004CAA78E61BFDDA3B22CAF87CFB121F7438
:101C2B007403900010F074A3900011F074029000F4
:101C3B0012F09000137AEBF07E3400081220C5DA14
:101C4B00F8227F217F707F10800A7E2B307A1B3029
:101C5B000B540B34691FFFFD7D011B04790FFFFD36
:101C6B004D1178E67F17225389F0E589F589758A3E
:101C7B00E0758CB1740B7E34FEA07E24007E7A1B43
:101C8B00B0438E80D2A9D2AFD28C22CAF87CFB1281
:101C9B001F5B7402900010F074C5900011F090005F
:101CAB00127AEBF07E3400071220C5DAF822CAF85C
:101CBB007CFB121F5B7402900010F074C490001137
:101CCB00F09000127AEBF07E3400071220C5DAF8A0
:101CDB0022CAF87CFB121F747402900010F074A5DA
:101CEB00900011F09000127AEBF07E340007122076
:101CFB00C5DAF8228012000000000000000000008E
:101D0B0000000000000000007D231B344D2278E60C
:101D1B0022121F5B7402900010F074C7900011F038
:101D2B007401900012F07E3400070220C5121F5B75
:101D3B007402900010F074C0900011F074019000C8
:101D4B0012F07E3400070220C5121F74740290003B
:101D5B0010F074A3900011F07401900012F07E3417
:101D6B0000070220C5121F747402900010F074A4B7
:101D7B00900011F07401900012F07E3400070220E5
:101D8B00C5121F5B7402900010F074C2900011F02A
:101D9B007401900012F07E3400070220C5121F74EC
:101DAB007402900010F074A2900011F07402900075
:101DBB0012F07E3400070220C5121F5B74029000E4
:101DCB0010F074C1900011F07401900012F07E3489
:101DDB0000070220C5121F747402900010F074A04B
:101DEB00900011F07401900012F07E340007022075
:101DFB00C5121F747402900010F074A2900011F0C1
:101E0B007401900012F07E3400070220C5121F747B
:101E1B007402900010F074A1900011F07401900006
:101E2B0012F07E3400070220C5900001E024DF6829
:101E3B000A14680A0BB17809021B1B021AE702206D
:101E4B000502209C121F5B7402900010F074C0906E
:101E5B000011F0E4900012F07E3400070220C5124E
:101E6B001F747402900010F074A4900011F0E490B1
:101E7B000012F07E3400070220C5121F5B74029023
:101E8B000010F074C7900011F0E4900012F07E3453
:101E9B0000070220C5121F747402900010F074A08A
:101EAB00900011F0E4900012F07E3400070220C580
:101EBB00121F747402900010F074A3900011F0E4E0
:101ECB00900012F07E3400070220C5121F5B7402D3
:101EDB00900010F074C2900011F0E4900012F07EAC
:101EEB003400070220C5121F5B7402900010F074BF
:101EFB00C1900011F0E4900012F07E340007022034
:101F0B00C5121F747402900010F074A1900011F0B0
:101F1B00E4900012F07E3400070220C5121F747487
:101F2B0002900010F074A2900011F0E4900012F0F7
:101F3B007E3400070220C5CAF80A5B2E540020121B
:101F4B0019D07CFB74146C7712195A7CBFDAF82207
:101F5B00744F90000CF0744C90000DF07445900091
:101F6B000EF0748090000FF022744C90000CF07403
:101F7B004390000DF0744490000EF0748090000FAD
:101F8B00F022743790000CF0745390000DF07445F0
:101F9B0090000EF0744790000FF022A9C7AF740E9B
:101FAB007E700112195A74146C7712195AC200A957
:101FBB00D7AF22CA797D7380077E3403E8121CFFEA
:101FCB007D371B744D3378F1DA792275ED02226D72
:101FDB000075ED022275ED04226D0075ED0422757E
:101FEB00ED06227D237E3417707D131B147D317813
:101FFB00F87D121B147D2178EC22900092E0B40442
:10200B0009900000E0BEB021680302209C0220B8BA
:10201B00121F747401900010F074A6900011F07EE2
:10202B003400060220C5121F5B7401900010F0747F
:10203B00C3900011F07E3400060220C57CA77C7B88
:10204B000A5A2E540020121BFB74117E70010219C8
:10205B005A7E14004C7E040001900008E00A3B02FB
:10206B00000E74039000D3F074117E704012195A55
:10207B0002115212157A9F007E3421287E2400FF14
:10208B000200CE74049000D3F074117E70400219DC
:10209B005A74059000D3F074117E706002195A6D5A
:1020AB003380020B347E0BB00B1470F722E49000DC
:1020BB00D3F074117E704802195A7E14000C7E0402
:1020CB00000102000E90008C791E00021BEA002218
:1020DB00120BE07E34205C0220E590000A1BEA30F4
:1020EB002202209C02209C02209C28302900000206
:1020FB000101880000000101000900000201000A33
:10210B000000000401008C00FF211F000201009061
:0F211B000000000040535443495350230030004C
:00000001FF
